:100000000C9488020C94A4210C94A5020C94A502D3
:100010000C94A5020C94A5020C94A5020C94A502C4
:100020000C94A5020C94A5020C94CA260C949E274D
:100030000C9423200C94A5020C94A5020C94A50208
:100040000C94A5020C94A5020C94A5020C94A50294
:100050000C94A5020C94C6200C94A5020C94A50245
:100060000C94A5020C94A5020C94A5020C94A50274
:100070000C94A5020C94A5020C94A5020C94A50264
:100080000C94A5020C94A5020C94A5020C94A50254
:100090000C94A5020C94A5020C94A5020C94A50244
:1000A0000C94A5020C94A5020C94A50235421E00E6
:1000B0001F0020002100220026022B0014001A003D
:1000C0000800150017002F00294104001600070042
:1000D00009000A002700E1001D001B0006001900AE
:1000E0000500AA00E000572156005524000A2A0006
:1000F0004C002D4227002600250024002300270263
:100100003100130012000C0018001C0030003400F5
:1001100033000F000E000D000B0021022E003800EE
:100120003700360010001100A9004F0052005100A6
:10013000500031282C00280001003A003B003C0010
:100140003D003E00440001001F021F022F0201007B
:10015000310201000100200221022F003000350091
:1001600001000100220223022602270235020100BB
:100170000100010001000100010001000100000078
:1001800043004200410040003F004500000056008F
:10019000010060005F005400010000004F005200A9
:1001A0005100500000000100000058005B005A00A0
:1001B0005900000001000000580063006200620066
:1001C0000100010001000100010001000100010027
:1001D000010000000000CD000000D9000000010077
:1001E0000000CF00CE00D000DA00000001000000C7
:1001F00000000000000000000000010000000000FE
:1002000000000000D100D200010001000100010047
:1002100001000100010001000000000000000000DA
:10022000000000000100000000004F0052005100DB
:10023000500000000000000000000000000000006E
:1002400001000000000000000000000001000100AB
:1002500000003A003B003C003D003E0023780000D7
:10026000007C2B78207821782478000000000000A2
:10027000000000000000000001000000000000007D
:10028000000000000000000000000000000000006E
:100290000000000000000000430042004100400058
:1002A0003F00267800000000000027782878257895
:1002B000000000000000000000000000000001003D
:1002C000000000000000000000000000000000002E
:1002D000000000000000000000000000000101011B
:1002E00001010101010102020202020202020203F3
:1002F00003030303030303040404040404040505C3
:100300000505050606060606070707070708080885
:1003100008090909090A0A0A0B0B0B0C0C0C0D0D34
:100320000D0E0E0E0F0F0F101011111112121313CC
:100330001414151516161717181819191A1A1B1B45
:100340001C1D1D1E1E1F20202122222324242526A1
:1003500026272829292A2B2C2D2D2E2F30313232D9
:10036000333435363738393A3B3C3D3E3F404142E5
:10037000434445464748494A4C4D4E4F50515354CB
:10038000555658595A5B5D5E5F616264656668697F
:100390006B6C6D6F7072737577787A7B7D7E8082FF
:1003A000838587888A8C8E8F91939596989A9C9E48
:1003B000A0A2A3A5A7A9ABADAFB1B3B5B7BABCBE58
:1003C000C0C2C4C6C9CBCDCFD1D4D6D8DBDDDFE225
:1003D000E4E7E9EBEEF0F3F5F8FAFDFF0C03520069
:1003E000650064006F00780000001403460061009F
:1003F0006C0062006100740065006300680000002A
:100400000403090409023B00020100A0FA090400E8
:10041000000103010100092111010001224400072C
:10042000058103080001090401000103000000091F
:100430002111010001227B00070582032000011227
:1004400001000200000008444D4452000101020076
:100450000105010902A10185020901A1000509198F
:10046000012908150025019508750181020501097A
:100470003009311581257F950275088106093815E7
:1004800081257F950175088106050C0A38021581C2
:10049000257F950175088106C0C005010980A1016D
:1004A000850319012AB700150126B70095017510BB
:1004B0008100C0050C0901A101850419012AA002CF
:1004C000150126A002950175108100C005010906DD
:1004D000A101050719E029E7150025019508750117
:1004E00081029501750881010507190029FF150092
:1004F00026FF0095067508810005081901290515D4
:10050000002501950575019102950175039101C0C2
:1005100011241FBECFEFDAE0DEBFCDBF11E0A0E0B7
:10052000B1E0ECE6F5E502C005900D92AE3BB107F7
:10053000D9F723E0AEEBB1E001C01D92A731B207BD
:10054000E1F70E941D150C94602A0C940000843081
:10055000B8F46A30A8F4473098F450E097E0699F07
:10056000400D511D1124FA0196E4899FE00DF11D03
:100570001124EE0FFF1FE455FF4F859194910895CC
:1005800081E090E008950E94A702089581E0089517
:100590000E94C602089581E008950E94C60208954F
:1005A0000E94CD02089508950E94D3020895A6E006
:1005B000B0E0EDEDF2E00C94942949835A839E83D8
:1005C0003091C50189819A8131111AC03E8133234E
:1005D00099F0222389F00E94EC08182F682F898156
:1005E0009A810E94C80869817A81812F0E94B40F84
:1005F0002696E3E00C94B0290E94DA08182FF3CF76
:100600000E94EC0869817A81F1CFFC01262F40819C
:10061000518162817381848195810E94D7020895FE
:10062000CF93DF93EC0161E00E940503BE010E94BD
:10063000C802DF91CF910895CF93DF93EC0160E082
:100640000E940503BE010E94D402DF91CF9108955C
:1006500081E008950E9428030895CF93C82F0E9437
:100660009D078C2F0E942A032FEF84E39CE02150EA
:1006700080409040E1F700C00000CF91089581E0F4
:100680000E942D030E94EA20089580E00E942D031D
:100690000E94FB2008950F931F93CF93DF938C014B
:1006A00061E00E940503EC01F801858181110E943F
:1006B0009418B801CE010E94D002811106C080E0DA
:1006C000DF91CF911F910F910895B801CE010E9443
:1006D000831E8823A1F3B801CE010E94AD1A88239E
:1006E00071F3B801CE010E94831A882341F3B80147
:1006F000CE010E949C18882311F3F801858188237C
:1007000061F0C330FCE7DF07E9F058F4C115ECE70E
:10071000DE07A9F0C130DC47B9F0C8010E94CB0266
:10072000CFCFCB358CE7D807A9F0CC35ECE7DE0787
:1007300071F0CA35DC4789F70E94030DEECF0E94A5
:100740003F03BDCF0E940B0D0E944503B8CF0E940E
:10075000F90CE3CF0E94070DE0CF0E9400200E9419
:10076000D40308950E94D8030E9405200895089597
:1007700081E008950895CF93DF93D82F0E94B803A6
:10078000C82F882319F08D2F0E94BA038C2FDF9178
:10079000CF9108950895CF93C82F0E94B7038C2F4F
:1007A0000E94BB03CF91089580E00E94CB0308957F
:1007B0000E94CC1E0E94CB030895CF930E94CC1EB2
:1007C000C82F8091C0018C1779F0C093C0010E949E
:1007D0008F206093C1017093C2018093C3019093F5
:1007E000C4018C2F0E94CB03CF910895ADE0B0E0FF
:1007F000ECEFF3E00C949529488759876A877B874B
:100800008C879D8791110E94390C1F8286E0FE0122
:100810003896DE01119601900D928A95E1F78D814F
:1008200081110DC029813A814B815C816D817E816E
:100830008F810E94830B2D96E2E00C94B129CE01AA
:1008400001960E9410038111EDCFF5CFFC012481A8
:10085000213021F4808191810E941E090895662330
:1008600029F00E940E1C0E94F31C08950E947A1C1D
:10087000FACFCF93C82F8823C9F08238C9F40E94D9
:10088000E01E81FD13C089E30E94961F0E94A80C00
:100890002FEF87EE93E0215080409040E1F700C0B9
:1008A000000089E30E949E1F0E94A80CCF9108952A
:1008B0008338A1F40E94E01E80FDF8CF83E50E94FA
:1008C000961F0E94A80C2FEF81EE94E021508040EB
:1008D0009040E1F700C0000083E5E4CF8438A1F444
:1008E0000E94E01E82FDE2CF87E40E94961F0E94D4
:1008F000A80C2FEF81EE94E0215080409040E1F76A
:1009000000C0000087E4CECF8CEF8C0F813A98F4C2
:100910008C2F0E94B0198111C9CF8C2F0E945B1FB0
:10092000882329F08C2F0E949E1F0E94A80C8C2FD8
:100930000E94961FB9CF80E28C0F883048F4C770B0
:1009400081E001C0880FCA95EAF70E941C0CACCF69
:10095000EBE5EC0FE33040F4F0E0EF58FE4F808120
:1009600090E00E94FC1EA2CFE8E5EC0FEB3150F4C2
:10097000F0E0EE0FFF1FE55CFE4F808191810E9449
:10098000211F94CF83E38C0F833108F08FCF61E078
:100990008C2F0E942F048ACF882309F456C08238F6
:1009A00079F40E94E01E81FF50C089E30E94961FE7
:1009B0000E94A80C89E30E949E1F0E94A80C089523
:1009C000833859F40E94E01E80FF3FC083E50E94F7
:1009D000961F0E94A80C83E5EECF843859F40E943C
:1009E000E01E82FF32C087E40E94961F0E94A80C7E
:1009F00087E4E1CF9CEF980F913AE8F290E2980FEC
:100A0000983050F4877091E001C0990F8A95EAF709
:100A1000892F0E94220CD1CF9BE5980F933028F4A8
:100A200090E080E00E94FC1E089598E5980F9B31AD
:100A300028F490E080E00E94211F089593E3980F2E
:100A4000933118F460E00E942F0408951F93CF9310
:100A5000DF93182FEB010E943904209739F4812F7E
:100A60000E94CC04DF91CF911F9108958FE99FE000
:100A70000197F1F700C000002197EFCF70E060E030
:100A8000893311F460E570E00E94260508958823FB
:100A900021F00E941C0C0E94A80C0895882321F0CC
:100AA0000E94220C0E94A80C0895B0E0A0E0EBE5A3
:100AB000F5E00C948E296C01D62FC72FFC0115810F
:100AC000068102950F700E94120CE82E8823F9F01F
:100AD000E12E1123E1F08C2F807F803461F080E2E1
:100AE0008D0F883008F18C2F807E803221F4D23037
:100AF000D8F00023C9F08091BD0282FF15C082E0CA
:100B00000E94CD0C0E94120C91E0E82EE926BC2E2A
:100B1000B2949FE0B922FBE0FB15B8F1EB2DF0E0B9
:100B2000EE59F54D0C947F29E12CF1CF0C2F0F706D
:100B3000C07F11F00295007F112399F0002359F036
:100B400080E28D0F883010F0D11107C0802F0E94F5
:100B50001C0C0E94A80C8D2F5AC0802F0E942C0CB8
:100B6000F8CF8D2F0E94CC04002379F080E28D0F06
:100B7000883010F0D11104C0802F0E94220C03C0D5
:100B8000802F0E94320C0E94A80CEB2DE850FF0B26
:100B9000349720F40E94CC1E0E94CB03EE2089F0F3
:100BA0000E940E0C80FD0DC0F60115820E94080CFB
:100BB0000E942608C6010E9464070E94080C0E9439
:100BC0003608CDB7DEB7E9E00C94AA292C2F2F7098
:100BD000F22EC07FC03219F0F29480EFF822DD23AC
:100BE00041F0D130D1F1112309F444C00023F1F0D8
:100BF000B2CF8091BD0282FD15C0112359F0FF20B4
:100C000029F08F2D0E941C0C0E94A80C80E00E94ED
:100C10003904BBCF80E00E94CC04FF2009F4B5CF9B
:100C20008F2DABCF112369F0011104C08F2D0E94CD
:100C30004705ABCF013009F0A8CF8F2D0E94500C93
:100C4000A4CF0111A2CF8F2D0E944E058F2D0E949F
:100C50005C0C8F2D0E94400C98CF112321F00630A0
:100C600008F093CFE3CF053008F08FCF8F2D0E948F
:100C70004E058BCF0023D1F3D93349F43FEF87EEF4
:100C800093E0315080409040E1F700C000008D2F8C
:100C90000E94CC047ACF8C2F86958695837069F05C
:100CA000813009F072CF8D2F9C2F9370111102C0EB
:100CB00080E090E00E94211F68CF8D2F9C2F9370C1
:100CC000111102C080E090E00E94FC1E5ECF612FF7
:100CD0008D2F0E942F0459CF8C2F8370A1F51111F5
:100CE00054CF4D2F429546954770440F440F2D2FFA
:100CF0002F7030E0042E02C0220F331F0A94E2F757
:100D000090E080E0D4FF09C08FE090E002C0880F3F
:100D1000991F4A95E2F780959095C695C695C37040
:100D2000822B932BC23049F058F4C13019F00E9445
:100D3000F6072BCF0E94ED0728CF0E94FF0725CF93
:100D40000E94EA0722CF8695112311F08C2F817023
:100D5000882309F41ACF4D2F429546954770440FCA
:100D6000440F2D2F2F7030E0042E02C0220F331FAE
:100D70000A94E2F790E080E0D4FF09C08FE090E0B1
:100D800002C0880F991F4A95E2F780959095C69505
:100D9000C695C370822B932BC23049F058F4C130F2
:100DA00019F00E946108F1CE0E945808EECE0E9410
:100DB0006A08EBCE0E940E08E8CECF70112329F00E
:100DC0008C2F0E9426088D2F32CF8D2F0E944E052A
:100DD0008C2F0E943608D9CED23F41F160F4D03F2B
:100DE000B9F0D13F81F0112309F446C00111B3CE0F
:100DF0008C2F8F711FC0D33F01F1D43FA1F7809199
:100E0000BD0282FD24C08C2F8F71112311F312C0FB
:100E1000112341F0053008F0B8CE8C2F8F710E945D
:100E20004808B3CE063008F0B0CEF7CF8C2F8F71C4
:100E30001111CFCF0E942608A8CE112329F08C2FA4
:100E40008F710E941A08A1CE0E9415089ECE112310
:100E500049F0CF718C2F0E94260863E08C2F0E94EE
:100E6000AF0C93CE81E00E94CD0C023008F48DCE01
:100E700082E00E94CD0C89CE002359F0D93309F0CD
:100E800006CFEFEFF7EE23E0E150F0402040E1F72E
:100E9000FCCE8C2F8F719DCF0F931F93CF93DF9339
:100EA000EC01688179818D810E9429098C010E9461
:100EB00073080E94E907B801CE010E945505DF9131
:100EC000CF911F910F910895CF93DF93EC018C8107
:100ED000882399F0CE010E944B03811111C00E941A
:100EE000120C882351F08D81882339F08091BD0246
:100EF00082FF03C082E00E94CD0CDF91CF91089564
:100F0000CE010E944C07CE010E941C03F6CF90E058
:100F100080E00E94FC1E90E080E00E94211F0E9461
:100F2000390C0E94A80C0E940F1D0E94F31C08950A
:100F30000E94A61F0E94870708950E94290C0E9404
:100F40009807089592959F70963091F058F4925FAB
:100F50009F70923058F4803F19F030F4883E30F49E
:100F600081E008959A5FF4CF843FD1F380E0089543
:100F7000883EB0F3813FD1F7F3CFFC0124812223D7
:100F800039F0808191810E941E090E94A207089574
:100F900080E00895A6E0B0E0E0EDF7E00C9495293C
:100FA0002696E2E00C94B129A7E0B0E0EAEDF7E084
:100FB0000C9495292796E2E00C94B12908950E949B
:100FC000DE0708950E94DF079093ED018093EC0106
:100FD000089508950E94E20708952091EC01309150
:100FE000ED01822B932B0E94E20708952091EC01E2
:100FF0003091ED01822393230E94E207089520910E
:10100000EC013091ED01822793270E94E2070895B9
:101010000E94DE0708950E94080808950E940B08A8
:101020009093EB018093EA01089590E080E00E94A4
:101030000E08089521E030E0A90102C0440F551FB9
:101040008A95E2F7CA010E940E08089521E030E077
:1010500002C0220F331F8A95E2F78091EA01909136
:10106000EB01822B932B0E940E08089521E030E0C3
:1010700002C0220F331F8A95E2F7209530958091A8
:10108000EA019091EB01822393230E940E080895B8
:1010900021E030E002C0220F331F8A95E2F78091F1
:1010A000EA019091EB01822793270E940E08089590
:1010B0002091EA013091EB01822B932B0E940E08C4
:1010C00008952091EA013091EB01822393230E943D
:1010D0000E0808952091EA013091EB0182279327B1
:1010E0000E940E0808950895262F277091E001C0F0
:1010F000990F2A95EAF723E0769567952A95E1F707
:10110000660F771F660F771FFA01E60FF71F50E093
:1011100040E0682F70E08191DF0111979B01042E60
:1011200002C0369527950A94E2F721702195282769
:10113000292328272C934F5F5F4F4430510559F7DF
:101140000895A82FA77023E0969587952A95E1F733
:10115000880F991F880F991FFB01E80FF91F50E0B6
:1011600040E080E0219130E00A2E02C036952795BC
:101170000A94E2F721703327042E01C0220F0A944B
:10118000EAF7822B4F5F5F4F4430510559F70895BE
:10119000262F9A3070F4873060F4682F70E087E073
:1011A000989F600D711D112446EC51E0822F0E9422
:1011B00074080895292F9A3068F4873058F490E025
:1011C00066EC71E037E0239F800D911D11240E9491
:1011D000A108089580E00895B0E0A0E0E2EFF8E013
:1011E0000C948E297C010091EA011091EB01809111
:1011F000EC019091ED01082B192BCFE0D0E0CC242D
:10120000C394D12CBC2EC6010C2E02C0880F991F8E
:101210000A94E2F780239123892B49F4219790F7D0
:10122000B12C8B2DCDB7DEB7E9E00C94AA29B7011C
:101230008C2F0E94C00F019789F3F3CFCF93DF93D8
:10124000EC010E94EC08BE010E94C00FDF91CF911B
:1012500008951F93CF93DF93EB019091C5019923DC
:1012600039F0CB010E941E09DF91CF911F910895A3
:10127000882369F0CB010E94EC08182F682FCE015B
:101280000E94C808BE01812F0E94C00FEDCFCB0184
:101290000E94DA08182FF6CF1F93CF93DF93C091E7
:1012A000EE0117E08091EF018C1304C0DF91CF9124
:1012B0001F910895D0E01C9FF0011D9FF00D112497
:1012C000E051FE4F208131814281538164817581DB
:1012D00086810E94D4072196C770E4CF209128020E
:1012E0003091290240912A0250912B0260912C02E8
:1012F00070912D0280912E020E94D4070895CF9301
:10130000DF9380912E02807F09F04DC080912D02E5
:10131000882309F448C0E091EE015091EF01C0919B
:101320002902D091280260912A0270912B0247E095
:101330005E17C9F18E2F90E0E49FF0011124E05177
:10134000FE4F2481222391F1489FF001499FF00D27
:101350001124DF01A051BE4F11962C9111972C132F
:1013600025C02C912D1322C015962C911597211173
:101370001DC012962D913C91261B370B283C310540
:10138000A8F480912E028F70806180932E02EA5023
:10139000FE4F80818F708061808388E292E00E949E
:1013A00064070E944C09DF91CF910895FC013196AA
:1013B000E770BECF482F2091EE019091EF0157E0EA
:1013C000291302C080E0089530E0529FF001539F3E
:1013D000F00D1124E051FE4F8181681306C0808119
:1013E000481303C085818111EECF2F5F3F4F2770D7
:1013F000E7CFA4E1B0E0EFEFF9E00C948B298C018A
:1014000086E0F801DE011F9601900D928A95E1F7C2
:10141000F8018481E58098E2A92E92E0B92E90919E
:101420002C0291111FC08823D1F0EE20A9F0C80131
:101430000E94BD07F82E882379F087E0F801D501D6
:1014400001900D928A95E1F7C5010E9426040E9441
:101450007F090E946E095FC0C8010E946407FF24D3
:10146000F39459C0C080D18082809380F0902D0287
:1014700020912A0230912B02A401421B530BFF2022
:1014800009F4F9C0483C510508F0A7C0882309F4C5
:1014900042C09091290280912E02282F207F09F0CE
:1014A0005CC09D1116C090912802C91212C0E110B3
:1014B0004EC08F70806180932E020E946E0988E278
:1014C00092E00E94640780912E02F8018683F12C3D
:1014D00022C0E1103CC06D2D8C2D0E94DA096D2DCB
:1014E0008C2D0E94DA09E82E8111F1CFCF86D88A9F
:1014F0008F8598890E941E09292F22952F702430EC
:1015000078F49F702230A8F09923B9F0F801968101
:10151000907F99F4FE2C8F2D6496ECE00C94A72913
:101520002A5F2F70223068F0C8010E946407EF2CF8
:10153000F1CF992311F0882369F3805E883050F34E
:10154000F3CF803F38F3815F833070F7E3CF809132
:101550002E02816080932E02BACF9D1113C090910C
:101560002802C9120FC0E1100DC08683C8010E9475
:10157000640787E0F801A8E2B2E001900D928A9535
:10158000E1F767CFC8010E94BD07882309F464CF43
:10159000EE2009F461CF80912E02803288F02091F4
:1015A000280230912902398728879B868A86909164
:1015B0002C029C871D868E87CE0108960E946407A8
:1015C00087E0F801A8E2B2E001900D928A95E1F778
:1015D0000E947F090E946E0942CF90912E02292F0E
:1015E000207FA1F4682D9A8A898AA6017A899E2D86
:1015F0000E94CA0788E292E00E94640787E0F50132
:1016000011928A95E9F70E946E0961CF882309F447
:1016100082CF809129028D1110C080912802C812BA
:101620000CC0E1100AC09683C8010E94640787E0DD
:10163000F50111928A95E9F76ECFC8010E94BD07A6
:10164000882309F409CFEE2009F406CF80912E02F9
:10165000803208F4B5CF20912802309129023A83D4
:1016600029839C828B8290912C029D831E828F8382
:10167000CE010196A3CF483C5105B8F5882309F463
:10168000EECEFE2CEE2009F4E7CE809129028D11DA
:101690001EC080912802C8121AC080912E0280FDBF
:1016A0000DC0982F907F51F08683903F09F45ECF54
:1016B000982F907F905F8F70892B57CF87E0F8012C
:1016C000A8E2B2E001900D928A95E1F724CFC8011B
:1016D0000E94BD07811174CF80912E02816080939A
:1016E0002E02C8010E94640716CF682D9A8A898A43
:1016F000A6017A899E2D0E94CA0787E0F501119202
:101700008A95E9F7A6CEAEE0B0E0E9E8FBE00C94FC
:101710009429288739874A875B876C877D878E87DE
:10172000CE0108960E94F9098823B1F06C856623E2
:1017300041F0288539854A855B857D858E850E94A7
:10174000D40717E08091EE019091EF0189133DC01D
:101750002E96E3E00C94B02987E0FE013896DE0176
:10176000119601900D928A95E1F78C85882349F3B3
:101770002091EF0130E0C9010196877099274091CF
:10178000EE014817190699F097E0929FD001939FB8
:10179000B00D1124A051BE4FFE01319601900D9263
:1017A0009A95E1F78093EF010E944C09CACF0E94FD
:1017B0009D071092EF011092EE0187E0E8E2F2E05F
:1017C000DF011D928A95E9F7BCCF819FC0011124EA
:1017D00080519E4F0E94F909882309F4B9CFE09106
:1017E000EE011E9FF0011124E051FE4F2081318156
:1017F000428153816481758186810E94D4078091E2
:10180000EE0190E00196877099278093EE019ACFC0
:101810008091370286958695869508958091370246
:101820008770089590913702977081E009F480E005
:10183000089580914302089590914302892B8093EB
:101840004302089580959091430298239093430218
:10185000089510924302089590914202892B80933B
:1018600042020895809590914202982390934202FB
:10187000089510924202089508950E943C0C089524
:1018800090913802292F282331F080958923809365
:1018900038020E943D0C089508950E944C0C089552
:1018A00090913902292F2823281729F0982B9093FB
:1018B00039020E944D0C089590913902292F282356
:1018C00031F080958923809339020E944D0C089550
:1018D00080913902882329F01092390280E00E9419
:1018E0004D0C08950F931F93CF93DF930091000148
:1018F00010910101C091430280914202C82B809156
:101900003902882331F0C82B0E94461F81110E94A2
:10191000680CF801C083C0910001D091010148E03A
:1019200050E06FE272E0CE010E94F229892B59F05B
:1019300088E0FE01AFE2B2E001900D928A95E1F7F6
:10194000CE010E94E31EDF91CF911F910F91089568
:101950000E94720C089508950E94AB0C0895909116
:10196000BD0292FF11C098E0899F90011124622B63
:10197000609337020E9426088091370286958695EB
:1019800086950E94AC0C08950E9426080895109236
:10199000370280E00E94AC0C089590913702809548
:1019A000892380933702282F277069F4891759F00B
:1019B0009091BD0292FF07C08695869586950E94FC
:1019C00036080E94C70C08959091BD0292FB222711
:1019D00020F9281769F080FB92F99093BD0280915D
:1019E000BC029091BD020E942C0D82E00E94CD0CA1
:1019F00008958091BD0282FB882780F991E08927B4
:101A00000E94E40C089581E00E94E40C089580E0B7
:101A10000E94E40C08956FEF7FEF90E080E00E9459
:101A20004A2A089590E080E00E94162A21E0863E2E
:101A30009E4F09F020E0822F089582E090E00E94FE
:101A4000082A089583E090E00E94082A089584E01F
:101A500090E00E94162A0895BC0184E090E00E9464
:101A60004A2A0895AB01BC018FE090E00E943E2A13
:101A70000895AB01BC0183E190E00E943E2A0895E5
:101A800060E070E0CB010E94390D089560E070E0E5
:101A9000CB010E94320D0E94400D0895A8E0B0E0F5
:101AA000E4E5FDE00C94952966EE7EEF90E080E0A1
:101AB0000E944A2A60E082E090E00E942C2A81E0A5
:101AC00090E09093ED018093EC0161E083E090E081
:101AD0000E942C2A60E074E184E090E00E944A2A8F
:101AE00060E086E090E00E942C2A6FEF87E090E0B3
:101AF0000E942C2A40E050E0BA0188E090E00E9469
:101B00003E2A60E084E290E00E942C2A60E087E1B7
:101B100090E00E942C2A60E08CE090E00E942C2A49
:101B200060E08DE090E00E942C2A19821A821B82CC
:101B30001C821D821E821F82188648E050E068E1E8
:101B400070E0CE0101960E941C2A40E050E0BA01EC
:101B500080E290E00E943E2A0E94460D2896E2E034
:101B60000C94B1290E944E0D0895682F8EE090E0EC
:101B70000E942C2A0895A6E0B0E0E1ECFDE00C9470
:101B800093290E9483208C01809144029091450208
:101B90008017910781F019821A820E948320682F92
:101BA00049815A81792F80E090E00E94F6031093DA
:101BB0004502009344022696E4E00C94AF290E946B
:101BC000DC106093540270935502809356029093F8
:101BD0005702609350027093510280935202909387
:101BE00053020895089508950E94F20D08950895EE
:101BF0000E94F70D089581E0089586EF90E10E941C
:101C00002A150E94F30D0E94F40D08950E94CC1233
:101C10000895089508950E94090E0E940A0E0895DD
:101C20000E94F9100E94CA0308950E947A200E941F
:101C3000B6100E94D2120E9423120E94100E0E941F
:101C40006B1A0E9412180E94E4120E94F80D089567
:101C5000A6E0B0E0EEE2FEE00C948C290E94FB0DC1
:101C600081110EC00E94BB0D0E94CC120E949518DB
:101C70000E94311D0E94DD032696EBE00C94A829FA
:101C80000E94461286E4A82E82E0B82E750110E06C
:101C9000F70101917F01812F0E941F111F5F1A30F0
:101CA00009F441C00817A1F38091580281FD0E94F8
:101CB00025110E94060EC82E10E099249394812FBE
:101CC0000E941F11082FF50181915F01081729F16A
:101CD000F12CEE24E394D02ED8268D2D8E21A9F060
:101CE000CC2099F0F9821A830E9483209C838B83F5
:101CF0009D8291E0802F8E2109F490E049815A81E4
:101D00006B817C818D810E94F603F394EE0CF7E0E9
:101D1000FF12E3CFF501319700831F5F1A3079F688
:101D20000E94DF0DA1CF0813BFCF9CCF1F93CF938D
:101D3000DF930E94C50FEC01C11580E5D807F0F5CF
:101D4000C11580E4D80708F09CC0C03ED10520F53D
:101D5000CD3CD10508F082C0C83AD10578F4C53A27
:101D6000D10508F073C0C130D10519F1209709F1F0
:101D7000C430D105F0F4D0E0C0E01BC0C33CD105B5
:101D8000D0F7C85AD0E0CC0FDD1FCC58DE4F0990F9
:101D9000D881C02DD4640DC0C11580E2D80708F0E9
:101DA000D1C0C11581E0D80708F05AC0C83ED1059E
:101DB00010F7CE01DF91CF911F910895C03682E5D3
:101DC000D80718F5C03482E5D80708F06BC0C032D8
:101DD00082E5D80708F05FC0C11582E5D80708F48E
:101DE00097C02C2F2695269580E2289F90011124DC
:101DF0008C2F8370C1E0D0E002C0CC0FDD1F8A952C
:101E0000E2F7C22BD32BDD68D4CFC03A82E5D807E6
:101E100060F4C03882E5D80708F459C0CF71D0E02B
:101E2000DC2FCC27C46FD06AC4CFC03C82E5D80772
:101E300008F462C0C03E82E5D80708F09CCFDC2FD2
:101E4000CC27CC27DF71C06FD06AB3CFC55AD0E0A2
:101E5000C655DE4FC881D0E0D064ABCFD065A9CFE6
:101E60008D2F0E946710182FCE0199270E94C50F51
:101E7000C12FD0E0DC2FCC27CC27DF71C82BD92B8A
:101E800098CFCE0199270E94C50FCC27DF70C82BB1
:101E9000D92BD06A8ECFCF71D0E0DC2FCC27C16F89
:101EA000D06A87CF2C2F26952695277080E2289F11
:101EB000900111248C2F8370C1E0D0E002C0CC0FC0
:101EC000DD1F8A95E2F7C22BD32BDC6872CF2C2F53
:101ED00026952695277080E2289F900111248C2F4B
:101EE0008370C1E0D0E002C0CC0FDD1F8A95E2F71D
:101EF000C22BD32BDA685DCF8C2F8F710E946710B5
:101F0000C82FD0E0DC2FCC27CC27DF71D06251CF97
:101F10008C2F8F710E94671055E0D695C7955A9502
:101F2000E1F7CF70D0E0DC2FCC27282F30E084FF02
:101F300005C044E0220F331F4A95E1F7C22BD32B93
:101F4000D06937CF8D2F8F710E946710182FCE0167
:101F500099270E94C50FC12FD0E0DC2FCC27CC27BA
:101F6000DF71C82BD92BD2CF462F7A3030F46730AF
:101F700020F4672F0E94C302089590E080E0089546
:101F80000E94B40F0E94960E089582389105B9F10F
:101F9000B0F48133910509F47DC048F4893291058C
:101FA00009F46DC08A32910509F47BC00895853328
:101FB000910509F45FC08933910509F10895833EC5
:101FC0009105D9F138F4803E910529F1823E9105C1
:101FD00079F10895863E9105D9F1873E910509F47E
:101FE0003EC0843E910541F52091BD0221FF24C0F1
:101FF0008091BC0284FD19C087EE90E00895209185
:10200000BC02237009F05AC02091BD0223FF14C006
:1020100089E290E008952091BC0220FD38C0309103
:10202000BD0230FF09C024FF43C090E080E0089566
:102030002091BC0222FDF7CF08952091BC0222FD21
:102040003AC03091BD0230FD39C024FFF5CFEDCF4D
:102050002091BC0223FFF0CF24FDE7CFCDCF20910C
:10206000BC0223FD2EC03091BD0231FFEECF84EEC5
:1020700090E008952091BC0225FFDECFC9CF2091CA
:10208000BC0225FD21C02091BD0223FFD5CF89E3ED
:1020900090E0D2CF2091BC0226FFCECF8AE290E022
:1020A00008952091BC0226FFC7CF81E390E00895F8
:1020B00083EE90E0089582EE90E0089580EE90E047
:1020C000089586EE90E0089585E390E0089590915C
:1020D000BC0292FF10C041E0282F2471243009F087
:1020E00040E031E0282F2871283009F030E0431714
:1020F00011F02CE0822793FF10C041E0282F2471BB
:10210000243109F040E031E0282F2871283109F00E
:1021100030E0431711F02CE082273091BD0230FFF0
:1021200010C051E0282F2171213009F050E041E02A
:10213000282F2871283009F040E0541711F029E0C9
:10214000822731FF10C041E0282F2171213109F091
:1021500040E031E0282F2871283109F030E04317A2
:1021600011F029E0822794FD877E08951092B8022D
:102170001092B9021092BA021092BB020895CF9247
:10218000DF92EF92FF926B017C010E94CC128111D1
:102190000EC00E948F20C61AD70AE80AF90AC09218
:1021A000B802D092B902E092BA02F092BB02FF905C
:1021B000EF90DF90CF9008950F931F930E94CC1261
:1021C000882329F00E948F201F910F9108950E946B
:1021D0008F200091B8021091B9022091BA0230917B
:1021E000BB02600F711F821F931FEECF80E0089526
:1021F00008950E94120D811102C00E94B20D0E942A
:102200001D0D809358020E94270D9093BD0280936C
:10221000BC020E94F8100E94220D90E00E94EA0782
:102220008091EA019091EB010E940B0808950895B6
:102230000E941711089508950E941B110895E82F18
:10224000F0E0E753FD4F80810895089580EA8A9574
:10225000F1F7089500C008950E9426110895089589
:102260000E942F110895A5E0B0E0E9E3F1E10C949C
:1022700091290E94CC12F82E6091D302882309F490
:1022800040C085E0E82E8E010F5F1F4FF8018E2DB4
:1022900011928A95E9F7862F90E0B80187539D4FF8
:1022A0000E94F2128823B9F08091BE0290E045E0CE
:1022B00050E0B80187539D4F0E94F22921E02093FE
:1022C0005902892B91F4F12C0E941C118F2D259617
:1022D000E6E00C94AD29809159028823A1F3F8011E
:1022E0001192EA94E9F710925902A091BE02B0E06F
:1022F000A753BD4F85E0F80101900D928A95E1F753
:10230000E3CF70E067537D4F8091BE0290E087532A
:102310009D4F0E9479130E943011D8CFF894E82F76
:10232000E295EF70F0E031A1282F2F7081E090E06E
:1023300001C0880F2A95EAF7982F9095932391A3CF
:1023400092A1892B82A3789408950F931F93CF9322
:10235000DF93C4EBD1E089918F3F11F00E948E1181
:1023600081E0C93BD807B9F7CDEAD1E004EB11E031
:1023700089918F3F11F00E948E110C171D07C1F734
:10238000DF91CF911F910F910895B0E0A0E0EBECA9
:10239000F1E10C948F29EC01D62E062F10E0C80134
:1023A0008C549E4F7C01FC0180818F3F09F444C016
:1023B000F894E82FE295EF70F0E091A18F7021E0A2
:1023C00030E001C0220F8A95EAF7892F822B81A382
:1023D00082A12095282322A378940E942A11EDEA55
:1023E000F1E031E0C12C21912F3F59F1A22FA295AC
:1023F000AF70B0E090968C9190E02F7002C09595F0
:1024000087952A95E2F780FD1CC0832FC82A330FD9
:1024100081E0E43BF80739F7F70180818F3F11F045
:102420000E948E1161E0C11001C060E08D2D0E94FC
:102430002C11C00FD11FC882CDB7DEB7E8E00C94D5
:10244000AB2980E0E3CF809102018091020195E009
:10245000811190E09093D30285E0891B8093BE02A6
:102460000E94A5118AE0E9ECF2E0DF01982F1D92AD
:102470009A95E9F7EFEBF2E0DF011D928A95E9F713
:1024800085E00E9484120E9418110895AAE0B0E02D
:10249000ECE4F2E10C9492298E010F5F1F4F8AE069
:1024A000F80111928A95E9F7F12C6F2DC8010E946D
:1024B000C511F394F5E0FF12F8CF4AE050E0B801FF
:1024C0008FEB92E00E94F22921E0009709F420E0CE
:1024D000892B41F08AE0F801AFEBB2E001900D9258
:1024E0008A95E1F76091D30270E067537D4F45E034
:1024F0008FEB92E00E948512182F0E943311812BDE
:102500002A96E5E00C94AE290895B0E0A0E0EBE84F
:10251000F2E10C948F296C017B01042FC22F22233E
:1025200079F081E080935C020E94832090935B02AB
:1025300080935A0280E0CDB7DEB7E8E00C94AB2977
:10254000D0915C02DD23B1F380915A0290915B023D
:102550000E949B20059770F310E0A801B601C70107
:102560000E94F229892B31F0A801B601C7010E940F
:10257000FF29CD2F10925C028C2FDDCFCF930E94CC
:102580004A29C82F811102C00E9445298C2FCF9162
:10259000089580916002089580915F0208950E94DD
:1025A000CC1208950E94BE1280935F020E94CF1247
:1025B000809360020E94C912809302010E94CC1293
:1025C00081110E94281308950E94CC12811102C02B
:1025D0000E942B13089581E0909161029A3008F0D7
:1025E00080E008950F931F93CF93DF93EC018B014D
:1025F000809161028A30B8F4B801CE010E9476134E
:10260000C82F811122C0809161028F3FB9F40E94CE
:10261000832090935E0280935D028C2FDF91CF9197
:102620001F910F91089580915D0290915E020E942A
:102630009B20843F914000F7C0E0EFCF8F5F8093F5
:1026400061028A3020F7C1E0E8CF10926102E5CF45
:102650000E945E2108950E9461210895B0E0A0E0EB
:10266000E4E3F3E10C9490297901C82F880FDD0B86
:1026700041155105A9F0FE0193E0EE0FFF1F9A9559
:10268000E1F7ED5FFE4F818192818E599D4F208150
:1026900030E04217530708F49A01A9010E94FF296C
:1026A000CE010E944A22D82E8823D1F001151105AF
:1026B000B9F083E0CC0FDD1F8A95E1F7FE01ED5FF5
:1026C000FE4F438150E00417150708F4A801CD5FC1
:1026D000DE4F6C817D816E597D4FC7010E94FF29BD
:1026E0008D2DCDB7DEB7E7E00C94AC290E94A31482
:1026F00008950E94C4140895A4E0B0E0E2E8F3E174
:102700000C949329609184027091850280918602D5
:10271000909187020E94AA2011E06436710581051C
:10272000910518F10E94DC106E5F7F4F8F4F9F4F15
:1027300069837A838B839C8310E000E030E020E0A3
:1027400044E050E0BE016F5F7F4F82E00E942E1395
:10275000182F882351F00E948F2060938402709379
:1027600085028093860290938702812F2496E4E06D
:102770000C94AF29B0E0A0E0E0ECF3E10C948D29DB
:102780007C015B016A010E94EB1201E010E08823EA
:1027900011F00AE010E0C1E0D0E0B501C701F60198
:1027A0000995811104C021960C171D072CF4CDB793
:1027B000DEB7EAE00C94A929CC9F9001CD9F300DA3
:1027C000300D112490E080E045E34A95F1F70000D8
:1027D000019682179307C1F7E0CFABE0B0E0E3EFDB
:1027E000F3E10C949329CE0101960E945C181B859D
:1027F000609188027091890280918A0290918B0287
:102800000E94AA20643671058105910510F41123F8
:10281000C1F010E000E030E020E04BE050E0BE010D
:102820006F5F7F4F83E00E942E13882369F00E9420
:102830008F20609388027093890280938A0290931C
:102840008B020E94591881E02B96E4E00C94AF298A
:10285000A6E0B0E0EEE2F4E10C948D297B01C0909B
:10286000B901D090BA0101E010E09E012A5F3F4F0C
:1028700050E040E070E060E080E00E942E13182FEE
:10288000882309F448C056018FEFA81AB80A60914E
:1028900080027091810280918202909183020E9455
:1028A000AA20643671058105910568F105E010E004
:1028B0009E012F5F3F4F50E040E070E060E081E01C
:1028C0000E942E13D82E65E070E0C5010E946C1A9C
:1028D00011E09E81981310E01D2141F10E948F208C
:1028E00060938002709381028093820290938302AE
:1028F00085E0FE013196ABE7B2E001900D928A953A
:10290000E1F711E013C065E070E0C5010E946C1AA8
:102910009E818913CBCF85E0F6013196DE011196B9
:1029200001900D928A95E1F71111E2CF85E0EBE776
:10293000F2E0D70101900D928A95E1F7812F26965A
:10294000EAE00C94A9290F931F93CF93DF93EC0136
:102950008B0148E254E10E94BA13811106C080E065
:10296000DF91CF911F910F9108954CE753E1B8018A
:10297000CE010E94BA13882391F34DEE53E1B801C2
:10298000CE010E94BA13ECCFABE0B0E0EAECF4E188
:102990000C948F290091B9011091BA01C8010196D8
:1029A00025E0FB01DC0101900D922A95E1F765E03D
:1029B00070E00E946C1AF8018083668177818085BF
:1029C0009185C0907702D0907802E0907902F090E3
:1029D0007A026C157D058E059F0551F06093770294
:1029E000709378028093790290937A020E94BF10CC
:1029F0008BE0F8013A96DE01119601900D928A95CE
:102A0000E1F7F801148A8B85882329F060E0CE0174
:102A100001960E946F182B96E8E00C94AB290E9457
:102A20001B240E94150E0E94282408950E942D2424
:102A30000E94280E0E94472408950E941C200E9494
:102A400001240E94FD0D0E940F150E9416150E9480
:102A50000B0EFBCF9093BF018093BE010895EF92C0
:102A6000FF920F931F93CF93DF93EB01E82FD111C8
:102A70000EC0442321F0F0E0E452FD4FE4916E2FAC
:102A80007E2F8E2FCDB7DEB7E6E00C94AD290D2F4B
:102A900010E0282F30E0442329F024523D4FF90163
:102AA000249130E0F6E0CF9FC0011124EFEFF0E079
:102AB000BF010E945729AB018C2F90E0880F991F0E
:102AC000A5E5A49FB001A59F700D1124861B970B4F
:102AD000982F990F980FBF01601B710B629FD00157
:102AE000639FB00D729FB00D11248B2F9D9FB0017D
:102AF0001124672F7727EF01C61BD70BBE01629FFA
:102B0000E001639FD00D729FD00D11247F01E91A5F
:102B1000F108E09EB001E19E700DF09E700D112451
:102B2000672F7727E61BF70BE29F8001E39F100DCD
:102B3000F29F100D1124E12F722F4230510599F0B0
:102B400048F44115510569F04130510581F0EB2FF2
:102B50008D2F07C04430510569F080F04630510593
:102B6000B1F76E2F8FCFE22F7B2F812FFACFE22F7D
:102B70007D2FF7CFEB2F822F712FF3CF7B2F822F5B
:102B8000ED2FEFCF41E00E942F1508950E94C2154E
:102B90000895CF93DF93762FE901682F842F0E9449
:102BA000C615798368838A83DF91CF9108958091D8
:102BB000D402982F9C7F39F48091D4028370846072
:102BC0008093D40208958830B8F70895B0E0A0E06B
:102BD000ECEEF5E10C948F2988E090E00E94102A39
:102BE0006B017C0184E290E00E94082A282F30E0EB
:102BF00040E050E060E070E080E090E000E20E94A1
:102C0000BC29B22FA32FF42FE52FD62FC72F970162
:102C10008601BC29A12BFE295E2F532B2B2F3A2F87
:102C20004F2F6D2F7C2FCDB7DEB7E8E00C94AB298A
:102C3000B0E0A0E0EEE1F6E10C948B2949015A01E5
:102C40006B017C010E94D7158401A4016A2D7B2DA4
:102C500088E090E00E943E2A94014A2D5B2DB60147
:102C6000C70100E20E94D729622F84E290E00E940F
:102C70002C2ACDB7DEB7ECE00C94A729E4EDF2E006
:102C800085E0808311828FEF828383831482ADE895
:102C9000B2E012968C911297836012968C93758194
:102CA00025E030E04FEF5FEF60E0868197810E9482
:102CB000181608959091D802933018F49F5F90935E
:102CC000D802882391F02091D4023091D50240910E
:102CD000D6025091D7026091D8027091D9028091AA
:102CE000DA029091DB020E941816089581E00E949A
:102CF0005A1608959091D802992319F09150909303
:102D0000D802882391F02091D4023091D5024091CD
:102D1000D6025091D7026091D8027091D902809169
:102D2000DA029091DB020E941816089581E00E9459
:102D30007A16089570E00E94F318089560912401B6
:102D40008091D40280FF0BC08091230123E0829FF9
:102D5000C001112484529D4F0E949A1608958091BB
:102D600025019091260123E0829FF0011124E45275
:102D7000FD4F891748F71182108212828F5F3396B8
:102D8000F8CFE4EDF2E020812E7F20833181428173
:102D9000538164817581868197810E941816EDE8C0
:102DA000F2E08281816082830E949E160895E4EDA4
:102DB000F2E080818E7F8083EDE8F2E082818160A5
:102DC00082830E949E1608959091D40290FF0EC0B7
:102DD000909125012091260133E0939FF001112469
:102DE000E452FD4F921718F00E949E1608958183B9
:102DF000608342839F5F3396F5CFA3E0B0E0E3E0CA
:102E0000F7E10C949129F82E062F142FE22E8091D1
:102E1000D40280FF40C09091D5029F1108C09091CC
:102E2000D602961304C09091D702941729F090917E
:102E30008F02926090938F02E82FE695E695F0E07E
:102E4000E554FE4F908190938D028C7F843069F41D
:102E50009E012F5F3F4F412F602F8F2D0E94C9157C
:102E60004B8169818A810E94E416F092D502009319
:102E7000D6021093D702EE2071F02091D402609117
:102E8000D8027091D9023F2DA8018091DA02909169
:102E9000DB020E9418162396E6E00C94AD29E4EDBF
:102EA000F2E09181282F4381628188E0890F0E949E
:102EB000FD16089581E00E944F170895E4EDF2E0B9
:102EC0009181282F4381628188EF890F0E94FD162E
:102ED000089581E00E945E170895E4EDF2E06281BA
:102EE00021E1620F08F46FEF282F438181810E9456
:102EF000FD16089581E00E946D170895E4EDF2E05B
:102F0000628121E1621B08F460E0282F4381818106
:102F10000E94FD16089581E00E947E170895E4ED59
:102F2000F2E0438121E1420F08F44FEF282F628144
:102F300081810E94FD16089581E00E948F170895F7
:102F4000E4EDF2E0438121E1421B08F440E0282F48
:102F5000628181810E94FD16089581E00E94A01780
:102F6000089520E00E94FD1608952091D40220FFCC
:102F700023C0237024602093D40280918F0281604B
:102F800080938F02662381F03091D5024091D60262
:102F90005091D7026091D8027091D9028091DA02E3
:102FA0009091DB020E9418164091D7026091D602E0
:102FB0008091D5020E94B1170895682F81E00E9488
:102FC000B517089581E00E94DD170895682F90914C
:102FD000D402969596958FEF890F09F481E00E94AF
:102FE000B517089581E00E94E617089561E00E94F8
:102FF000B5170895E4EDF2E08081816080838695C5
:1030000086950E94F61708958091D40280FF03C030
:103010000E94C11608950E94FA17089560E00E9468
:10302000B517089580918C02811142C00E94120D43
:10303000811104C00E94B20D0E943E160E94E61546
:103040002093D4023093D5024093D6025093D702F6
:103050006093D8027093D9028093DA029093DB02D6
:1030600080918F02836080938F022C7FA1F40E9455
:103070003E160E94E6152093D4023093D502409369
:10308000D6025093D7026093D8027093D9028093EE
:10309000DA029093DB020E94D7158091D40280FF60
:1030A00004C0869586950E940E1881E080938C025C
:1030B000089510928F02089528E0E4EDF2E0DC011B
:1030C00001900D922A95E1F720918D0230918E02A8
:1030D00040918F02FC0120873187428708951F931A
:1030E000CF93DF93EC01162F8A8580FF0DC0888176
:1030F00080FF17C08091D40281608093D4028881C0
:10310000869586950E94B5178A8581FF06C0212F76
:103110004B816A8189810E94FD16DF91CF911F91B9
:1031200008950E94D716F0CF08950895FA018111ED
:1031300001C0FB01099508951F93CF93DF93EC0124
:10314000FB011581111110C00E94190C8272FE0141
:10315000E052F847E531F10508F043C0E259F54D7A
:103160000C947F290E940418812FDF91CF911F9129
:10317000089542EF57E162EE77E10E949618F4CF8E
:1031800042EE57E162EF77E1F8CF49E657E16AE5B1
:1031900077E1F3CF4AE557E169E677E1EECF4BE817
:1031A00057E16AE777E1E9CF4AE757E16BE877E172
:1031B000E4CF4DEA57E16CE977E1DFCF4CE957E125
:1031C0006DEA77E1DACF46E956E166E776E1D5CFF9
:1031D00046E756E166E976E1D0CF81E00E94F61736
:1031E000C3CF11E0C1CF539A4BB1477F5BB1586059
:1031F000EFB7F8949B01220F331F260F371F280FBC
:10320000391F2817390741F4EFBF8FE594E0019784
:10321000F1F700C000000895DC016D91CD0178E068
:103220005BB9000000C067FF4BB9660F000000C02B
:1032300000C000C04BB900C07A9591F7E2CF8B3146
:1032400009F465C040F58B3071F078F4863009F4EC
:1032500047C020F4853059F180E00895873009F4A3
:1032600048C08830C9F781E00895803109F45DC015
:1032700068F48E3089F790915802892F8B7F92FFE6
:1032800084608093580282FD4CC0EDCF863159F3A3
:10329000893149F3E1CF8A3201F160F48732B1F02C
:1032A00020F48E31C8F28D514CC08932A9F60E94AB
:1032B0003F03D9CF833440F48A3308F041C08533CB
:1032C00029F0883381F2C8CF833431F681E090E071
:1032D0000E94EA070E949D07C6CF0E94B20DC3CF8D
:1032E00080915802807F8093580281E080939302FE
:1032F000089590915802892F8E7F90FF816080936E
:10330000580280FDB0CF817F80935802ACCF90915E
:103310005802892F8D7F91FF82608093580281FF30
:10332000A2CF809158028160EFCF90915802892FEF
:10333000877F93FF88608093580283FDF2CF93CFFD
:10334000895321E030E0A90102C0440F551F8A953E
:10335000E2F7CA01BDCF80E008950E94AB1908953D
:10336000CF93C82F809193028130B9F0882331F038
:103370008230A1F11092930280E00DC00E94190CDE
:103380008232D1F78C2F0E94AB1981111BC08C2F78
:103390000E941F198170CF9108950E94190C8232EA
:1033A00089F38C2F0E94AD1981110AC0C43199F0A4
:1033B00060F4CB3029F0C03169F782E0809393024A
:1033C00081E0E8CF81E090E0E5CFC93221F0C83359
:1033D000B9F380E0DFCF10929302FBCFC93209F43A
:1033E00040C0F0F4C431E9F1A8F481E0C73099F6A7
:1033F00080932F0184E180932E018AE080932D0138
:103400008EE180932C0188E08093290188E28093EB
:10341000280104C082EE8C0F8A3070F181E0BBCFAE
:10342000C03509F450C0B8F48AE0CF34B9F7E09160
:103430009002F0919102309789F32081082E000CC0
:10344000990B820F911D8F3F910509F00CF43FC03D
:103450008FEF8083E3CFC135C1F181E0C23539F30D
:103460009ACF809192028823C9F210929202109210
:10347000910210929002D2CFCD51C0939202C330EC
:10348000C9F048F4C13099F08EE291E0C23051F0B9
:1034900010929202C3CFC53099F078F088E291E0A3
:1034A000C630B1F79093910280939002B7CF8FE22C
:1034B00091E0F8CF8DE291E0F5CF8CE291E0F2CF90
:1034C00089E291E0EFCF86EFB2CF8FEFB0CF97FFD9
:1034D000C0CF1082A3CF0895FC01680F791F8FEF32
:1034E00091E3E617F70709F408952191822728E070
:1034F00030E087FF06C0880F892721503109C9F7BE
:10350000F0CF880FFACFCF93DF93EB0186319C4742
:1035100011F50E94190C9D81992399F08A7A91E006
:1035200009F490E090939402811109C089E20E940D
:10353000961F0E94A80C80E0DF91CF91089585E34B
:10354000F6CF80919402811104C089E20E949E1FEF
:10355000F0CF85E3FBCF81E0EFCFCF93DF93EC019A
:10356000FB018581882309F4D2C09E0130572332A4
:10357000310508F0B2C00E94270D9093BD028093E0
:10358000BC02FE01E150F047E232F10520F4ED57B4
:10359000F54D0C947F298091BC0281608093BC0220
:1035A00093C08091BD0288608093BD028DC08091E0
:1035B000BC028260F3CF8091BC028460EFCF809127
:1035C000BC028860EBCF8091BD028160EDCF80911D
:1035D000BD028260E9CF8091BC028061DFCF809123
:1035E000BC028062DBCF8091BC028064D7CF0E9496
:1035F0009D078091BC028068D1CF8091BC028C6015
:10360000CDCF8091BD028360CFCF8091BC028E7FF1
:10361000C5CF8091BD02877FC7CF8091BC028D7FCF
:10362000BDCF8091BC028B7FB9CF8091BC02877FD8
:10363000B5CF8091BD028E7FB7CF8091BD028D7FC7
:10364000B3CF8091BC028F7EA9CF8091BC028F7DC9
:10365000A5CF8091BC028F7BA1CF0E949D07809156
:10366000BC028F779BCF8091BC02837F97CF8091E4
:10367000BD028C7F99CF8091BC0282FB992790F983
:1036800021E0922790FB82F990FB83F987CF80910C
:10369000BD02982F909591708E7F892B90FB81F9B8
:1036A00083CF9091BC02892F8F7B96FF806476CF69
:1036B0000E949D079091BC02892F97FB87F9805843
:1036C0006DCF81E00E94B50D8091BC029091BD024A
:1036D0000E942C0D0E949D0780E0DF91CF910895FC
:1036E00080E0F0CF9091BC02892F8F7E94FF8061A3
:1036F00055CF9091BC02892F8E7F90FF81604ECF75
:103700009091BD02892F877F93FF88604DCF81E024
:10371000E4CF282F35EB2303C001112497FF04C009
:1037200080589109892F089580589F4FFBCF809131
:103730009B0280FF0DC060912D0170E0660F771F26
:103740006038710570F56115710569F1862F08956E
:1037500081FF07C060912D0184E0689FB0011124B2
:10376000EFCF60912D0182FD0AC080919A028823DB
:10377000A9F020912C0160912D01821710F088E0B2
:10378000ECCF869FC001112433E0880F991F3A9532
:10379000E1F7622F70E00E946B29D2CF68E070E001
:1037A000D5CF8FE7089581E0089580919B0280FF37
:1037B0000CC06091290170E07595679575956795C6
:1037C0006115710549F1862F089581FF06C060914A
:1037D000290170E075956795F3CF6091290182FD0D
:1037E0000BC0909199029923A1F0609128018091DA
:1037F0002901961738F0682F70E06038710500F3E2
:103800008FE70895899FC001112470E00E946B2901
:10381000F4CF61E070E0D7CF81E0089590919E02EF
:1038200020919F02922B2091A102922B2091A00225
:10383000922B31F098E090939A0291E09093990244
:103840008D3C31F40E94971B819580939F020895CF
:103850008E3C19F40E94971BF8CF8F3C31F40E94E4
:10386000971B819580939E020895803D19F40E94D4
:10387000971BF8CF893D29F40E94D51B8093A002A5
:1038800008958A3D21F40E94D51B8195F7CF8B3D89
:1038900031F40E94D51B81958093A10208958C3D3F
:1038A00019F40E94D51BF8CF9FE2980F983070F45E
:1038B000815D990B21E030E001C0220F8A95EAF783
:1038C00080919D02822B80939D0208958D3D31F45D
:1038D00080919B02816080939B0208958E3D21F42C
:1038E00080919B028260F7CF8F3DB9F780919B0258
:1038F0008460F1CF40919E028D3C59F480919F02EB
:1039000087FF0DC010929F0241110BC010929A02C6
:1039100008C08E3C81F480919F0218169CF34423CA
:1039200081F08091A0029091A102892B09F05AC0E8
:103930001092990208958F3C49F447FFF0CF1092FE
:103940009E0280919F028111ECCFE0CF803D19F45F
:103950001416ACF3E4CF9091A002893D29F4191616
:10396000F4F61092A002DBCF8A3D19F497FFD7CF6F
:10397000F8CF9091A1028B3D29F497FFD0CF109200
:10398000A102CDCF8C3D19F41916CCF3C8CF9FE21C
:10399000980F983090F4815D990B21E030E0B901E7
:1039A00002C0660F771F8A95E2F7CB018095909150
:1039B0009D02892380939D02B2CF8D3D31F4809189
:1039C0009B028E7F80939B02AACF8E3D21F4809133
:1039D0009B028D7FF7CF8F3D09F0A1CF80919B0295
:1039E0008B7FF0CF08950E9483209C0190919E02CE
:1039F00080919F02982B21F0309398022093970298
:103A00009091A0028091A102982B21F03093960210
:103A1000209395028CE992E00E94EE1E089586E0C4
:103A2000ECE9F2E0DF011D928A95E9F710929A0223
:103A30001092990210929B020895FC0182818111DB
:103A40000EC0838181110BC08481811108C091E077
:103A50008581811101C090E0892F8170089581E0F6
:103A6000FCCFA6E0B0E0E7E3FDE10C94942986E00A
:103A7000ECE9F2E0DE01119601900D928A95E1F7F2
:103A800010929E0210929F021092A0021092A10228
:103A90008B819C81892B89F080919702909198026B
:103AA0000E949B20AC0190919A029923C9F18091C8
:103AB0002E018417150608F440C08D819E81892B44
:103AC00091F080919502909196020E949B20AC010A
:103AD00090919902992309F46AC080912A01841770
:103AE000150608F472C0BE016F5F7F4F8CE992E04B
:103AF0000E94B11F811105C08CE992E00E941D1D3A
:103B000081110E94F31C86E0FE013196ACE9B2E01F
:103B100001900D928A95E1F72696E3E00C94B02986
:103B200020912F018AE0289F900111242417350746
:103B300020F69F5F90939A0202C09F3FD1F71B81AE
:103B4000112359F00E94971B9FEF11160CF491E07E
:103B5000899F802D112480939E021C81112359F08E
:103B60000E94971B9FEF11160CF491E0899F802D06
:103B7000112480939F0280919E02882309F49DCF97
:103B800010919F02112309F498CF0E94891B88236A
:103B900051F080939E02812F0E94891B882329F077
:103BA00080939F028ACF81E0F4CF81E0F9CF20910A
:103BB0002B018AE0289F900111242417350708F073
:103BC00092CF9F5F9093990202C09F3FD1F71D81D2
:103BD000112359F00E94D51B9FEF11160CF491E0B0
:103BE000899F802D11248093A0021E81112359F0FA
:103BF0000E94D51B9FEF11160CF491E0899F802D38
:103C000011248093A1028091A002882309F46BCF34
:103C10001091A102112309F466CF0E94891B882309
:103C200051F08093A002812F0E94891B882329F0E4
:103C30008093A10258CF81E0F4CF81E0F9CF0F93B8
:103C40001F93CF93DF93C42FD22FFC01858188234C
:103C5000C9F04093A4020E9483209093A302809312
:103C6000A20280E28C0F883040F4C77081E001C06E
:103C7000880FCA95EAF70E944705DF91CF911F91FF
:103C80000F9108951091A402141332C08091A202E2
:103C90009091A3020E949B20883C910548F5C0E2C8
:103CA000CD0F1D17B9F080E2810F883040F41770F6
:103CB00081E001C0880F1A95EAF70E944E05C830CE
:103CC00048F481E09D2F977001C0880F9A95EAF71C
:103CD0000E944705802F0E943E05C83070F6D770BD
:103CE00081E001C0880FDA95EAF70E944E05C5CF42
:103CF00080E28C0F883008F6C77081E001C0880F21
:103D0000CA95EAF7F2CF0F93DB0188519C478730C1
:103D10009105A0F5FC01EB55F54D0C947F2906E2C9
:103D200021EE41EE6AE17CE7CD010E941F1E80E09A
:103D30000F91089507E225EE45EE6BE17CE7F4CFA5
:103D400006E221EE40EE68E17CE7EECF07E225EEE9
:103D500044EE69E17CE7E8CF06E221EE42EE6CE159
:103D60007CE7E2CF07E225EE46EE6DE17CE7DCCFB3
:103D700008E221E045EE6EE17CE7D6CF15968C9106
:103D8000882319F01092A402D3CF81E0D1CF909371
:103D9000AB028093AA0208950E94CC12811103C045
:103DA0008091A5020895E091AA02F091AB023097AC
:103DB00029F00190F081E02D0995089580E00895A3
:103DC0000E94CC1E0895E091AA02F091AB023097B8
:103DD00021F00280F381E02D09950895E091AA0277
:103DE000F091AB02309739F022E0DC012C93068091
:103DF000F781E02D09950895A3E0B0E0E2E0FFE14E
:103E00000C9495292091A8023091A902281739070E
:103E1000A1F09093A9028093A802E091AA02F091E8
:103E2000AB02309751F023E029839B838A8300847F
:103E3000F185E02DCE01019609952396E2E00C94E0
:103E4000B129A3E0B0E0E7E2FFE10C9495292091CD
:103E5000A6023091A70228173907A1F09093A70274
:103E60008093A602E091AA02F091AB02309751F044
:103E700024E029839B838A830084F185E02DCE0191
:103E8000019609952396E2E00C94B1294091000136
:103E9000509101019A012E5F3F4F485F5F4F80E0D4
:103EA0002417350709F40895F90191919F01992389
:103EB000B9F38F5FF5CF882371F020910001309125
:103EC0000101F9013296285F3F4F9191981729F02F
:103ED000E217F307D1F780E0089581E008959C018F
:103EE000FC0132969FEF80E04191461751F09F3FD1
:103EF00019F4411101C0982F8F5F8630A9F79F3FB9
:103F000009F40895290F311D97FD3A95F90162834F
:103F10000895FC01329608962191261303C0DF0113
:103F200011971C92E817F907B9F70895682F809147
:103F30000001909101010E946F1F0895682F8091E8
:103F40000001909101010E94891F0895E0910001F4
:103F5000F0910101329686E0DF011D928A95E9F722
:103F60000895DC01FB0111969C91119781819813B2
:103F700022C012968C911297882319F0928189138E
:103F80001AC013968C911397882319F09381891383
:103F900012C015968C911597882319F09581891375
:103FA0000AC014969C91992321F081E02481291361
:103FB00003C080E001C081E08170089508950E94EF
:103FC000DE1F0895811106C081E08093AC020E943B
:103FD000DF1F089582E0F9CF83E08093AC020E9456
:103FE000DF1F08950E94E21F089581E08093AC02D4
:103FF0000E94DF1F08950E94F51F089508950895F7
:104000000E94FF1F0895089508950E94FE1F0895BD
:10401000CF930E9403200E9446120E940420C0E019
:104020008C2F0E941F11811105C0CF5FCA30C1F7CC
:10403000CF91089581E0FCCF85B7806885BF85B7B3
:10404000806885BF08951F921FB61F9211248F9319
:104050009F93AF93BF938091AD02811113C0809164
:10406000060390910703A0910803B09109034196BC
:10407000A11DB11D8093060390930703A09308032D
:10408000B0930903BF91AF919F918F911F901FBE75
:104090001F90189580910E03843031F10E94AD037A
:1040A0001092AD0288E190E020E40FB6F894A89554
:1040B000809360000FBE2093600083B7817F84608F
:1040C00083BF83B7816083BF7894889583B78E7FE1
:1040D00083BF0FB6F894A8958091600088618093A3
:1040E0006000109260000FBE08950E949D070E941C
:1040F000B203089582E084BD93E095BD9AEF97BD29
:1041000080936E0008952FB7F894809106039091E4
:104110000703A0910803B09109032FBF08952FB79B
:10412000F8946091060370910703809108039091C1
:1041300009032FBF08959C014FB7F894809106039F
:1041400090910703A0910803B09109034FBF821B10
:10415000930B0895CF92DF92EF92FF922FB7F894CE
:10416000C0900603D0900703E0900803F090090385
:104170002FBFA7019601261B370B480B590BCA010D
:10418000B901FF90EF90DF90CF90089578941F923F
:104190001FB61F9211248F939F93AF93BF9380916B
:1041A000060390910703A0910803B09109030196BB
:1041B000A11DB11D8093060390930703A0930803EC
:1041C000B0930903BF91AF919F918F911F901FBE34
:1041D0001F90189587E797E7909301088093000850
:1041E00088E19AE00FB6F894A895809360000FBE1E
:1041F00090936000FFCF88E19AE00FB6F894A895FD
:10420000809360000FBE90936000FFCF8EE1489BCB
:1042100002C08150E1F7489BFECF0895589880E294
:104220008A95F1F7589A0895FC013BE03A95F1F729
:1042300098E020E080E031E040E14A95F1F7880F16
:10424000489B02C08160232742E04A95F1F70000B5
:1042500040E14A95F1F7915079F790E19A95F1F79D
:1042600099B132E03A95F1F7000040E14A95F1F753
:10427000917092272081920F90830895A1E0B0E081
:10428000E4E4F1E20C94912919828C017C01E60EA0
:10429000F11C0E151F0541F481E09981911180E018
:1042A0002196E6E00C94AD290E940621CE010196EC
:1042B0000E941421F80181938F01EBCF509A589AF4
:1042C00008955098589AE89AE9E6F0E080818C7F4A
:1042D000808308956150770B91E001C0990F6A9532
:1042E000EAF720E031E0911108C0222391F0589ABA
:1042F00080E28A95F1F758980895492F482339F0BC
:10430000589A232740E24A95F1F79695ECCF5898B2
:10431000F9CF5898EDCFFF920F931F93CF93DF9370
:10432000EC018C01060F111DC017D10729F4CDB780
:10433000DEB7E5E00C94AE29F9900E940E2168E00A
:104340008F2D0E946A21F0CF1F920F920FB60F920D
:1043500011240F931F932F933F934F935F936F936A
:104360007F938F939F93AF93BF93EF93FF93CF93DD
:10437000DF930F92CDB7DEB719820E940621CE01DE
:1043800001960E941421082F069506950695282F60
:1043900022952570902F9570290F922F9370269556
:1043A0002695920F982797708981982B09F05CC009
:1043B000053008F059C080E18A95F1F7589A509A73
:1043C00082E08A95F1F700C0589888E0089F800144
:1043D0001124D801AD5FBE4F1696ED91FC91179751
:1043E0003097A9F06091B9017091BA0114962D919E
:1043F0003C911597260F371F11968D919C9112971E
:10440000680F791F13964C9113978C910995F801B9
:10441000ED5FFE4F6381662351F02091B901309129
:10442000BA0184819581820F931F0E948B210E9483
:104430000E2180E18A95F1F758985098589A80E1BA
:104440008A95F1F7F801ED5FFE4F6081662351F028
:104450002091B9013091BA0181819281820F931F1D
:104460000E943E210E9406210F90DF91CF91FF9183
:10447000EF91BF91AF919F918F917F916F915F91DC
:104480004F913F912F911F910F910F900FBE0F9061
:104490001F9018950F931F93CF93DF93EC0105970F
:1044A0000CF04CC0F894509A589885E08A95F1F732
:1044B00000009C2F969595708C2F8570980F892FF2
:1044C00083709695969523E0CC0FDD1F2A95E1F732
:1044D000980F8E01092B0E940E2100C068E0802FEA
:1044E0000E946A2180E18A95F1F75098589A489B7A
:1044F0001EC087E090E048991CC0FE01ED5FFE4FB2
:1045000063816623F9F02091B9013091BA01848169
:104510009581820F931F0E943E21811113C0509AF2
:10452000589A7894DF91CF911F910F91089500C010
:10453000DECF019729F4509A589A789480E0F2CF10
:1045400000C0D9CF0E94062180E28A95F1F75898E1
:10455000509A80E18A95F1F7CD5FDE4F688166233E
:1045600051F02091B9013091BA0189819A81820F6D
:10457000931F0E948B210E940E21789481E0D2CF5C
:104580008091B602089508959B01BA0190910E039F
:104590009430E9F48F708093E9009FEF8091E800F8
:1045A000915085FD06C085ED8A95F1F700009111C7
:1045B000F5CF8091E80085FF0AC050E040E0C901D6
:1045C0000E94BE248091E8008E778093E8000895D1
:1045D00043E050E0BC0182E00E94C422089546E01E
:1045E00050E0BC0182E00E94C4220895CF93DF9383
:1045F000EC0148E050E0BC0181E00E94C42288E068
:10460000FE01AEEAB2E001900D928A95E1F7DF91EA
:10461000CF91089580910D03811109C00E944E260B
:104620000E94AB268091E20084608093E2000895AE
:1046300010920D0308950E94F51F089560910A03DA
:1046400081E0611101C080E00E94EC1F089590910B
:104650000E0381E0943009F080E060910A030E942B
:10466000F21F089542E061EC81E00E94CA2542E217
:1046700061EC82E00E94CA2590910E0381E09430A3
:1046800009F080E060910A030E94E21F0895809182
:104690001003833009F461C030F48130D1F18230ED
:1046A00009F49EC008958A3009F48AC08B3009F459
:1046B0006FC0893009F050C080910F03813209F03A
:1046C0004BC08091130390911403029708F044C0EB
:1046D0008091E800877F8093E8008091E80082FF66
:1046E00037C09091F3008091F200029731F48091ED
:1046F000F100813011F0863021F48091F100809337
:10470000B6028091E8008B778093E8000E94FE2536
:1047100023C080910F03813AF9F48091E800877FEC
:104720008093E8008091130390911403892B61F426
:1047300068E08EEA92E070E00E940D258091E8002A
:104740008B778093E800089560E090E080E0F3CFFD
:1047500080910E038111C1CF089580910F03813A9A
:10476000D9F78091130390911403892BA9F78091B5
:10477000E800877F8093E8008091E80080FFFCCF0D
:1047800080913A018093F1008091E8008E77BCCF50
:1047900080910F03813201F78091130390911403EC
:1047A000892BD1F68091E800877F8093E8000E94F2
:1047B000FE258091110380933A010E949D07089580
:1047C00080910F03813241F68091E800877F8093CA
:1047D000E8000E94FE25809112038093B70208959D
:1047E00080910F03813A09F0B7CF8091E800877F6D
:1047F0008093E8008091E80080FFFCCF8091B702B1
:10480000C1CF84B7877F84BF0FB6F894A8958091F5
:104810006000886180936000109260000FBE80E8A5
:1048200090E00FB6F89480936100909361000FBE02
:104830000E94FB1F08950E944E260E94AB26E2EEC6
:10484000F0E080818460808378940E942A29089512
:1048500080E391E00E94C71E089580910E03853089
:1048600031F480910E03853019F00E94752008956F
:104870000E944A2080910C03882399F30E9408200B
:10488000882379F30E94A8240E949D07EACF089507
:104890009A0140911503509116030E9450240895E7
:1048A000492F55274330510519F168F4413051051E
:1048B00009F444C04230510509F445C090E080E05D
:1048C00050E040E025C04132510549F142325105E6
:1048D000A9F784E490E04CEC54E061157105C1F057
:1048E0008BE790E041E554E06130710589F0E6CF57
:1048F00099278130910581F0009729F00297F1F610
:10490000ECEDF3E002C0E0E0F4E0849190E0AF0170
:10491000F901518340830895EAEEF3E0F6CF89E090
:1049200090E046E154E06115710591F389E090E073
:104930004FE254E06130710559F3C0CF82E190E05D
:104940004FE354E0E5CF8BE390E044E054E0E0CF68
:1049500080E189BD82E189BD09B400FEFDCF80916F
:10496000D8008F7D8093D8008091E0008260809392
:10497000E0008091E00081FDFCCF0895AF92BF92EE
:10498000CF92DF92FF920F931F93CF93DF936C012F
:10499000EB018A010E941D26F82E811123C001150A
:1049A000110539F0F80180819181C81BD90BC80E1F
:1049B000D91EB12CA12C2097A9F08091E80085FD8B
:1049C00022C08091E8008E778093E80001151105E0
:1049D000A1F0F80180819181A80EB91EB182A08258
:1049E00085E0F82E8F2DDF91CF911F910F91FF90D1
:1049F000DF90CF90BF90AF9008950E941D2688232E
:104A0000D1F2F82EEFCFF60181916F018093F10082
:104A10002197FFEFAF1ABF0ACECFFC01809115039B
:104A20009091160386179707A0F06115710529F478
:104A30009091E8009E779093E80090E061157105F1
:104A400051F4911108C08091E80082FF34C080E0E9
:104A50000895BC01F2CF80910E038823C1F1853007
:104A6000C1F18091E80083FD30C08091E80082FDB3
:104A7000EACF8091E80080FFE1CF8091F3002091A0
:104A8000F200382F6115710519F02830310558F002
:104A900091E02830310509F090E02091E8002E7770
:104AA0002093E800CBCF81918093F1006150710990
:104AB0002F5F3F4FE7CF80910E03882341F0853071
:104AC00041F08091E80083FFBECF81E0089582E04D
:104AD000089583E00895FC018091150390911603D9
:104AE00086179707A0F06115710529F48091E800F9
:104AF0008E778093E80090E06115710551F4911173
:104B000008C08091E80082FF35C080E00895BC01B4
:104B1000F2CF80910E038823C9F18530C9F18091CD
:104B2000E80083FD31C08091E80082FDEACF8091EA
:104B3000E80080FFE1CF8091F3002091F200382F50
:104B40006115710519F02830310558F091E02830D1
:104B5000310509F090E08091E8008E778093E800BD
:104B6000CBCF84918093F1003196615071092F5F12
:104B70003F4FE6CF80910E03882341F0853041F00E
:104B80008091E80083FFBDCF81E0089582E0089521
:104B900083E00895982F973028F08F708093E90074
:104BA00081E008959093E900242F762F50E0981724
:104BB00031F07091EC002091ED005091F00021FD5A
:104BC00002C09F5FE8CF3091EB003E7F3093EB0057
:104BD0003091ED003D7F3093ED003091EB0031607E
:104BE0003093EB007093EC002093ED005093F000B5
:104BF0002091EE0027FDE5CF80E0089580910F031E
:104C000087FF13C08091E80082FF06C08091E80012
:104C10008B778093E80004C080910E038111F2CF5E
:104C2000089580910E038823D9F38091E80080FFD6
:104C3000F8CF8091E8008E77ECCF2091E40030919E
:104C4000E50095E6A9012091EC00822F817020FFFC
:104C500006C08091E80080FF06C080E008952091A2
:104C6000E80022FD1AC080910E03882389F0853068
:104C700089F08091EB0085FD0FC02091E400309118
:104C8000E50042175307F9F29150E1F684E00895E8
:104C900082E0089583E0089581E008950E94BD2692
:104CA0000E94C526E0EEF0E0808181608083E8ED1F
:104CB000F0E080818F77808319BCA7EDB0E08C9104
:104CC0008E7F8C9380818F7E808310920D03089558
:104CD0000F931F93CF93DF930E94BD260E94C5269A
:104CE000C8EDD0E088818F77888388818068888349
:104CF00088818F7D888319BC10920E0310920A035D
:104D000010920C0310920B0300EE10E0F80180816A
:104D10008B7F808388818160888342E060E080E0CF
:104D20000E94CA25E1EEF0E080818E7F8083E2EE72
:104D3000F0E0808181608083808188608083F801D9
:104D400080818E7F8083888180618883DF91CF918D
:104D50001F910F910895E8EDF0E080818F7E8083B0
:104D6000E7EDF0E080818160808384E082BF81E0B4
:104D700080930D030E9468260895E8EDF0E080819D
:104D80008E7F80831092E20008951092DA001092D4
:104D9000E10008951F920F920FB60F9211242F93E6
:104DA0003F934F935F936F937F938F939F93AF93B3
:104DB000BF93EF93FF938091E10082FF0BC080913E
:104DC000E20082FF07C08091E1008B7F8093E100C9
:104DD0000E9429298091DA0080FF19C08091D800B3
:104DE00080FF15C08091DA008E7F8093DA00809179
:104DF000D90080FF96C080E189BD82E189BD09B4F8
:104E000000FEFDCF81E080930E030E940A23809173
:104E1000E10080FF19C08091E20080FF15C0809101
:104E2000E2008E7F8093E2008091E20080618093B7
:104E3000E2008091D80080628093D80019BC85E0A0
:104E400080930E030E941E238091E10084FF2BC0FB
:104E50008091E20084FF27C080E189BD82E189BDA5
:104E600089B5982F917080FFFBCF8091D8008F7DFE
:104E70008093D8008091E1008F7E8093E100809143
:104E8000E2008F7E8093E2008091E2008160809357
:104E9000E20080910A03882309F449C084E08093EA
:104EA0000E030E9427238091E10083FF29C0809197
:104EB000E20083FF25C08091E100877F8093E100BD
:104EC00082E080930E0310920A038091E1008E7FAE
:104ED0008093E1008091E2008E7F8093E2008091D8
:104EE000E20080618093E20042E060E080E00E94A6
:104EF000CA258091F00088608093F0000E941B23F7
:104F0000FF91EF91BF91AF919F918F917F916F91A1
:104F10005F914F913F912F910F900FBE0F901F9077
:104F2000189519BC10920E030E94182370CF80911F
:104F3000E30087FD93E090930E03B3CF1F920F928F
:104F40000FB60F9211242F933F934F935F936F935C
:104F50007F938F939F93AF93BF93CF93DF93EF9301
:104F6000FF93D091E900DF708091EC00C82FC170F1
:104F700080FDC0E81092E9008091F000877F809367
:104F8000F00078940E94E2271092E9008091F000EE
:104F900088608093F000CD2BCF70C093E900FF9123
:104FA000EF91DF91CF91BF91AF919F918F917F91C1
:104FB0006F915F914F913F912F910F900FBE0F9086
:104FC0001F901895AAE2B0E0E8EEF7E20C9494295D
:104FD0008FE093E02091F100FC012193CF01F3E0F9
:104FE00087319F07B9F70E9447238091E80083FF2C
:104FF0001EC180910F03909110039A3008F017C1E1
:10500000E92FF0E0E455F54D0C947F29803899F0B4
:10501000823809F00CC1809113038F70873008F03B
:1050200006C18093E9008091EB0085FB882780F919
:105030001092E90006C080910B0390910C0391112E
:1050400082609091E800977F9093E8008093F10050
:105050001092F1008091E8008E77E5C0882309F472
:10506000D3C0823009F0E3C0809111038111D6C012
:10507000809113038F702FEF280F263008F0D7C0D0
:105080008093E9002091EB0020FFC8C0933031F4F9
:105090008091EB0080628093EB00C0C09091EB00A8
:1050A00090619093EB0021E030E001C0220F8A95DF
:1050B000EAF72093EA001092EA008091EB00886002
:1050C000EACF8111B4C0109111031F778091E300E2
:1050D0008078812B8093E3008091E800877F809324
:1050E000E8000E94FE258091E80080FFFCCF8091BF
:1050F000E30080688093E30082E0111183E08093F5
:105100000E0395C08058823008F091C08091110341
:10511000909112038C3D23E09207A1F583E08A83EE
:105120008AE289834FB7F894DE01139620E03EE0CF
:1051300051E2E32FF0E050935700E49120FF03C0C9
:10514000E295EF703F5FEF708E2F90E0EA30C0F095
:10515000C7968D939D932F5F243159F74FBF809150
:10516000E800877F8093E8006AE270E0CE01019654
:105170000E940D258091E8008B778093E80057C04E
:10518000C096E7CF6091130370911403AE014F5F97
:105190005F4F0E944824BC01892B09F448C09091BC
:1051A000E800977F9093E80089819A810E946B259F
:1051B000E1CF8038E1F58091E800877F8093E800B7
:1051C00080910A038093F10045CF811130C0909106
:1051D0001103923060F58091E800877F8093E800AA
:1051E00090930A030E94FE2580910A03882311F000
:1051F00084E005C08091E30087FDFACF81E08093D1
:105200000E030E94322313C080911103813079F480
:1052100081E0933009F080E080930C031092E90064
:105220008091E800877F8093E8000E94FE258091AE
:10523000E80083FF0AC08091E800877F8093E80040
:105240008091EB0080628093EB00AA96E3E00C94DF
:10525000B0290895CF9380910E038823A1F0C091C7
:10526000E900CF709091EC00892F817090FD80E86B
:10527000C82B1092E9008091E80083FD0E94E2278C
:10528000CF70C093E900CF9108950E944E261092EE
:105290000E030895E8EDF0E08081806180838AE16B
:1052A0008A95F1F700C08091D90081700895AA1BFA
:1052B000BB1B51E107C0AA1FBB1FA617B70710F001
:1052C000A61BB70B881F991F5A95A9F78095909533
:1052D000BC01CD01089597FB072E16F4009407D06A
:1052E00077FD09D00E94572907FC05D03EF4909520
:1052F00081959F4F0895709561957F4F0895EE0FAA
:10530000FF1F0590F491E02D09942F923F924F9248
:105310005F926F927F928F929F92AF92BF92CF9245
:10532000DF92EF92FF920F931F93CF93DF93CDB74E
:10533000DEB7CA1BDB0B0FB6F894DEBF0FBECDBFC6
:1053400009942A88398848885F846E847D848C8497
:105350009B84AA84B984C884DF80EE80FD800C81A0
:105360001B81AA81B981CE0FD11D0FB6F894DEBF83
:105370000FBECDBFED010895002E083090F0982F9C
:10538000872F762F652F542F432F322F2227085037
:10539000F4CF220F331F441F551F661F771F881F2E
:1053A000991F0A95B2F7002D089597FD1094002ECD
:1053B000083098F00850232F342F452F562F672F91
:1053C000782F892F912DF4CF159497958795779500
:1053D000679557954795379527950A95AAF711240C
:1053E000002D0895FB01DC0104C08D91019080190E
:1053F00021F441505040C8F7881B990B0895FB01D8
:10540000DC0102C001900D9241505040D8F7089540
:10541000F999FECF92BD81BDF89A992780B508957C
:10542000A6E1B0E044E050E00C94522AA8E1B0E0DC
:1054300042E050E00C94522ADC01A40FB51F415009
:10544000504048F0CB01840F951F2E910E942D2AC9
:1054500041505040D0F70895262FF999FECF92BDC4
:1054600081BDF89A019700B4021639F01FBA20BD29
:105470000FB6F894FA9AF99A0FBE08950396272F5B
:105480000E942D2A0E942C2A252F0E942D2A242F8B
:105490000C942D2A0196272F0E942D2A0C942C2A39
:1054A000DC01CB01FC01F999FECF06C0F2BDE1BDE4
:1054B000F89A319600B40D9241505040B8F70895D3
:1054C000F894FFCF96059605E605E6054B066706B8
:1054D000C505C5056C06DD06EC06EC06B218B91864
:1054E000C018C518CA18CF18D418D918DE18E31870
:1054F000E818ED18B418B418B418B418B418B418DF
:10550000B418B418B418051B791B0D1BD71ADB1A75
:10551000111BDF1A151B211BEB1A721BEF1A251B1F
:10552000F31A291B511BF71A2D1B581BFD1A331B8D
:105530003B1BE31A191BE71A1D1B011B371B471BDB
:10554000611B701BD11A091B801BA01EA61E8F1E7B
:105550009A1EAC1EB21EB81E06282E2817292E2809
:0C5560001729612882281729D928E5287E
:10556C003A020100000001000000000000000501EB
:10557C0000000004060000000000000B0A00000000
:10558C00000000000E000E0E280850011E0A140127
:10559C00C022F622C322EF22E82201E200E900EA4F
:1055AC0000B500B600B700CD008301CC008A019293
:1055BC000194012102230224022502260227022A39
:1055CC0002B300B4006F0070009F01CB019F02A0DA
:1055DC0002818283E200E900EA00B500B600B70060
:1055EC00CD008301CC008A01920194012102230297
:1055FC0024022502260227022A02B300B4006F00FF
:10560C0070009F01CB019F02A002818283F5F6F707
:0E561C00313332369497C634356202000100F5
:00000001FF
