:100000000C9488020C9485210C94A5020C94A502F2
:100010000C94A5020C94A5020C94A5020C94A502C4
:100020000C94A5020C94A5020C94AA260C947E278D
:100030000C9404200C94A5020C94A5020C94A50227
:100040000C94A5020C94A5020C94A5020C94A50294
:100050000C94A5020C94A7200C94A5020C94A50264
:100060000C94A5020C94A5020C94A5020C94A50274
:100070000C94A5020C94A5020C94A5020C94A50264
:100080000C94A5020C94A5020C94A5020C94A50254
:100090000C94A5020C94A5020C94A5020C94A50244
:1000A0000C94A5020C94A5020C94A50235421E00E6
:1000B0001F0020002100220021522B0014001A00F2
:1000C0000800150017002F00290004001600070083
:1000D00009000A004B43E1001C001B000600190048
:1000E00005004E00E30057005600552431212A0038
:1000F0004C002D4227002600250024002300215219
:100100002E00130012000C0018001D0030003400F7
:1001100033000F000E000D000B004D43E5003800CA
:1001200037003600100011004A004F005200510005
:100130005000E3002C00280001003A003B003C0086
:100140003D003E00010001001F021F022F0230028D
:10015000310201000100200221022F003000350091
:1001600001000100220223022602270235020100BB
:100170000100010001000100010001000100000078
:1001800043004200410040003F00010000005600D3
:10019000610060005F0054000100000057005E0035
:1001A0005D005C0055000100000058005B005A0033
:1001B0005900000001000000580063006200620066
:1001C0000100010001000100010001000100010027
:1001D000010000000000CD000000D9000000010077
:1001E0000000CF00CE00D000DA00000001000000C7
:1001F00000000000000000000000010000000000FE
:1002000000000000D100D200010001000100010047
:1002100001000100010001000000000000000000DA
:10022000000000000100000000004F0052005100DB
:10023000500000000000000000000000000000006E
:1002400001000000000000000000000001000100AB
:1002500000003A003B003C003D003E0023780000D7
:10026000007C2B78207821782478000000000000A2
:10027000000000000000000001000000000000007D
:10028000000000000000000000000000000000006E
:100290000000000000000000430042004100400058
:1002A0003F00267800000000000027782878257895
:1002B000000000000000000000000000000001003D
:1002C000000000000000000000000000000000002E
:1002D000000000000000000000000000000101011B
:1002E00001010101010102020202020202020203F3
:1002F00003030303030303040404040404040505C3
:100300000505050606060606070707070708080885
:1003100008090909090A0A0A0B0B0B0C0C0C0D0D34
:100320000D0E0E0E0F0F0F101011111112121313CC
:100330001414151516161717181819191A1A1B1B45
:100340001C1D1D1E1E1F20202122222324242526A1
:1003500026272829292A2B2C2D2D2E2F30313232D9
:10036000333435363738393A3B3C3D3E3F404142E5
:10037000434445464748494A4C4D4E4F50515354CB
:10038000555658595A5B5D5E5F616264656668697F
:100390006B6C6D6F7072737577787A7B7D7E8082FF
:1003A000838587888A8C8E8F91939596989A9C9E48
:1003B000A0A2A3A5A7A9ABADAFB1B3B5B7BABCBE58
:1003C000C0C2C4C6C9CBCDCFD1D4D6D8DBDDDFE225
:1003D000E4E7E9EBEEF0F3F5F8FAFDFF0C03520069
:1003E000650064006F00780000001403460061009F
:1003F0006C0062006100740065006300680000002A
:100400000403090409023B00020100A0FA090400E8
:10041000000103010100092111010001224400072C
:10042000058103080001090401000103000000091F
:100430002111010001227B00070582032000011227
:1004400001000200000008444D4452000101020076
:100450000105010902A10185020901A1000509198F
:10046000012908150025019508750181020501097A
:100470003009311581257F950275088106093815E7
:1004800081257F950175088106050C0A38021581C2
:10049000257F950175088106C0C005010980A1016D
:1004A000850319012AB700150126B70095017510BB
:1004B0008100C0050C0901A101850419012AA002CF
:1004C000150126A002950175108100C005010906DD
:1004D000A101050719E029E7150025019508750117
:1004E00081029501750881010507190029FF150092
:1004F00026FF0095067508810005081901290515D4
:10050000002501950575019102950175039101C0C2
:1005100011241FBECFEFDAE0DEBFCDBF11E0A0E0B7
:10052000B1E0ECE2F5E502C005900D92AC3BB107FD
:10053000D9F723E0ACEBB1E001C01D92A431B207C2
:10054000E1F70E942D150C94402A0C940000843091
:10055000B8F46A30A8F4473098F450E097E0699F07
:10056000400D511D1124FA0196E4899FE00DF11D03
:100570001124EE0FFF1FE455FF4F859194910895CC
:1005800081E090E008950E94A702089581E0089517
:100590000E94C602089581E008950E94C60208954F
:1005A0000E94CD02089508950E94D3020895A6E006
:1005B000B0E0EDEDF2E00C94742949835A839E83F8
:1005C0003091C30189819A8131111AC03E81332350
:1005D00099F0222389F00E94DE08182F682F898164
:1005E0009A810E94BA0869817A81812F0E94C10F85
:1005F0002696E3E00C9490290E94CC08182FF3CFA4
:100600000E94DE0869817A81F1CFFC01262F4081AA
:10061000518162817381848195810E94D7020895FE
:10062000CF93DF93EC0161E00E940503BE010E94BD
:10063000C802DF91CF910895CF93DF93EC0160E082
:100640000E940503BE010E94D402DF91CF9108955C
:1006500008950E948F070E9428032FEF84E39CE0F7
:10066000215080409040E1F700C0000008950E94B2
:1006700029030E94CB2008950E9429030E94DC20B8
:1006800008950F931F93CF93DF938C0161E00E9435
:100690000503EC01B8010E94D002811106C080E080
:1006A000DF91CF911F910F910895B801CE010E9463
:1006B0007A1E8823A1F3B801CE010E94C41B8823AF
:1006C00071F3B801CE010E94EC1D882341F3B801FB
:1006D000CE010E94291B882311F3F801858188230C
:1006E00061F0C330FCE7DF07E9F058F4C115ECE72F
:1006F000DE07A9F0C130DC47B9F0C8010E94CB0287
:10070000CFCFCB358CE7D807A9F0CC35ECE7DE07A7
:1007100071F0CA35DC4789F70E94140DEECF0E94B4
:100720003703BDCF0E941C0D0E943C03B8CF0E942E
:100730000A0DE3CF0E94180DE0CF0E94E11F0E9436
:10074000C40308950E94C8030E94E61F08950895F7
:1007500081E008950895CF93DF93D82F0E94A803D6
:10076000C82F882319F08D2F0E94AA038C2FDF91A8
:10077000CF9108950895CF93C82F0E94A7038C2F7F
:100780000E94AB03CF91089580E00E94BB030895BF
:100790000E94C31E0E94BB030895CF930E94C31EF4
:1007A000C82F8091BE018C1779F0C093BE010E94C2
:1007B00070206093BF017093C0018093C10190933A
:1007C000C2018C2F0E94BB03CF910895ADE0B0E031
:1007D000ECEEF3E00C947529488759876A877B878C
:1007E0008C879D8791110E94420C1F8286E0FE013A
:1007F0003896DE01119601900D928A95E1F78D8170
:1008000081110DC029813A814B815C816D817E818E
:100810008F810E94750B2D96E2E00C949129CE01F8
:1008200001960E9410038111EDCFF5CFFC012481C8
:10083000213021F4808191810E941009089566235E
:1008400029F00E94C4150E94971608950E941E1652
:10085000FACFCF93C82F8823C9F08238C9F40E94F9
:10086000D71E81FD13C089E30E94FA0B0E947B0C06
:100870002FEF87EE93E0215080409040E1F700C0D9
:10088000000089E30E94020C0E947B0CCF91089526
:100890008338A1F40E94D71E80FDF8CF83E50E9423
:1008A000FA0B0E947B0C2FEF81EE94E021508040E8
:1008B0009040E1F700C0000083E5E4CF8438A1F464
:1008C0000E94D71E82FDE2CF87E40E94FA0B0E94AD
:1008D0007B0C2FEF81EE94E0215080409040E1F7B7
:1008E00000C0000087E4CECF8CEF8C0F813AB8F4C3
:1008F0008C2F0E94311D8111C9CF6C2F8091000176
:10090000909101010E944F1F882329F08C2F0E9493
:10091000020C0E947B0C8C2F0E94FA0BB5CF80E258
:100920008C0F883048F4C77081E001C0880FCA95E9
:10093000EAF70E94250CA8CFEBE5EC0FE33040F47A
:10094000F0E0E159FE4F808190E00E94F31E9ECFBF
:10095000E8E5EC0FEB3150F4F0E0EE0FFF1FE75C41
:10096000FE4F808191810E94181F90CF83E38C0FEE
:10097000833108F08BCF61E08C2F0E941F0486CF5B
:10098000882309F456C0823879F40E94D71E81FF6B
:1009900050C089E30E94FA0B0E947B0C89E30E94FD
:1009A000020C0E947B0C0895833859F40E94D71ED4
:1009B00080FF3FC083E50E94FA0B0E947B0C83E519
:1009C000EECF843859F40E94D71E82FF32C087E4EC
:1009D0000E94FA0B0E947B0C87E4E1CF9CEF980FFA
:1009E000913AE8F290E2980F983050F4877091E0D5
:1009F00001C0990F8A95EAF7892F0E942B0CD1CF5D
:100A00009BE5980F933028F490E080E00E94F31E5D
:100A1000089598E5980F9B3128F490E080E00E94BB
:100A2000181F089593E3980F933118F460E00E9423
:100A30001F0408951F93CF93DF93182FEB010E949B
:100A40002904209739F4812F0E94C004DF91CF91AF
:100A50001F9108958FE99FE00197F1F700C0000012
:100A60002197EFCF70E060E0893311F460E570E02A
:100A70000E941A050895882321F00E94250C0E94E7
:100A80007B0C0895882321F00E942B0C0E947B0C84
:100A90000895B0E0A0E0EFE4F5E00C946E296C015D
:100AA000D62FC72FFC011581068102950F700E9479
:100AB0001B0CE82E8823E9F0E12E1123D1F08C2FB6
:100AC000807F803451F080E28D0F8830F8F0011182
:100AD00004C08C2F807E8032C9F08091BA0282FFE0
:100AE00015C082E00E94DE0C0E941B0C91E0E82EF3
:100AF000E926BC2EB2949FE0B922FBE0FB15B8F1C9
:100B0000EB2DF0E0EE5BF54D0C945F29E12CF1CF7D
:100B10000C2F0F70C07F11F00295007F112399F008
:100B2000002359F080E28D0F883010F0D11107C0FA
:100B3000802F0E94250C0E947B0C8D2F5AC0802F85
:100B40000E94350CF8CF8D2F0E94C004002379F04D
:100B500080E28D0F883010F0D11104C0802F0E94E8
:100B60002B0C03C0802F0E943B0C0E947B0CEB2DB2
:100B7000E850FF0B349720F40E94C31E0E94BB0371
:100B8000EE2089F00E94170C80FD0DC0F601158241
:100B90000E94110C0E941808C6010E9456070E946C
:100BA000110C0E942808CDB7DEB7E9E00C948A2921
:100BB0002C2F2F70F22EC07FC03219F0F29480EFEC
:100BC000F822DD2341F0D130D1F1112309F444C0E2
:100BD0000023F1F0B2CF8091BA0282FD15C011233B
:100BE00059F0FF2029F08F2D0E94250C0E947B0CCC
:100BF00080E00E942904BBCF80E00E94C004FF2057
:100C000009F4B5CF8F2DABCF112369F0011104C0CA
:100C10008F2D0E943B05ABCF013009F0A8CF8F2D5F
:100C20000E94590CA4CF0111A2CF8F2D0E94420522
:100C30008F2D0E94650C8F2D0E94490C98CF112397
:100C400021F0063008F093CFE3CF053008F08FCFC6
:100C50008F2D0E9442058BCF0023D1F3D93349F465
:100C60003FEF87EE93E0315080409040E1F700C0C5
:100C700000008D2F0E94C0047ACF8C2F8695869518
:100C8000837069F0813009F072CF8D2F9C2F9370A3
:100C9000111102C080E090E00E94181F68CF8D2FD4
:100CA0009C2F9370111102C080E090E00E94F31E0F
:100CB0005ECF612F8D2F0E941F0459CF8C2F837020
:100CC000A1F5111154CF4D2F429546954770440F11
:100CD000440F2D2F2F7030E0042E02C0220F331F3F
:100CE0000A94E2F790E080E0D4FF09C08FE090E042
:100CF00002C0880F991F4A95E2F780959095C69596
:100D0000C695C370822B932BC23049F058F4C13082
:100D100019F00E94E8072BCF0E94DF0728CF0E941E
:100D2000F10725CF0E94DC0722CF8695112311F011
:100D30008C2F8170882309F41ACF4D2F4295469548
:100D40004770440F440F2D2F2F7030E0042E02C047
:100D5000220F331F0A94E2F790E080E0D4FF09C02D
:100D60008FE090E002C0880F991F4A95E2F78095C6
:100D70009095C695C695C370822B932BC23049F0CF
:100D800058F4C13019F00E945308F1CE0E944A086D
:100D9000EECE0E945C08EBCE0E940008E8CECF7039
:100DA000112329F08C2F0E9418088D2F32CF8D2F00
:100DB0000E9442058C2F0E942808D9CED23F41F1D3
:100DC00060F4D03FB9F0D13F81F0112309F446C05F
:100DD0000111B3CE8C2F8F711FC0D33F01F1D43FCF
:100DE000A1F78091BA0282FD24C08C2F8F7111234C
:100DF00011F312C0112341F0053008F0B8CE8C2F4A
:100E00008F710E943A08B3CE063008F0B0CEF7CF0B
:100E10008C2F8F711111CFCF0E941808A8CE1123EB
:100E200029F08C2F8F710E940C08A1CE0E94070818
:100E30009ECE112349F0CF718C2F0E94180863E0D9
:100E40008C2F0E94C00C93CE81E00E94DE0C0230F9
:100E500008F48DCE82E00E94DE0C89CE002359F08A
:100E6000D93309F006CFEFEFF7EE23E0E150F04081
:100E70002040E1F7FCCE8C2F8F719DCF0F931F93F5
:100E8000CF93DF93EC01688179818D810E941B09EA
:100E90008C010E9465080E94DB07B801CE010E9408
:100EA0004905DF91CF911F910F910895CF93DF9363
:100EB000EC018C81882399F0CE010E9441038111BD
:100EC00011C00E941B0C882351F08D81882339F0BA
:100ED0008091BA0282FF03C082E00E94DE0CDF91A3
:100EE000CF910895CE010E943E07CE010E941C03BF
:100EF000F6CF90E080E00E94F31E90E080E00E9438
:100F0000181F0E94420C0E947B0C0E94B3160E9484
:100F1000971608950E940A0C0E94790708950E946E
:100F2000320C0E948A07089592959F70963091F036
:100F300058F4925F9F70923058F4803F19F030F46B
:100F4000883E30F481E008959A5FF4CF843FD1F376
:100F500080E00895883EB0F3813FD1F7F3CFFC01E4
:100F60002481222339F0808191810E9410090E94FE
:100F70009407089580E00895A6E0B0E0E2ECF7E081
:100F80000C9475292696E2E00C949129A7E0B0E034
:100F9000ECECF7E00C9475292796E2E00C9491298B
:100FA00008950E94D00708950E94D1079093EB0105
:100FB0008093EA01089508950E94D407089520912E
:100FC000EA013091EB01822B932B0E94D407089504
:100FD0002091EA013091EB01822393230E94D407F0
:100FE00008952091EA013091EB01822793270E9416
:100FF000D40708950E94D00708950E94FA07089523
:101000000E94FD079093E9018093E801089590E024
:1010100080E00E940008089521E030E0A90102C0AC
:10102000440F551F8A95E2F7CA010E9400080895EF
:1010300021E030E002C0220F331F8A95E2F7809151
:10104000E8019091E901822B932B0E9400080895FA
:1010500021E030E002C0220F331F8A95E2F720958D
:1010600030958091E8019091E901822393230E94B9
:101070000008089521E030E002C0220F331F8A9556
:10108000E2F78091E8019091E901822793270E947D
:10109000000808952091E8013091E901822B932BFB
:1010A0000E94000808952091E8013091E90182230F
:1010B00093230E94000808952091E8013091E901EE
:1010C000822793270E94000808950895262F2770ED
:1010D00091E001C0990F2A95EAF723E0769567958C
:1010E0002A95E1F7660F771F660F771FFA01E60F63
:1010F000F71F50E040E0682F70E08191DF01119709
:101100009B01042E02C0369527950A94E2F72170C0
:1011100021952827292328272C934F5F5F4F4430A0
:10112000510559F70895A82FA77023E09695879544
:101130002A95E1F7880F991F880F991FFB01E80F87
:10114000F91F50E040E080E0219130E00A2E02C01B
:10115000369527950A94E2F721703327042E01C0B3
:10116000220F0A94EAF7822B4F5F5F4F44305105FC
:1011700059F70895262F9A3070F4873060F4682F5D
:1011800070E087E0989F600D711D112444EC51E0E0
:10119000822F0E9466080895292F9A3068F48730BC
:1011A00058F490E064EC71E037E0239F800D911DCE
:1011B00011240E949308089580E00895B0E0A0E013
:1011C000E4EEF8E00C946E297C010091E8011091A6
:1011D000E9018091EA019091EB01082B192BCFE0F6
:1011E000D0E0CC24C394D12CBC2EC6010C2E02C05E
:1011F000880F991F0A94E2F780239123892B49F4E1
:10120000219790F7B12C8B2DCDB7DEB7E9E00C9488
:101210008A29B7018C2F0E94CD0F019789F3F3CF54
:10122000CF93DF93EC010E94DE08BE010E94CD0F38
:10123000DF91CF9108951F93CF93DF93EB019091AE
:10124000C301992339F0CB010E941009DF91CF919E
:101250001F910895882369F0CB010E94DE08182FA2
:10126000682FCE010E94BA08BE01812F0E94CD0FC7
:10127000EDCFCB010E94CC08182FF6CF1F93CF9350
:10128000DF93C091EC0117E08091ED018C1304C055
:10129000DF91CF911F910895D0E01C9FF0011D9F19
:1012A000F00D1124E251FE4F2081318142815381A2
:1012B0006481758186810E94C6072196C770E4CF3C
:1012C0002091260230912702409128025091290254
:1012D00060912A0270912B0280912C020E94C60715
:1012E0000895CF93DF9380912C02807F09F04DC049
:1012F00080912B02882309F448C0E091EC015091C1
:10130000ED01C0912702D0912602609128027091D0
:10131000290247E05E17C9F18E2F90E0E49FF001AB
:101320001124E251FE4F2481222391F1489FF001C4
:10133000499FF00D1124DF01A251BE4F11962C914F
:1013400011972C1325C02C912D1322C015962C918A
:10135000159721111DC012962D913C91261B370B1C
:10136000283C3105A8F480912C028F708061809315
:101370002C02EC50FE4F80818F708061808386E26A
:1013800092E00E9456070E943E09DF91CF91089596
:10139000FC013196E770BECF482F2091EC0190916F
:1013A000ED0157E0291302C080E0089530E0529F1C
:1013B000F001539FF00D1124E251FE4F818168131B
:1013C00006C08081481303C085818111EECF2F5F55
:1013D0003F4F2770E7CFA4E1B0E0E1EFF9E00C94D4
:1013E0006B298C0186E0F801DE011F9601900D92B9
:1013F0008A95E1F7F8018481E58096E2A92E92E0D2
:10140000B92E90912A0291111FC08823D1F0EE20AD
:10141000A9F0C8010E94AF07F82E882379F087E071
:10142000F801D50101900D928A95E1F7C5010E945E
:1014300016040E9471090E9460095FC0C8010E94E1
:101440005607FF24F39459C0C080D18082809380D6
:10145000F0902B022091280230912902A401421B16
:10146000530BFF2009F4F9C0483C510508F0A7C010
:10147000882309F442C09091270280912C02282FE2
:10148000207F09F05CC09D1116C090912602C91200
:1014900012C0E1104EC08F70806180932C020E94B8
:1014A000600986E292E00E94560780912C02F801C2
:1014B0008683F12C22C0E1103CC06D2D8C2D0E9442
:1014C000CC096D2D8C2D0E94CC09E82E8111F1CF15
:1014D000CF86D88A8F8598890E941009292F229556
:1014E0002F70243078F49F702230A8F09923B9F03F
:1014F000F8019681907F99F4FE2C8F2D6496ECE094
:101500000C9487292A5F2F70223068F0C8010E944E
:101510005607EF2CF1CF992311F0882369F3805EF1
:10152000883050F3F3CF803F38F3815F833070F71A
:10153000E3CF80912C02816080932C02BACF9D1161
:1015400013C090912602C9120FC0E1100DC086830E
:10155000C8010E94560787E0F801A6E2B2E00190B8
:101560000D928A95E1F767CFC8010E94AF078823E3
:1015700009F464CFEE2009F461CF80912C0280320F
:1015800088F02091260230912702398728879B8690
:101590008A8690912A029C871D868E87CE010896A6
:1015A0000E94560787E0F801A6E2B2E001900D9292
:1015B0008A95E1F70E9471090E94600942CF9091DB
:1015C0002C02292F207FA1F4682D9A8A898AA601EE
:1015D0007A899E2D0E94BC0786E292E00E945607FF
:1015E00087E0F50111928A95E9F70E94600961CFC1
:1015F000882309F482CF809127028D1110C0809139
:101600002602C8120CC0E1100AC09683C8010E94CD
:10161000560787E0F50111928A95E9F76ECFC80168
:101620000E94AF07882309F409CFEE2009F406CF02
:1016300080912C02803208F4B5CF2091260230919F
:1016400027023A8329839C828B8290912A029D8370
:101650001E828F83CE010196A3CF483C5105B8F579
:10166000882309F4EECEFE2CEE2009F4E7CE80911B
:1016700027028D111EC080912602C8121AC08091C7
:101680002C0280FD0DC0982F907F51F08683903FF3
:1016900009F45ECF982F907F905F8F70892B57CF82
:1016A00087E0F801A6E2B2E001900D928A95E1F799
:1016B00024CFC8010E94AF07811174CF80912C0202
:1016C000816080932C02C8010E94560716CF682DB6
:1016D0009A8A898AA6017A899E2D0E94BC0787E092
:1016E000F50111928A95E9F7A6CEAEE0B0E0EBE7FE
:1016F000FBE00C947429288739874A875B876C87BD
:101700007D878E87CE0108960E94EB098823B1F071
:101710006C85662341F0288539854A855B857D8502
:101720008E850E94C60717E08091EC019091ED0133
:1017300089133DC02E96E3E00C94902987E0FE01CA
:101740003896DE01119601900D928A95E1F78C850D
:10175000882349F32091ED0130E0C901019687709B
:1017600099274091EC014817190699F097E0929F4C
:10177000D001939FB00D1124A251BE4FFE013196AE
:1017800001900D929A95E1F78093ED010E943E0938
:10179000CACF0E948F071092ED011092EC0187E0F2
:1017A000E6E2F2E0DF011D928A95E9F7BCCF819F66
:1017B000C001112482519E4F0E94EB09882309F435
:1017C000B9CFE091EC011E9FF0011124E251FE4FD0
:1017D00020813181428153816481758186810E949B
:1017E000C6078091EC0190E001968770992780935D
:1017F000EC019ACF682F80910001909101010E9425
:10180000851F0895682F80910001909101010E9429
:10181000881F089580910001909101010E948B1F03
:1018200008958091350286958695869508958091D4
:1018300035028770089590913502977081E009F420
:1018400080E0089580914102089590914102892B92
:10185000809341020895809590914102982390933E
:101860004102089510924102089590914002892BFF
:101870008093400208958095909140029823909320
:101880004002089510924002089508950E94450C68
:10189000089590913602292F282331F080958923CD
:1018A000809336020E94460C089508950E94550CBC
:1018B000089590913702292F2823281729F0982B73
:1018C000909337020E94560C089590913702292F69
:1018D000282331F080958923809337020E94560C8B
:1018E000089580913702882329F01092370280E012
:1018F0000E94560C0895CF93DF93E0910001F09180
:101900000101809141028083E0910001F091010189
:10191000808190914002892B808390913702992396
:1019200081F0E0910001F09101018081892B808399
:1019300080910001909101010E943D1F81110E9440
:10194000710CC0910001D091010148E050E06DE2BE
:1019500072E0CE010E94D229892B59F088E0FE0165
:10196000ADE2B2E001900D928A95E1F7CE010E94BE
:10197000DA1EDF91CF91089508950E94BC0C08955E
:101980009091BA0292FF11C098E0899F90011124B2
:10199000622B609335020E9418088091350286956B
:1019A000869586950E94BD0C08950E94180808959A
:1019B0001092350280E00E94BD0C0895909135028E
:1019C0008095892380933502282F277069F4891721
:1019D00059F09091BA0292FF07C086958695869538
:1019E0000E9428080E94D80C08959091BA0292FB98
:1019F000222720F9281769F080FB92F99093BA0208
:101A00008091B9029091BA020E943D0D82E00E943D
:101A1000DE0C08958091BA0282FB882780F991E05C
:101A200089270E94F50C089581E00E94F50C089525
:101A300080E00E94F50C08956FEF7FEF90E080E06A
:101A40000E942A2A089590E080E00E94F62921E071
:101A5000863E9E4F09F020E0822F089582E090E0BC
:101A60000E94E829089583E090E00E94E829089503
:101A700084E090E00E94F6290895BC0184E090E0A3
:101A80000E942A2A0895AB01BC018FE090E00E94D9
:101A90001E2A0895AB01BC0183E190E00E941E2A3A
:101AA000089560E070E0CB010E944A0D089560E067
:101AB00070E0CB010E94430D0E94510D0895A8E0F3
:101AC000B0E0E5E6FDE00C94752966EE7EEF90E06F
:101AD00080E00E942A2A60E082E090E00E940C2AC6
:101AE00060E083E090E00E940C2A1092EB011092DB
:101AF000EA0160E074E184E090E00E942A2A60E05C
:101B000086E090E00E940C2A6FEF87E090E00E9450
:101B10000C2A40E050E0BA0188E090E00E941E2AC2
:101B200060E084E290E00E940C2A60E087E190E0AF
:101B30000E940C2A60E08CE090E00E940C2A60E099
:101B40008DE090E00E940C2A19821A821B821C826E
:101B50001D821E821F82188648E050E068E170E016
:101B6000CE0101960E94FC2940E050E0BA0180E2DB
:101B700090E00E941E2A0E94570D2896E2E00C94E5
:101B800091290E945F0D0895682F8EE090E00E94D9
:101B90000C2A0895A6E0B0E0E0EDFDE00C94732976
:101BA0000E9464208C018091420290914302801730
:101BB000910781F019821A820E946420682F49815E
:101BC0005A81792F80E090E00E94E603109343024F
:101BD000009342022696E4E00C948F290E94E910BB
:101BE0006093520270935302809354029093550273
:101BF00060934E0270934F02809350029093510273
:101C00000895089508950E94010E089508950E9470
:101C1000060E089581E0089583E091E10E943A154F
:101C20000E94020E0E94030E08950E94CF12089592
:101C3000089508950E94180E0E94190E08950E949A
:101C400006110E94BA0308950E945B200E94C310EF
:101C50000E94EA120E9430120E941F0E0E94AC1BCA
:101C60000E94A31A0E94F4120E94070E0895A6E093
:101C7000B0E0EDE3FEE00C946C290E940A0E8111A5
:101C80000CC00E94CA0D0E94CF120E94D5160E945D
:101C9000CD032696EBE00C9488290E94531284E42D
:101CA000A82E82E0B82E750110E0F70101917F01A6
:101CB000812F0E942C111F5F1A3009F441C00817B0
:101CC000A1F38091560281FD0E9432110E94150EEF
:101CD000C82E10E099249394812F0E942C11082F74
:101CE000F50181915F01081729F1F12CEE24E394AD
:101CF000D02ED8268D2D8E21A9F0CC2099F0F982F6
:101D00001A830E9464209C838B839D8291E0802FA4
:101D10008E2109F490E049815A816B817C818D810B
:101D20000E94E603F394EE0CF7E0FF12E3CFF50117
:101D3000319700831F5F1A3079F60E94EE0DA3CF12
:101D40000813BFCF9ECF1F93CF93DF930E94D20F74
:101D5000EC01C11580E5D807F0F5C11580E4D8077E
:101D600008F09CC0C03ED10520F5CD3CD10508F05F
:101D700082C0C83AD10578F4C53AD10508F073C0DD
:101D8000C130D10519F1209709F1C430D105F0F423
:101D9000D0E0C0E01BC0C33CD105D0F7C85AD0E0AA
:101DA000CC0FDD1FCE58DE4F0990D881C02DD464F2
:101DB0000DC0C11580E2D80708F0D1C0C11581E07F
:101DC000D80708F05AC0C83ED10510F7CE01DF9100
:101DD000CF911F910895C03682E5D80718F5C03419
:101DE00082E5D80708F06BC0C03282E5D80708F05A
:101DF0005FC0C11582E5D80708F497C02C2F26953F
:101E0000269580E2289F900111248C2F8370C1E0D9
:101E1000D0E002C0CC0FDD1F8A95E2F7C22BD32B96
:101E2000DD68D4CFC03A82E5D80760F4C03882E5D7
:101E3000D80708F459C0CF71D0E0DC2FCC27C46F8D
:101E4000D06AC4CFC03C82E5D80708F462C0C03E67
:101E500082E5D80708F09CCFDC2FCC27CC27DF7198
:101E6000C06FD06AB3CFC55AD0E0C855DE4FC88125
:101E7000D0E0D064ABCFD065A9CF8D2F0E94741075
:101E8000182FCE0199270E94D20FC12FD0E0DC2F4E
:101E9000CC27CC27DF71C82BD92B98CFCE0199271F
:101EA0000E94D20FCC27DF70C82BD92BD06A8ECFDF
:101EB000CF71D0E0DC2FCC27C16FD06A87CF2C2F19
:101EC00026952695277080E2289F900111248C2F5B
:101ED0008370C1E0D0E002C0CC0FDD1F8A95E2F72D
:101EE000C22BD32BDC6872CF2C2F2695269527701A
:101EF00080E2289F900111248C2F8370C1E0D0E0F4
:101F000002C0CC0FDD1F8A95E2F7C22BD32BDA6813
:101F10005DCF8C2F8F710E947410C82FD0E0DC2F02
:101F2000CC27CC27DF71D06251CF8C2F8F710E94CC
:101F3000741055E0D695C7955A95E1F7CF70D0E06B
:101F4000DC2FCC27282F30E084FF05C044E0220F8F
:101F5000331F4A95E1F7C22BD32BD06937CF8D2F92
:101F60008F710E947410182FCE0199270E94D20FF2
:101F7000C12FD0E0DC2FCC27CC27DF71C82BD92B89
:101F8000D2CF462F7A3030F4673020F4672F0E948A
:101F9000C302089590E080E008950E94C10F0E945E
:101FA000A30E089582389105B9F1B0F481339105FB
:101FB00009F47DC048F48932910509F46DC08A3274
:101FC000910509F47BC008958533910509F45FC03C
:101FD0008933910509F10895833E9105D9F138F4CB
:101FE000803E910529F1823E910579F10895863E62
:101FF0009105D9F1873E910509F43EC0843E9105D3
:1020000041F52091BA0221FF24C08091B90284FDDC
:1020100019C087EE90E008952091B902237009F06D
:102020005AC02091BA0223FF14C089E290E00895BB
:102030002091B90220FD38C03091BA0230FF09C0AA
:1020400024FF43C090E080E008952091B90222FD72
:10205000F7CF08952091B90222FD3AC03091BA021B
:1020600030FD39C024FFF5CFEDCF2091B90223FF19
:10207000F0CF24FDE7CFCDCF2091B90223FD2EC0B4
:102080003091BA0231FFEECF84EE90E008952091B6
:10209000B90225FFDECFC9CF2091B90225FD21C0AD
:1020A0002091BA0223FFD5CF89E390E0D2CF2091CF
:1020B000B90226FFCECF8AE290E008952091B902BE
:1020C00026FFC7CF81E390E0089583EE90E0089566
:1020D00082EE90E0089580EE90E0089586EE90E024
:1020E000089585E390E008959091B90292FF10C0A1
:1020F00041E0282F2471243009F040E031E0282FFE
:102100002871283009F030E0431711F02CE08227C5
:1021100093FF10C041E0282F2471243109F040E0E2
:1021200031E0282F2871283109F030E0431711F0F1
:102130002CE082273091BA0230FF10C051E0282FE6
:102140002171213009F050E041E0282F287128301A
:1021500009F040E0541711F029E0822731FF10C048
:1021600041E0282F2171213109F040E031E0282F92
:102170002871283109F030E0431711F029E0822757
:1021800094FD877E08951092B5021092B6021092C7
:10219000B7021092B8020895CF92DF92EF92FF92A9
:1021A0006B017C010E94CF1281110EC00E94702031
:1021B000C61AD70AE80AF90AC092B502D092B60246
:1021C000E092B702F092B802FF90EF90DF90CF90CC
:1021D00008950F931F930E94CF12882329F00E9425
:1021E00070201F910F9108950E9470200091B502F8
:1021F0001091B6022091B7023091B802600F711FA2
:10220000821F931FEECF80E0089508950E94230D52
:10221000811102C00E94C10D0E942E0D80935602B2
:102220000E94380D9093BA028093B9020E94051162
:102230000E94330D90E00E94DC078091E8019091AC
:10224000E9010E94FD07089508950E942411089550
:1022500008950E9428110895E82FF0E0EA53FD4FF9
:1022600080810895089580EA8A95F1F7089500C065
:1022700008950E943311089508950E943C11089515
:10228000A5E0B0E0E6E4F1E10C9471290E94CF12E0
:10229000F82E6091D002882309F440C085E0E82E32
:1022A0008E010F5F1F4FF8018E2D11928A95E9F76D
:1022B000862F90E0B8018A539D4F0E940213882315
:1022C000B9F08091BB0290E045E050E0B8018A533C
:1022D0009D4F0E94D22921E020935702892B91F42F
:1022E000F12C0E9429118F2D2596E6E00C948D2962
:1022F000809157028823A1F3F8011192EA94E9F73B
:1023000010925702A091BB02B0E0AA53BD4F85E0E6
:10231000F80101900D928A95E1F7E3CF70E06A53DE
:102320007D4F8091BB0290E08A539D4F0E9489139C
:102330000E943D11D8CFF894E82FE295EF70F0E0BD
:1023400031A1282F2F7081E090E001C0880F2A95DD
:10235000EAF7982F9095932391A392A1892B82A3BA
:10236000789408950F931F93CF93DF93C2EBD1E03E
:1023700089918F3F11F00E949B1181E0C73BD807E4
:10238000B9F7CBEAD1E002EB11E089918F3F11F070
:102390000E949B110C171D07C1F7DF91CF911F9170
:1023A0000F910895B0E0A0E0E8EDF1E10C946F2901
:1023B000EC01D62E062F10E0C8018E549E4F7C01F2
:1023C000FC0180818F3F09F444C0F894E82FE29526
:1023D000EF70F0E091A18F7021E030E001C0220F9A
:1023E0008A95EAF7892F822B81A382A12095282341
:1023F00022A378940E943711EBEAF1E031E0C12C7E
:1024000021912F3F59F1A22FA295AF70B0E0909685
:102410008C9190E02F7002C0959587952A95E2F7F0
:1024200080FD1CC0832FC82A330F81E0E23BF807F0
:1024300039F7F70180818F3F11F00E949B1161E015
:10244000C11001C060E08D2D0E943911C00FD11F55
:10245000C882CDB7DEB7E8E00C948B2980E0E3CFEB
:10246000809102018091020195E0811190E09093AA
:10247000D00285E0891B8093BB020E94B2118AE0E2
:10248000E6ECF2E0DF01982F1D929A95E9F7ECEB6C
:10249000F2E0DF011D928A95E9F785E00E94911232
:1024A0000E9425110895AAE0B0E0E9E5F2E10C945C
:1024B00072298E010F5F1F4F8AE0F80111928A95F1
:1024C000E9F7F12C6F2DC8010E94D211F394F5E0C9
:1024D000FF12F8CF4AE050E0B8018CEB92E00E9486
:1024E000D22921E0009709F420E0892B41F08AE00D
:1024F000F801ACEBB2E001900D928A95E1F76091A2
:10250000D00270E06A537D4F45E08CEB92E00E9470
:102510009212182F0E944011812B2A96E5E00C940C
:102520008E290895CF92DF92EF92FF920F931F931F
:10253000CF936C017B01042F222349F081E080932B
:102540005A020E9464209093590280935802C091CD
:102550005A02C1110AC0C0E08C2FCF911F910F9178
:10256000FF90EF90DF90CF90089580915802909166
:1025700059020E947C20059770F310E0A801B60173
:10258000C7010E94D229892B41F0A801B601C701D9
:102590000E94DF2910925A02DFCFC0E0FBCF80916A
:1025A0005D02811107C00E942A29882351F081E031
:1025B00080935D0281E090915D02913009F080E0AE
:1025C000089582E080935D020E942529F3CF0E9446
:1025D000CF1208950E94E712809302010E94CF1249
:1025E00081110E94381308950E94CF12811102C0F8
:1025F0000E943B13089581E090915E029A3008F0AA
:1026000080E008950F931F93CF93DF93EC018B012C
:1026100080915E028A30B8F4B801CE010E94861320
:10262000C82F811122C080915E028F3FB9F40E94B1
:10263000642090935C0280935B028C2FDF91CF919A
:102640001F910F91089580915B0290915C020E940E
:102650007C20843F914000F7C0E0EFCF8F5F8093F4
:102660005E028A3020F7C1E0E8CF10925E02E5CF2B
:102670000E943F2108950E9442210895B0E0A0E009
:10268000E4E4F3E10C9470297901C82F880FDD0B85
:1026900041155105A9F0FE0193E0EE0FFF1F9A9539
:1026A000E1F7ED5FFE4F81819281815A9D4F20813C
:1026B00030E04217530708F49A01A9010E94DF296C
:1026C000CE010E942B22D82E8823D1F001151105AE
:1026D000B9F083E0CC0FDD1F8A95E1F7FE01ED5FD5
:1026E000FE4F438150E00417150708F4A801CD5FA1
:1026F000DE4F6C817D81615A7D4FC7010E94DF29C9
:102700008D2DCDB7DEB7E7E00C948C290E94B31471
:1027100008950E94D4140895A4E0B0E0E2E9F3E142
:102720000C947329609181027091820280918302DE
:10273000909184020E948B2011E06436710581051E
:10274000910518F10E94E9106E5F7F4F8F4F9F4FE8
:1027500069837A838B839C8310E000E030E020E083
:1027600044E050E0BE016F5F7F4F82E00E943E1365
:10277000182F882351F00E9470206093810270937B
:1027800082028093830290938402812F2496E4E056
:102790000C948F29B0E0A0E0E0EDF3E10C946D29FA
:1027A0007C015B016A010E94FB1201E010E08823BA
:1027B00011F00AE010E0C1E0D0E0B501C701F60178
:1027C0000995811104C021960C171D072CF4CDB773
:1027D000DEB7EAE00C948929CC9F9001CD9F300DA3
:1027E000300D112490E080E045E34A95F1F70000B8
:1027F000019682179307C1F7E0CFABE0B0E0E3E0CA
:10280000F4E10C947329CE0101960E94EC1A1B8509
:102810006091850270918602809187029091880272
:102820000E948B20643671058105910510F41123F7
:10283000C1F010E000E030E020E04BE050E0BE01ED
:102840006F5F7F4F83E00E943E13882369F00E94F0
:102850007020609385027093860280938702909324
:1028600088020E94E91A81E02B96E4E00C948F29FB
:10287000A6E0B0E0EEE3F4E10C946D297B01C0909A
:10288000B701D090B80101E010E09E012A5F3F4FF0
:1028900050E040E070E060E080E00E943E13182FBE
:1028A000882309F448C056018FEFA81AB80A60912E
:1028B0007D0270917E0280917F02909180020E9441
:1028C0008B20643671058105910568F105E010E003
:1028D0009E012F5F3F4F50E040E070E060E081E0FC
:1028E0000E943E13D82E65E070E0C5010E94AD1B2A
:1028F00011E09E81981310E01D2141F10E9470208B
:1029000060937D0270937E0280937F029093800299
:1029100085E0FE013196A8E7B2E001900D928A951C
:10292000E1F711E013C065E070E0C5010E94AD1B46
:102930009E818913CBCF85E0F6013196DE01119699
:1029400001900D928A95E1F71111E2CF85E0E8E759
:10295000F2E0D70101900D928A95E1F7812F26963A
:10296000EAE00C9489290F931F93CF93DF93EC0136
:102970008B0148E354E10E94CA13811106C080E034
:10298000DF91CF911F910F9108954CE853E1B80169
:10299000CE010E94CA13882391F34DEF53E1B80191
:1029A000CE010E94CA13ECCFABE0B0E0EAEDF4E157
:1029B0000C946F290091B7011091B801C8010196DC
:1029C00025E0FB01DC0101900D922A95E1F765E01D
:1029D00070E00E94AD1BF80180836681778180855D
:1029E0009185C0907402D0907502E0907602F090CC
:1029F00077026C157D058E059F0551F0609374027A
:102A00007093750280937602909377020E94CC10A7
:102A10008BE0F8013A96DE01119601900D928A95AD
:102A2000E1F7F801148A8B85882329F060E0CE0154
:102A300001960E94FF1A2B96E8E00C948B290E94C5
:102A4000FB230E94240E0E94082408950E940D2456
:102A50000E94370E0E94272408950E94FD1F0E94A5
:102A6000E1230E940C0E0E941F150E9426150E9451
:102A70001A0EFBCF9093BD018093BC010895282FBF
:102A800035EB2303C001112497FF04C0805891093E
:102A9000892F089580589F4FFBCF80918F0280FF30
:102AA0000DC06091280170E0660F771F60387105D6
:102AB00070F56115710569F1862F089581FF07C0D2
:102AC0006091280184E0689FB0011124EFCF6091EC
:102AD000280182FD0AC080918E028823A9F02091EE
:102AE000270160912801821710F088E0ECCF869FC3
:102AF000C001112433E0880F991F3A95E1F7622F46
:102B000070E00E944B29D2CF68E070E0D5CF8FE70C
:102B1000089581E0089580918F0280FF0CC060913C
:102B2000240170E075956795759567956115710538
:102B300049F1862F089581FF06C06091240170E05D
:102B400075956795F3CF6091240182FD0BC090913C
:102B50008D029923A1F060912301809124019617A1
:102B600038F0682F70E06038710500F38FE7089542
:102B7000899FC001112470E00E944B29F4CF61E0CD
:102B800070E0D7CF81E008958D3C31F40E944D155F
:102B900081958093930208958E3C19F40E944D15FF
:102BA000F8CF8F3C31F40E944D15819580939202AD
:102BB0000895803D19F40E944D15F8CF893D29F400
:102BC0000E948B158093940208958A3D21F40E94FF
:102BD0008B158195F7CF8B3D31F40E948B15819534
:102BE0008093950208958C3D19F40E948B15F8CFBF
:102BF0009FE2980F983070F4815D990B21E030E0EE
:102C000001C0220F8A95EAF780919102822B80936E
:102C1000910208958D3D31F480918F0281608093FF
:102C20008F0208958E3D21F480918F028260F7CF4C
:102C30008F3DB9F780918F028460F1CF409192026D
:102C40008D3C59F48091930287FF0DC0109293023E
:102C500041110BC010928E0208C08E3C81F480910D
:102C6000930218169CF3442381F080919402909172
:102C70009502892B09F05AC010928D0208958F3C5D
:102C800049F447FFF0CF1092920280919302811194
:102C9000ECCFE0CF803D19F41416ACF3E4CF909163
:102CA0009402893D29F41916F4F610929402DBCFB0
:102CB0008A3D19F497FFD7CFF8CF909195028B3DBD
:102CC00029F497FFD0CF10929502CDCF8C3D19F407
:102CD0001916CCF3C8CF9FE2980F983090F4815D1D
:102CE000990B21E030E0B90102C0660F771F8A9589
:102CF000E2F7CB0180959091910289238093910214
:102D0000B2CF8D3D31F480918F028E7F80938F0200
:102D1000AACF8E3D21F480918F028D7FF7CF8F3D1A
:102D200009F0A1CF80918F028B7FF0CF08950E9490
:102D300064209C019091920280919302982B21F043
:102D400030938C0220938B02909194028091950293
:102D5000982B21F030938A022093890280E992E037
:102D60000E94E51E089586E0E0E9F2E0DF011D9291
:102D70008A95E9F710928E0210928D0210928F02BE
:102D80000895FC01828181110EC0838181110BC0E5
:102D90008481811108C091E08581811101C090E09A
:102DA000892F8170089581E0FCCFA6E0B0E0EBEDC3
:102DB000F6E10C94742986E0E0E9F2E0DE01119678
:102DC00001900D928A95E1F710929202109293026F
:102DD00010929402109295028B819C81892B89F02C
:102DE00080918B0290918C020E947C20AC0190918A
:102DF0008E029923C9F1809129018417150608F4E0
:102E000040C08D819E81892B91F0809189029091A3
:102E10008A020E947C20AC0190918D02992309F4D2
:102E20006AC0809125018417150608F472C0BE019E
:102E30006F5F7F4F80E992E00E94921F811105C071
:102E400080E992E00E94C11681110E94971686E0E7
:102E5000FE013196A0E9B2E001900D928A95E1F76A
:102E60002696E3E00C94902920912A018AE0289F7D
:102E7000900111242417350720F69F5F90938E024E
:102E800002C09F3FD1F71B81112359F00E944D15BD
:102E90009FEF11160CF491E0899F802D11248093EF
:102EA00092021C81112359F00E944D159FEF1116BB
:102EB0000CF491E0899F802D1124809393028091DE
:102EC0009202882309F49DCF10919302112309F4F3
:102ED00098CF0E943F15882351F080939202812F52
:102EE0000E943F15882329F0809393028ACF81E0C6
:102EF000F4CF81E0F9CF209126018AE0289F90014C
:102F000011242417350708F092CF9F5F90938D020C
:102F100002C09F3FD1F71D81112359F00E948B15EC
:102F20009FEF11160CF491E0899F802D112480935E
:102F300094021E81112359F00E948B159FEF1116E8
:102F40000CF491E0899F802D11248093950280914B
:102F50009402882309F46BCF10919502112309F490
:102F600066CF0E943F15882351F080939402812FF1
:102F70000E943F15882329F08093950258CF81E065
:102F8000F4CF81E0F9CFEF92FF920F931F93CF938D
:102F9000DF93EB01E82FD1110EC0442321F0F0E0C4
:102FA000E452FD4FE4916E2F7E2F8E2FCDB7DEB70A
:102FB000E6E00C948D290D2F10E0282F30E04423FB
:102FC00029F024523D4FF901249130E0F6E0CF9FE3
:102FD000C0011124EFEFF0E0BF010E943729AB01DF
:102FE0008C2F90E0880F991FA5E5A49FB001A59FA5
:102FF000700D1124861B970B982F990F980FBF0106
:10300000601B710B629FD001639FB00D729FB00D6A
:1030100011248B2F9D9FB0011124672F7727EF017B
:10302000C61BD70BBE01629FE001639FD00D729F4C
:10303000D00D11247F01E91AF108E09EB001E19E54
:10304000700DF09E700D1124672F7727E61BF70B8C
:10305000E29F8001E39F100DF29F100D1124E12FDC
:10306000722F4230510599F048F44115510569F02D
:103070004130510581F0EB2F8D2F07C044305105B1
:1030800069F080F046305105B1F76E2F8FCFE22FF7
:103090007B2F812FFACFE22F7D2FF7CFEB2F822FBF
:1030A000712FF3CF7B2F822FED2FEFCF41E00E94C6
:1030B000C31708950E9456180895CF93DF93762F73
:1030C000E901682F842F0E945A18798368838A83C4
:1030D000DF91CF9108958091D102982F9E7F39F48E
:1030E0008091D102817082608093D10208958430F2
:1030F000B8F70895B0E0A0E0E0E8F8E10C946F299B
:1031000088E090E00E94F0296B017C0184E290E06D
:103110000E94E829282F30E040E050E060E070E0B5
:1031200080E090E000E20E949C29B22FA32FF42FB0
:10313000E52FD62FC72F97018601BC29A12BFE2989
:103140005E2F532B2B2F3A2F4F2F6D2F7C2FCDB768
:10315000DEB7E8E00C948B29B0E0A0E0E2EBF8E108
:103160000C946B2949015A016B017C010E946B1878
:103170008401A4016A2D7B2D88E090E00E941E2A24
:1031800094014A2D5B2DB601C70100E20E94B729C8
:10319000622F84E290E00E940C2ACDB7DEB7ECE00B
:1031A0000C948729E1EDF2E083E0808311828FEFB8
:1031B000828383831482A7E9B2E012968C911297DE
:1031C000836012968C93758123E030E04FEF5FEFC0
:1031D00060E0868197810E94AC1808959091D50295
:1031E000933018F49F5F9093D502882391F020913B
:1031F000D1023091D2024091D3025091D402609119
:10320000D5027091D6028091D7029091D8020E9487
:10321000AC18089581E00E94EE1808959091D502AF
:10322000992319F091509093D502882391F0209121
:10323000D1023091D2024091D3025091D4026091D8
:10324000D5027091D6028091D7029091D8020E9447
:10325000AC18089581E00E940E19089570E00E9454
:10326000801B089560912C018091D10280FF0BC0DA
:1032700080912B0123E0829FC001112487529D4F32
:103280000E942E19089580912D0190912E0123E026
:10329000829FF0011124E752FD4F891748F71182F0
:1032A000108212828F5F3396F8CFE1EDF2E0208139
:1032B0002E7F208331814281538164817581868193
:1032C00097810E94AC18E7E9F2E0828181608283F5
:1032D0000E9432190895E1EDF2E080818E7F8083B3
:1032E000E7E9F2E08281816082830E9432190895C9
:1032F0009091D10290FF0EC090912D0120912E014E
:1033000033E0939FF0011124E752FD4F921718F01C
:103310000E94321908958183608342839F5F3396B0
:10332000F5CFA3E0B0E0E7E9F9E10C947129F82EBC
:10333000062F142FE22E8091D10280FF3FC0909182
:10334000D2029F1108C09091D302961304C09091AD
:10335000D402941729F09091990292609093990267
:10336000E82FE695F0E0E754FE4F908190939702A6
:103370008E7F823069F49E012F5F3F4F412F602F77
:103380008F2D0E945D184B8169818A810E94781976
:10339000F092D2020093D3021093D402EE2071F087
:1033A0002091D1026091D5027091D6023F2DA801E3
:1033B0008091D7029091D8020E94AC182396E6E043
:1033C0000C948D29E1EDF2E09181282F43816281F7
:1033D00088E0890F0E949119089581E00E94E21906
:1033E0000895E1EDF2E09181282F4381628188EF19
:1033F000890F0E949119089581E00E94F1190895A2
:10340000E1EDF2E0628121E1620F08F46FEF282F15
:10341000438181810E949119089581E00E94001AE0
:103420000895E1EDF2E0628121E1621B08F460E0C1
:10343000282F438181810E949119089581E00E9483
:10344000111A0895E1EDF2E0438121E1420F08F401
:103450004FEF282F628181810E949119089581E0A8
:103460000E94221A0895E1EDF2E0438121E1421B1E
:1034700008F440E0282F628181810E94911908950B
:1034800081E00E94331A089520E00E949119089566
:103490002091D10220FF23C0217022602093D1020D
:1034A00080919902816080939902662381F0309126
:1034B000D2024091D3025091D4026091D502709112
:1034C000D6028091D7029091D8020E94AC18409108
:1034D000D4026091D3028091D2020E94441A0895CE
:1034E000682F81E00E94481A089581E00E94701AB6
:1034F0000895682F9091D10296958FEF890F09F466
:1035000081E00E94481A089581E00E94791A089586
:1035100061E00E94481A0895E1EDF2E08081816047
:10352000808386950E94881A08958091D10280FF39
:1035300003C00E94551908950E948C1A089560E0F6
:103540000E94481A089580919602811141C00E94FC
:10355000230D811104C00E94C10D0E94D2180E9447
:103560007A182093D1023093D2024093D302509321
:10357000D4026093D5027093D6028093D7029093C1
:10358000D802809199028360809399022E7FA1F4E2
:103590000E94D2180E947A182093D1023093D2024E
:1035A0004093D3025093D4026093D5027093D60215
:1035B0008093D7029093D8020E946B188091D10219
:1035C00080FF03C086950E949F1A81E08093960237
:1035D000089510929902089528E0E1EDF2E0DC01EF
:1035E00001900D922A95E1F720919702309198026F
:1035F00040919902FC0120873187428708951F93EB
:10360000CF93DF93EC01162F8A8580FF0CC0888151
:1036100080FF16C08091D10281608093D1028881A1
:1036200086950E94481A8A8581FF06C0212F4B810A
:103630006A8189810E949119DF91CF911F9108952C
:103640000E946B19F0CFFA01811101C0FB010995AD
:1036500008951F93CF93DF93EC01FB0115811111A6
:1036600010C00E94220C8272FE01E052F847E53140
:10367000F10508F043C0E25BF54D0C945F290E9410
:10368000951A812FDF91CF911F91089544E85AE157
:1036900065E77AE10E94231BF4CF45E75AE164E82D
:1036A0007AE1F8CF4CEF59E16DEE79E1F3CF4DEED1
:1036B00059E16CEF79E1EECF4EE15AE16DE07AE14C
:1036C000E9CF4DE05AE16EE17AE1E4CF40E45AE11E
:1036D0006FE27AE1DFCF4FE25AE160E47AE1DACFDC
:1036E0004AE259E16AE079E1D5CF4AE059E16AE27C
:1036F00079E1D0CF81E00E94881AC3CF11E0C1CF19
:10370000539A4BB1477F5BB15860EFB7F8949B0178
:10371000220F331F260F371F280F391F281739078D
:1037200041F4EFBF8FE594E00197F1F700C000008E
:103730000895DC016D91CD0178E05BB9000000C017
:1037400067FF4BB9660F000000C000C000C04BB956
:1037500000C07A9591F7E2CF0895FC01680F791FB8
:103760008FEF91E3E617F70709F408952191822777
:1037700028E030E087FF06C0880F892721503109F3
:10378000C9F7F0CF880FFACFCF93DF93EC01FB019D
:103790008581882309F4D2C09E0130572332310538
:1037A00008F0B2C00E94380D9093BA028093B9021B
:1037B000FE01E150F047E232F10520F4ED59F54DFC
:1037C0000C945F298091B90281608093B90293C003
:1037D0008091BA0288608093BA028DC08091B9024C
:1037E0008260F3CF8091B9028460EFCF8091B902FB
:1037F0008860EBCF8091BA028160EDCF8091BA02F0
:103800008260E9CF8091B9028061DFCF8091B902F7
:103810008062DBCF8091B9028064D7CF0E948F078E
:103820008091B9028068D1CF8091B9028C60CDCFF0
:103830008091BA028360CFCF8091B9028E7FC5CFCD
:103840008091BA02877FC7CF8091B9028D7FBDCFAB
:103850008091B9028B7FB9CF8091B902877FB5CFB4
:103860008091BA028E7FB7CF8091BA028D7FB3CF9D
:103870008091B9028F7EA9CF8091B9028F7DA5CFAB
:103880008091B9028F7BA1CF0E948F078091B902EE
:103890008F779BCF8091B902837F97CF8091BA02B7
:1038A0008C7F99CF8091B90282FB992790F921E012
:1038B000922790FB82F990FB83F987CF8091BA021F
:1038C000982F909591708E7F892B90FB81F983CFF3
:1038D0009091B902892F8F7B96FF806476CF0E94EA
:1038E0008F079091B902892F97FB87F980586DCF88
:1038F00081E00E94C40D8091B9029091BA020E94A9
:103900003D0D0E948F0780E0DF91CF91089580E008
:10391000F0CF9091B902892F8F7E94FF806155CFAF
:103920009091B902892F8E7F90FF81604ECF909148
:10393000BA02892F877F93FF88604DCF81E0E4CF63
:103940008B3109F465C040F58B3071F078F4863026
:1039500009F447C020F4853059F180E0089587309C
:1039600009F448C08830C9F781E00895803109F42E
:103970005DC068F48E3089F790915602892F8B7F55
:1039800092FF84608093560282FD4CC0EDCF863159
:1039900059F3893149F3E1CF8A3201F160F487327A
:1039A000B1F020F48E31C8F28D514CC08932A9F6A5
:1039B0000E943703D9CF833440F48A3308F041C0E2
:1039C000853329F0883381F2C8CF833431F681E022
:1039D00090E00E94DC070E948F07C6CF0E94C10DB5
:1039E000C3CF80915602807F8093560281E08093FE
:1039F0009D02089590915602892F8E7F90FF8160DD
:103A00008093560280FDB0CF817F80935602ACCF69
:103A100090915602892F8D7F91FF8260809356028C
:103A200081FFA2CF809156028160EFCF9091560224
:103A3000892F877F93FF88608093560283FDF2CFA2
:103A400093CF895321E030E0A90102C0440F551FF4
:103A50008A95E2F7CA01BDCF80E008950E942C1D2F
:103A60000895CF93C82F80919D028130B9F08823AB
:103A700031F08230A1F110929D0280E00DC00E94D1
:103A8000220C8232D1F78C2F0E942C1D81111BC079
:103A90008C2F0E94A01C8170CF9108950E94220C4F
:103AA000823289F38C2F0E942E1D81110AC0C431ED
:103AB00099F060F4CB3029F0C03169F782E080934F
:103AC0009D0281E0E8CF81E090E0E5CFC93221F0AE
:103AD000C833B9F380E0DFCF10929D02FBCFC9322B
:103AE00009F440C0F0F4C431E9F1A8F481E0C73032
:103AF00099F680932A0184E1809329018AE08093DA
:103B000028018EE18093270188E08093240188E2D8
:103B10008093230104C082EE8C0F8A3070F181E023
:103B2000BBCFC03509F450C0B8F48AE0CF34B9F740
:103B3000E0919A02F0919B02309789F32081082E40
:103B4000000C990B820F911D8F3F910509F00CF429
:103B50003FC08FEF8083E3CFC135C1F181E0C23533
:103B600039F39ACF80919C028823C9F210929C026B
:103B700010929B0210929A02D2CFCD51C0939C0218
:103B8000C330C9F048F4C13099F089E291E0C23005
:103B900051F010929C02C3CFC53099F078F083E2C7
:103BA00091E0C630B1F790939B0280939A02B7CF11
:103BB0008AE291E0F8CF88E291E0F5CF87E291E0E8
:103BC000F2CF84E291E0EFCF86EFB2CF8FEFB0CFAC
:103BD00097FFC0CF1082A3CFCF93DF93EB01863145
:103BE0009C4711F50E94220C9D81992399F08A7AB5
:103BF00091E009F490E090939E02811109C089E25E
:103C00000E94FA0B0E947B0C80E0DF91CF91089517
:103C100085E3F6CF80919E02811104C089E20E9463
:103C2000020CF0CF85E3FBCF81E0EFCF0F931F9322
:103C3000CF93DF93C42FD22FFC0185818823C9F055
:103C40004093A1020E9464209093A00280939F025F
:103C500080E28C0F883040F4C77081E001C0880F8B
:103C6000CA95EAF70E943B05DF91CF911F910F9112
:103C700008951091A102141332C080919F02909177
:103C8000A0020E947C20883C910548F5C0E2CD0F3F
:103C90001D17B9F080E2810F883040F4177081E081
:103CA00001C0880F1A95EAF70E944205C83048F40F
:103CB00081E09D2F977001C0880F9A95EAF70E94C6
:103CC0003B05802F0E943205C83070F6D77081E026
:103CD00001C0880FDA95EAF70E944205C5CF80E25D
:103CE0008C0F883008F6C77081E001C0880FCA9534
:103CF000EAF7F2CF0F93DB0188519C47873091059B
:103D0000A0F5FC01EB57F54D0C945F2906E221EE7E
:103D100041EE6AE17CE7CD010E94161E80E00F9122
:103D2000089507E225EE45EE6BE17CE7F4CF06E26D
:103D300021EE40EE68E17CE7EECF07E225EE44EEAF
:103D400069E17CE7E8CF06E221EE42EE6CE17CE738
:103D5000E2CF07E225EE46EE6DE17CE7DCCF08E23C
:103D600021E045EE6EE17CE7D6CF15968C91882355
:103D700019F01092A102D3CF81E0D1CF9093A80285
:103D80008093A70208950E94CF12811103C08091F1
:103D9000A2020895E091A702F091A802309729F0BD
:103DA0000190F081E02D0995089580E008950E942A
:103DB000C31E0895E091A702F091A802309721F068
:103DC0000280F381E02D09950895E091A702F0911A
:103DD000A802309739F022E0DC012C930480F581B1
:103DE000E02D09950895A3E0B0E0E9EFFEE10C9421
:103DF00075292091A5023091A60228173907A1F054
:103E00009093A6028093A502E091A702F091A802E8
:103E1000309751F023E029839B838A830680F781C2
:103E2000E02DCE01019609952396E2E00C949129AC
:103E3000A3E0B0E0EEE1FFE10C9475292091A3022C
:103E40003091A40228173907A1F09093A40280931F
:103E5000A302E091A702F091A802309751F024E06C
:103E600029839B838A830680F781E02DCE0101960A
:103E700009952396E2E00C9491299C012E5F3F4F17
:103E8000AC01485F5F4F80E02417350709F40895BF
:103E9000F90191919F019923B9F38F5FF5CF6623C3
:103EA00049F0FC01329608962191261729F0E8176F
:103EB000F907D1F780E0089581E008959C01FC01A5
:103EC00032969FEF80E04191461751F09F3F19F4E1
:103ED000411101C0982F8F5F8630A9F79F3F09F4E9
:103EE0000895290F311D97FD3A95F90162830895D0
:103EF000FC01329608962191261303C0DF01119729
:103F00001C92E817F907B9F708950E945E1F0895FB
:103F10000E94781F0895029626E0FC0111922A95CE
:103F2000E9F70895DC01FB0111969C9111978181BD
:103F3000981322C012968C911297882319F09281BF
:103F400089131AC013968C911397882319F09381C3
:103F5000891312C015968C911597882319F09581B5
:103F600089130AC014969C91992321F081E0248141
:103F7000291303C080E001C081E081700895089595
:103F80000E94BF1F0895811106C081E08093A9029D
:103F90000E94C01F089582E0F9CF83E08093A902B8
:103FA0000E94C01F08950E94C31F089581E080935E
:103FB000A9020E94C01F08950E94D61F0895089567
:103FC00008950E94E01F0895089508950E94DF1F3C
:103FD0000895CF930E94E41F0E9453120E94E51F90
:103FE000C0E08C2F0E942C11811105C0CF5FCA3018
:103FF000C1F7CF91089581E0FCCF85B7806885BF78
:1040000085B7806885BF08951F921FB61F9211243F
:104010008F939F93AF93BF938091AA02811113C096
:104020008091030390910403A0910503B0910603CE
:104030004196A11DB11D8093030390930403A093A7
:104040000503B0930603BF91AF919F918F911F908D
:104050001FBE1F90189580910B03843031F10E9490
:104060009D031092AA0288E190E020E40FB6F89434
:10407000A895809360000FBE2093600083B7817F76
:10408000846083BF83B7816083BF7894889583B74A
:104090008E7F83BF0FB6F894A895809160008861E9
:1040A00080936000109260000FBE08950E948F07F9
:1040B0000E94A203089582E084BD93E095BD9AEF2B
:1040C00097BD80936E0008952FB7F89480910303F5
:1040D00090910403A0910503B09106032FBF0895AA
:1040E0002FB7F89460910303709104038091050346
:1040F000909106032FBF08959C014FB7F8948091CB
:10410000030390910403A0910503B09106034FBFF0
:10411000821B930B0895CF92DF92EF92FF922FB7FD
:10412000F894C0900303D0900403E0900503F0904E
:1041300006032FBFA7019601261B370B480B590B0F
:10414000CA01B901FF90EF90DF90CF900895789465
:104150001F921FB61F9211248F939F93AF93BF930B
:104160008091030390910403A0910503B09106038D
:104170000196A11DB11D8093030390930403A093A6
:104180000503B0930603BF91AF919F918F911F904C
:104190001FBE1F90189587E797E7909301088093BB
:1041A000000888E19AE00FB6F894A8958093600023
:1041B0000FBE90936000FFCF88E19AE00FB6F894AD
:1041C000A895809360000FBE90936000FFCF8EE1B2
:1041D000489B02C08150E1F7489BFECF0895589854
:1041E00080E28A95F1F7589A0895FC013BE03A95F0
:1041F000F1F798E020E080E031E040E14A95F1F706
:10420000880F489B02C08160232742E04A95F1F75E
:10421000000040E14A95F1F7915079F790E19A95C5
:10422000F1F799B132E03A95F1F7000040E14A9593
:10423000F1F7917092272081920F90830895A1E069
:10424000B0E0E5E2F1E20C94712919828C017C0165
:10425000E60EF11C0E151F0541F481E099819111C4
:1042600080E02196E6E00C948D290E94E720CE01A3
:1042700001960E94F520F80181938F01EBCF509AAF
:10428000589A08955098589AE89AE9E6F0E08081A3
:104290008C7F808308956150770B91E001C0990F66
:1042A0006A95EAF720E031E0911108C0222391F0ED
:1042B000589A80E28A95F1F758980895492F482333
:1042C00039F0589A232740E24A95F1F79695ECCFBA
:1042D0005898F9CF5898EDCFFF920F931F93CF9333
:1042E000DF93EC018C01060F111DC017D10729F4D3
:1042F000CDB7DEB7E5E00C948E29F9900E94EF204F
:1043000068E08F2D0E944B21F0CF1F920F920FB6C5
:104310000F9211240F931F932F933F934F935F930B
:104320006F937F938F939F93AF93BF93EF93FF937D
:10433000CF93DF930F92CDB7DEB719820E94E720AB
:10434000CE0101960E94F520082F06950695069548
:10435000282F22952570902F9570290F922F9370FA
:1043600026952695920F982797708981982B09F0AA
:104370005CC0053008F059C080E18A95F1F7589A81
:10438000509A82E08A95F1F700C0589888E0089F1B
:1043900080011124D801AD5FBE4F1696ED91FC91BE
:1043A00017973097A9F06091B7017091B8011496F2
:1043B0002D913C911597260F371F11968D919C9149
:1043C0001297680F791F13964C9113978C9109954A
:1043D000F801ED5FFE4F6381662351F02091B70134
:1043E0003091B80184819581820F931F0E946C21C6
:1043F0000E94EF2080E18A95F1F758985098589ADA
:1044000080E18A95F1F7F801ED5FFE4F6081662348
:1044100051F02091B7013091B80181819281820FD2
:10442000931F0E941F210E94E7200F90DF91CF91E0
:10443000FF91EF91BF91AF919F918F917F916F917C
:104440005F914F913F912F911F910F910F900FBE50
:104450000F901F9018950F931F93CF93DF93EC014C
:1044600005970CF04CC0F894509A589885E08A95BE
:10447000F1F700009C2F969595708C2F8570980F02
:10448000892F83709695969523E0CC0FDD1F2A9592
:10449000E1F7980F8E01092B0E94EF2000C068E021
:1044A000802F0E944B2180E18A95F1F75098589A0D
:1044B000489B1EC087E090E048991CC0FE01ED5F5C
:1044C000FE4F63816623F9F02091B7013091B80166
:1044D00084819581820F931F0E941F21811113C037
:1044E000509A589A7894DF91CF911F910F91089527
:1044F00000C0DECF019729F4509A589A789480E052
:10450000F2CF00C0D9CF0E94E72080E28A95F1F770
:104510005898509A80E18A95F1F7CD5FDE4F688117
:10452000662351F02091B7013091B80189819A81B9
:10453000820F931F0E946C210E94EF20789481E0EB
:10454000D2CF8091B30208959B01BA0190910B03E1
:104550009430E9F48F708093E9009FEF8091E80038
:10456000915085FD06C085ED8A95F1F70000911107
:10457000F5CF8091E80085FF0AC050E040E0C90116
:104580000E949E248091E8008E778093E800089531
:1045900043E050E0BC0182E00E94A422089546E07E
:1045A00050E0BC0182E00E94A4220895CF93DF93E3
:1045B000EC0148E050E0BC0181E00E94A42288E0C8
:1045C000FE01ABEAB2E001900D928A95E1F7DF912E
:1045D000CF91089580910A03811109C00E942E266F
:1045E0000E948B268091E20084608093E20008950F
:1045F00010920A0308950E94D61F08956091070340
:1046000081E0611101C080E00E94CD1F089590916A
:104610000B0381E0943009F080E0609107030E9471
:10462000D31F089542E061EC81E00E94AA2542E296
:1046300061EC82E00E94AA2590910B0381E0943006
:1046400009F080E0609107030E94C31F08958091E4
:104650000D03833009F461C030F48130D1F1823030
:1046600009F49EC008958A3009F48AC08B3009F499
:104670006FC0893009F050C080910C03813209F07D
:104680004BC08091100390911103029708F044C031
:104690008091E800877F8093E8008091E80082FFA6
:1046A00037C09091F3008091F200029731F480912D
:1046B000F100813011F0863021F48091F100809377
:1046C000B3028091E8008B778093E8000E94DE259A
:1046D00023C080910C03813AF9F48091E800877F30
:1046E0008093E8008091100390911103892B61F46D
:1046F00068E08BEA92E070E00E94ED248091E8008F
:104700008B778093E800089560E090E080E0F3CF3D
:1047100080910B038111C1CF089580910C03813AE0
:10472000D9F78091100390911103892BA9F78091FB
:10473000E800877F8093E8008091E80080FFFCCF4D
:10474000809138018093F1008091E8008E77BCCF92
:1047500080910C03813201F7809110039091110335
:10476000892BD1F68091E800877F8093E8000E9432
:10477000DE2580910E03809338010E948F070895F3
:1047800080910C03813241F68091E800877F80930D
:10479000E8000E94DE2580910F038093B402089503
:1047A00080910C03813A09F0B7CF8091E800877FB0
:1047B0008093E8008091E80080FFFCCF8091B402F4
:1047C000C1CF84B7877F84BF0FB6F894A895809136
:1047D0006000886180936000109260000FBE80E8E6
:1047E00090E00FB6F89480936100909361000FBE43
:1047F0000E94DC1F08950E942E260E948B26E2EE66
:10480000F0E080818460808378940E940A29089572
:1048100080E391E00E94BE1E089580910B038530D5
:1048200031F480910B03853019F00E9456200895D1
:104830000E942B2080910903882399F30E94E91F8D
:10484000882379F30E9488240E948F07EACF089575
:104850009A0140911203509113030E94302408954D
:10486000492F55274330510519F168F4413051055E
:1048700009F444C04230510509F445C090E080E09D
:1048800050E040E025C04132510549F14232510526
:10489000A9F784E490E04CEC54E061157105C1F097
:1048A0008BE790E041E554E06130710589F0E6CF97
:1048B00099278130910581F0009729F00297F1F650
:1048C000ECEDF3E002C0E0E0F4E0849190E0AF01B1
:1048D000F901518340830895EAEEF3E0F6CF89E0D1
:1048E00090E046E154E06115710591F389E090E0B4
:1048F0004FE254E06130710559F3C0CF82E190E09E
:104900004FE354E0E5CF8BE390E044E054E0E0CFA8
:1049100080E189BD82E189BD09B400FEFDCF8091AF
:10492000D8008F7D8093D8008091E00082608093D2
:10493000E0008091E00081FDFCCF0895AF92BF922E
:10494000CF92DF92FF920F931F93CF93DF936C016F
:10495000EB018A010E94FD25F82E811123C001156B
:10496000110539F0F80180819181C81BD90BC80E5F
:10497000D91EB12CA12C2097A9F08091E80085FDCB
:1049800022C08091E8008E778093E8000115110520
:10499000A1F0F80180819181A80EB91EB182A08298
:1049A00085E0F82E8F2DDF91CF911F910F91FF9011
:1049B000DF90CF90BF90AF9008950E94FD2588238F
:1049C000D1F2F82EEFCFF60181916F018093F100C3
:1049D0002197FFEFAF1ABF0ACECFFC0180911203DF
:1049E0009091130386179707A0F06115710529F4BC
:1049F0009091E8009E779093E80090E06115710532
:104A000051F4911108C08091E80082FF34C080E029
:104A10000895BC01F2CF80910B038823C1F185304A
:104A2000C1F18091E80083FD30C08091E80082FDF3
:104A3000EACF8091E80080FFE1CF8091F3002091E0
:104A4000F200382F6115710519F02830310558F042
:104A500091E02830310509F090E02091E8002E77B0
:104A60002093E800CBCF81918093F10061507109D0
:104A70002F5F3F4FE7CF80910B03882341F08530B4
:104A800041F08091E80083FFBECF81E0089582E08D
:104A9000089583E00895FC0180911203909113031F
:104AA00086179707A0F06115710529F48091E80039
:104AB0008E778093E80090E06115710551F49111B3
:104AC00008C08091E80082FF35C080E00895BC01F5
:104AD000F2CF80910B038823C9F18530C9F1809111
:104AE000E80083FD31C08091E80082FDEACF80912B
:104AF000E80080FFE1CF8091F3002091F200382F91
:104B00006115710519F02830310558F091E0283011
:104B1000310509F090E08091E8008E778093E800FD
:104B2000CBCF84918093F1003196615071092F5F52
:104B30003F4FE6CF80910B03882341F0853041F051
:104B40008091E80083FFBDCF81E0089582E0089561
:104B500083E00895982F973028F08F708093E900B4
:104B600081E008959093E900242F762F50E0981764
:104B700031F07091EC002091ED005091F00021FD9A
:104B800002C09F5FE8CF3091EB003E7F3093EB0097
:104B90003091ED003D7F3093ED003091EB003160BE
:104BA0003093EB007093EC002093ED005093F000F5
:104BB0002091EE0027FDE5CF80E0089580910C0361
:104BC00087FF13C08091E80082FF06C08091E80053
:104BD0008B778093E80004C080910B038111F2CFA2
:104BE000089580910B038823D9F38091E80080FF1A
:104BF000F8CF8091E8008E77ECCF2091E4003091DF
:104C0000E50095E6A9012091EC00822F817020FF3C
:104C100006C08091E80080FF06C080E008952091E2
:104C2000E80022FD1AC080910B03882389F08530AB
:104C300089F08091EB0085FD0FC02091E400309158
:104C4000E50042175307F9F29150E1F684E0089528
:104C500082E0089583E0089581E008950E949D26F2
:104C60000E94A526E0EEF0E0808181608083E8ED7F
:104C7000F0E080818F77808319BCA7EDB0E08C9144
:104C80008E7F8C9380818F7E808310920A0308959B
:104C90000F931F93CF93DF930E949D260E94A5261A
:104CA000C8EDD0E088818F77888388818068888389
:104CB00088818F7D888319BC10920B0310920703A3
:104CC000109209031092080300EE10E0F8018081B1
:104CD0008B7F808388818160888342E060E080E010
:104CE0000E94AA25E1EEF0E080818E7F8083E2EED3
:104CF000F0E0808181608083808188608083F8011A
:104D000080818E7F8083888180618883DF91CF91CD
:104D10001F910F910895E8EDF0E080818F7E8083F0
:104D2000E7EDF0E080818160808384E082BF81E0F4
:104D300080930A030E9448260895E8EDF0E0808100
:104D40008E7F80831092E20008951092DA00109214
:104D5000E10008951F920F920FB60F9211242F9326
:104D60003F934F935F936F937F938F939F93AF93F3
:104D7000BF93EF93FF938091E10082FF0BC080917E
:104D8000E20082FF07C08091E1008B7F8093E10009
:104D90000E9409298091DA0080FF19C08091D80013
:104DA00080FF15C08091DA008E7F8093DA008091B9
:104DB000D90080FF96C080E189BD82E189BD09B438
:104DC00000FEFDCF81E080930B030E94EA228091D8
:104DD000E10080FF19C08091E20080FF15C0809142
:104DE000E2008E7F8093E2008091E20080618093F8
:104DF000E2008091D80080628093D80019BC85E0E1
:104E000080930B030E94FE228091E10084FF2BC05F
:104E10008091E20084FF27C080E189BD82E189BDE5
:104E200089B5982F917080FFFBCF8091D8008F7D3E
:104E30008093D8008091E1008F7E8093E100809183
:104E4000E2008F7E8093E2008091E2008160809397
:104E5000E20080910703882309F449C084E080932D
:104E60000B030E9407238091E10083FF29C08091FA
:104E7000E20083FF25C08091E100877F8093E100FD
:104E800082E080930B03109207038091E1008E7FF4
:104E90008093E1008091E2008E7F8093E200809118
:104EA000E20080618093E20042E060E080E00E94E6
:104EB000AA258091F00088608093F0000E94FB2278
:104EC000FF91EF91BF91AF919F918F917F916F91E2
:104ED0005F914F913F912F910F900FBE0F901F90B8
:104EE000189519BC10920B030E94F82270CF809184
:104EF000E30087FD93E090930B03B3CF1F920F92D3
:104F00000FB60F9211242F933F934F935F936F939C
:104F10007F938F939F93AF93BF93CF93DF93EF9341
:104F2000FF93D091E900DF708091EC00C82FC17031
:104F300080FDC0E81092E9008091F000877F8093A7
:104F4000F00078940E94C2271092E9008091F0004E
:104F500088608093F000CD2BCF70C093E900FF9163
:104F6000EF91DF91CF91BF91AF919F918F917F9101
:104F70006F915F914F913F912F910F900FBE0F90C6
:104F80001F901895AAE2B0E0E8ECF7E20C947429BF
:104F90008CE093E02091F100FC012193CF01F3E03C
:104FA00084319F07B9F70E9427238091E80083FF8F
:104FB0001EC180910C0390910D039A3008F017C127
:104FC000E92FF0E0E457F54D0C945F29803899F013
:104FD000823809F00CC1809110038F70873008F07F
:104FE00006C18093E9008091EB0085FB882780F95A
:104FF0001092E90006C08091080390910903911175
:1050000082609091E800977F9093E8008093F10090
:105010001092F1008091E8008E77E5C0882309F4B2
:10502000D3C0823009F0E3C080910E038111D6C055
:10503000809110038F702FEF280F263008F0D7C013
:105040008093E9002091EB0020FFC8C0933031F439
:105050008091EB0080628093EB00C0C09091EB00E8
:1050600090619093EB0021E030E001C0220F8A951F
:10507000EAF72093EA001092EA008091EB00886042
:10508000EACF8111B4C010910E031F778091E30025
:105090008078812B8093E3008091E800877F809364
:1050A000E8000E94DE258091E80080FFFCCF80911F
:1050B000E30080688093E30082E0111183E0809335
:1050C0000B0395C08058823008F091C080910E0388
:1050D00090910F038C3D23E09207A1F583E08A8332
:1050E0008AE289834FB7F894DE01139620E03EE010
:1050F00051E2E32FF0E050935700E49120FF03C00A
:10510000E295EF703F5FEF708E2F90E0EA30C0F0D5
:10511000C7968D939D932F5F243159F74FBF809190
:10512000E800877F8093E8006AE270E0CE01019694
:105130000E94ED248091E8008B778093E80057C0AF
:10514000C096E7CF6091100370911103AE014F5FDD
:105150005F4F0E942824BC01892B09F448C090911C
:10516000E800977F9093E80089819A810E944B25FF
:10517000E1CF8038E1F58091E800877F8093E800F7
:10518000809107038093F10045CF811130C0909149
:105190000E03923060F58091E800877F8093E800ED
:1051A000909307030E94DE2580910703882311F066
:1051B00084E005C08091E30087FDFACF81E0809311
:1051C0000B030E94122313C080910E03813079F4E7
:1051D00081E0933009F080E0809309031092E900A8
:1051E0008091E800877F8093E8000E94DE2580910F
:1051F000E80083FF0AC08091E800877F8093E80081
:105200008091EB0080628093EB00AA96E3E00C941F
:1052100090290895CF9380910B038823A1F0C0912A
:10522000E900CF709091EC00892F817090FD80E8AB
:10523000C82B1092E9008091E80083FD0E94C227EC
:10524000CF70C093E900CF9108950E942E2610924E
:105250000B030895E8EDF0E08081806180838AE1AE
:105260008A95F1F700C08091D90081700895AA1B3A
:10527000BB1B51E107C0AA1FBB1FA617B70710F041
:10528000A61BB70B881F991F5A95A9F78095909573
:10529000BC01CD01089597FB072E16F4009407D0AA
:1052A00077FD09D00E94372907FC05D03EF4909580
:1052B00081959F4F0895709561957F4F0895EE0FEA
:1052C000FF1F0590F491E02D09942F923F924F9289
:1052D0005F926F927F928F929F92AF92BF92CF9286
:1052E000DF92EF92FF920F931F93CF93DF93CDB78F
:1052F000DEB7CA1BDB0B0FB6F894DEBF0FBECDBF07
:1053000009942A88398848885F846E847D848C84D7
:105310009B84AA84B984C884DF80EE80FD800C81E0
:105320001B81AA81B981CE0FD11D0FB6F894DEBFC3
:105330000FBECDBFED010895002E083090F0982FDC
:10534000872F762F652F542F432F322F2227085077
:10535000F4CF220F331F441F551F661F771F881F6E
:10536000991F0A95B2F7002D089597FD1094002E0D
:10537000083098F00850232F342F452F562F672FD1
:10538000782F892F912DF4CF159497958795779540
:10539000679557954795379527950A95AAF711244C
:1053A000002D0895FB01DC0104C08D91019080194E
:1053B00021F441505040C8F7881B990B0895FB0118
:1053C000DC0102C001900D9241505040D8F7089581
:1053D000F999FECF92BD81BDF89A992780B50895BD
:1053E000A6E1B0E044E050E00C94322AA8E1B0E03D
:1053F00042E050E00C94322ADC01A40FB51F41506A
:10540000504048F0CB01840F951F2E910E940D2A29
:1054100041505040D0F70895262FF999FECF92BD04
:1054200081BDF89A019700B4021639F01FBA20BD69
:105430000FB6F894FA9AF99A0FBE08950396272F9B
:105440000E940D2A0E940C2A252F0E940D2A242F2B
:105450000C940D2A0196272F0E940D2A0C940C2AD9
:10546000DC01CB01FC01F999FECF06C0F2BDE1BD24
:10547000F89A319600B40D9241505040B8F7089513
:10548000F894FFCF88058805D805D8053D0659064C
:10549000B705B7055E06CF06DE06DE063F1B461BD8
:1054A0004D1B521B571B5C1B611B661B6B1B701B30
:1054B000751B7A1B411B411B411B411B411B411B9F
:1054C000411B411B411B1C1C901C241CEE1BF21B8E
:1054D000281CF61B2C1C381C021C891C061C3C1C9E
:1054E0000A1C401C681C0E1C441C6F1C141C4A1C0B
:1054F000521CFA1B301CFE1B341C181C4E1C5E1C5C
:10550000781C871CE81B201C971C971E9D1E861E5E
:10551000911EA31EA91EAF1EE6270E28F7280E28EF
:0C552000F72841286228F728B928C52880
:10552C00380201000000010000000000000005012D
:10553C0000000004060000000000000B0A00000040
:10554C00000000280850011E0A1401000E000E0E67
:10555C00A122D622CF22C82201E200E900EA00B53E
:10556C0000B600B700CD008301CC008A01920194F3
:10557C00012102230224022502260227022A02B359
:10558C0000B4006F0070009F01CB019F02A002814C
:10559C008283E200E900EA00B500B600B700CD0056
:1055AC008301CC008A01920194012102230224027E
:1055BC002502260227022A02B300B4006F007000F5
:1055CC009F01CB019F02A002818283F5F6F7313354
:0C55DC0032369497C634355F020001009F
:00000001FF
