:100000000C9433030C940E280C9450030C9450035E
:100010000C9450030C9450030C9450030C94500314
:100020000C9450030C9450030C943A2D0C940E2E07
:100030000C948D260C9450030C9450030C94500394
:100040000C9450030C9450030C9450030C945003E4
:100050000C9450030C9430270C9450030C945003D0
:100060000C9450030C9450030C9450030C945003C4
:100070000C9450030C9450030C9450030C945003B4
:100080000C9450030C9450030C9450030C945003A4
:100090000C9450030C9450030C9450030C94500394
:1000A0000C9450030C9450030C94500335421E00E2
:1000B0001F0020002100220026022B0014001A003D
:1000C0000800150017002F00294104001600070042
:1000D00009000A002700E1001D001B0006001900AE
:1000E0000500AA00E000040156005524E3002A00A0
:1000F0004C002D4227002600250024002300270263
:100100002E00130012000C0018001C0030003400F8
:1001100033000F000E000D000B0021022F003800ED
:100120003700360010001100A9004F0052005100A6
:100130005000322D2C00280001003A003B003C000A
:100140003D003E00440001001F021F022F0201007B
:10015000310201000100200221022F003000350091
:1001600001000100220223022602270235020100BB
:100170000100010001000100010001000100000078
:1001800043004200410040003F00450000003000B5
:10019000270226022F002F00010030024F005200DC
:1001A000510050002F020100000058005B005A006F
:1001B0005900000001000401580063006200620061
:1001C0000100010001000100010001000100010027
:1001D000010000000000CD000000D9000000010077
:1001E0000000CF00CE00D000DA00000001000000C7
:1001F00000000000000000000000010000000000FE
:1002000000000000D100D200010001000100010047
:1002100001000100010001000000000000000000DA
:10022000000000000100000000004F0052005100DB
:10023000500000000000000000000000000000006E
:1002400001000000000000000000000001000100AB
:1002500000003A003B003C003D003E0023780000D7
:10026000007C2B78207821782478000000000000A2
:10027000000000000000000001000000000000007D
:10028000000000000000000000000000000000006E
:100290000000000000000000430042004100400058
:1002A0003F00267800000000000027782878257895
:1002B000000000000000000000000000000001003D
:1002C000000000000000000000000000000000002E
:1002D0000000000000000000000000001E0F0500EC
:1002E000047F3F1F643214643214783C1E1E140ACB
:1002F000052223252628292A2C2D2F303233353666
:10030000383A3B3D3E4042434547494A4C4E5051A6
:10031000535557595A5C5E6062646668696B6D6FCD
:1003200071737577797B7D7F81838587898A8C8ED0
:1003300090929496989A9C9E9FA1A3A5A7A8AAACD8
:10034000AEAFB1B3B4B6B8B9BBBCBEBFC1C2C3C512
:10035000C6C7C9CACBCCCDCED0D1D2D2D3D4D5D6B4
:10036000D7D7D8D9D9DADADBDBDBDCDCDCDCDCDDE7
:10037000DDDDDDDCDCDCDCDCDBDBDBDADAD9D9D8CB
:10038000D7D7D6D5D4D3D2D2D1D0CECDCCCBCAC963
:10039000C7C6C5C3C2C1BFBEBCBBB9B8B6B4B3B192
:1003A000AFAEACAAA8A7A5A3A19F9E9C9A9896942D
:1003B00092908E8C8A89878583817F7D7B79777502
:1003C00073716F6D6B6968666462605E5C5A5957E1
:1003D000555351504E4C4A4947454342403E3D3BA0
:1003E0003A3836353332302F2D2C2A29282625232A
:1003F00022FFAA7F55400001010101010101010115
:1004000002020202020202020203030303030303C5
:100410000304040404040404050505050506060692
:100420000606070707070708080808090909090A4F
:100430000A0A0B0B0B0C0C0C0D0D0D0E0E0E0F0FF4
:100440000F10101111111212131314141515161682
:100450001717181819191A1A1B1B1C1D1D1E1E1FF1
:100460002020212222232424252626272829292A40
:100470002B2C2D2D2E2F3031323233343536373868
:10048000393A3B3C3D3E3F40414243444546474864
:10049000494A4C4D4E4F50515354555658595A5B3A
:1004A0005D5E5F616264656668696B6C6D6F7072DA
:1004B000737577787A7B7D7E8082838587888A8C46
:1004C0008E8F91939596989A9C9EA0A2A3A5A7A97A
:1004D000ABADAFB1B3B5B7BABCBEC0C2C4C6C9CB71
:1004E000CDCFD1D4D6D8DBDDDFE2E4E7E9EBEEF027
:1004F000F3F5F8FAFDFF0C035200650064006F008D
:10050000780000001403460061006C006200610086
:100510007400650063006800000004030904090218
:100520003B00020100A0FA090400000103010100E0
:10053000092111010001224400070581030800017F
:10054000090401000103000000092111010001223A
:10055000B60007058203200001120100020000001E
:1005600008444D445200010102000105010902A1A5
:100570000185020901A100050919012908150025B5
:1005800001950875018102050109300931158125A0
:100590007F95027508810609381581257F950175BB
:1005A000088106050C0A38021581257F950175081A
:1005B0008106C0C005010980A101850319012AB780
:1005C00000150126B700950175108100C0050C09C2
:1005D00001A101850419012AA002150126A0029596
:1005E0000175108100C005010906A10185060507F6
:1005F00019E029E715002501950875018102050715
:10060000190029EF1500250195F0750181020508F3
:10061000190129059505750191029501750391014F
:10062000C005010906A101050719E029E715002504
:100630000195087501810295017508810105071969
:100640000029FF150026FF009506750881000508A2
:1006500019012905150025019505750191029501DE
:1006600075039101C00011241FBECFEFDAE0DEBF99
:10067000CDBF11E0A0E0B1E0E4EBF4E602C00590EC
:100680000D92AC3FB107D9F723E0ACEFB1E001C068
:100690001D92A73EB207E1F70E94FF150C94C531E9
:1006A0000C9400008430B8F46A30A8F4473098F411
:1006B00050E097E0699F400D511D1124FA0196E426
:1006C000899FE00DF11D1124EE0FFF1FE455FF4F30
:1006D00085919491089581E090E008950E945203DD
:1006E000089581E008950E947103089581E00895BE
:1006F0000E94710308950E947803089508950E944E
:100700007E030895A6E0B0E0E8E8F3E00C947130D1
:1007100049835A839E833091030289819A813111E2
:100720001AC03E81332399F0222389F00E94970951
:10073000182F682F89819A810E94730969817A81B3
:10074000812F0E94AA102696E3E00C948D300E941F
:100750008509182FF3CF0E94970969817A81F1CF1B
:10076000FC01262F408151816281738184819581B2
:100770000E9482030895CF93DF93EC0161E00E9411
:10078000B003BE010E947303DF91CF910895CF9310
:10079000DF93EC0160E00E94B003BE010E947F0382
:1007A000DF91CF91089581E008950E94D3030895C9
:1007B000CF93C82F0E9448088C2F0E94D5032FEF9B
:1007C00084E39CE0215080409040E1F700C00000AD
:1007D000CF91089581E00E94D8030E945427089584
:1007E00080E00E94D8030E94652708950F931F930D
:1007F000CF93DF938C0161E00E94B003EC01F8011C
:10080000858181110E94341EB801CE010E947B03B4
:10081000811106C080E0DF91CF911F910F91089563
:10082000B801CE010E9457248823A1F3B801CE015C
:100830000E948120882371F3B801CE010E945720C5
:10084000882341F3B801CE010E94531E882311F37F
:10085000F8018581882361F0C330FCE7DF07E9F008
:1008600058F4C115ECE7DE07A9F0C130DC47B9F058
:10087000C8010E947603CFCFCB358CE7D807A9F00B
:10088000CC35ECE7DE0771F0CA35DC4789F70E940A
:10089000DE0DEECF0E94EA03BDCF0E94E60D0E945E
:1008A000F003B8CF0E94D40DE3CF0E94E20DE0CF59
:1008B0000E946A260E947F0408950E9483040E9479
:1008C0006F260895089581E008950895CF93DF93EA
:1008D000D82F0E946304C82F882319F08D2F0E94FF
:1008E00065048C2FDF91CF9108950895CF93C82F81
:1008F0000E9462048C2F0E946604CF91089580E0CC
:100900000E94760408950E94A0240E94760408950F
:10091000CF930E94A024C82F8091FE018C1779F0FC
:10092000C093FE010E94F9266093FF0170930002BC
:1009300080930102909302028C2F0E947604CF9143
:100940000895ADE0B0E0E7EAF4E00C947230488737
:1009500059876A877B878C879D8791110E94E40C59
:100960001F8286E0FE013896DE01119601900D92FD
:100970008A95E1F78D8181110DC029813A814B81E2
:100980005C816D817E818F810E942E0C2D96E2E02C
:100990000C948E30CE0101960E94BB038111EDCFE5
:1009A000F5CFFC012481213021F4808191810E94C6
:1009B000C9090895662329F00E94E2210E94C722F6
:1009C00008950E944E22FACFCF93C82F8823C9F0F2
:1009D0008238C9F40E94B42481FD13C089E30E94C7
:1009E000D3250E94780D2FEF87EE93E021508040B1
:1009F0009040E1F700C0000089E30E94EA250E94D0
:100A0000780DCF9108958338A1F40E94B42480FD1D
:100A1000F8CF83E50E94D3250E94780D2FEF81EE59
:100A200094E0215080409040E1F700C0000083E551
:100A3000E4CF8438A1F40E94B42482FDE2CF87E49D
:100A40000E94D3250E94780D2FEF81EE94E0215073
:100A500080409040E1F700C0000087E4CECF8CEFEB
:100A60008C0F813A98F48C2F0E94841F8111C9CF7A
:100A70008C2F0E944A25882329F08C2F0E94EA257A
:100A80000E94780D8C2F0E94D325B9CF80E28C0F65
:100A9000883048F4C77081E001C0880FCA95EAF732
:100AA0000E94C70CACCFEBE5EC0FE33040F4F0E074
:100AB000EB57FE4F808190E00E94DE24A2CFE8E554
:100AC000EC0FEB3150F4F0E0EE0FFF1FE15BFE4F57
:100AD000808191810E94032594CF83E38C0F833121
:100AE00008F08FCF61E08C2F0E94DA048ACF882330
:100AF00009F456C0823879F40E94B42481FF50C0B2
:100B000089E30E94D3250E94780D89E30E94EA259B
:100B10000E94780D0895833859F40E94B42480FF10
:100B20003FC083E50E94D3250E94780D83E5EECF78
:100B3000843859F40E94B42482FF32C087E40E94B2
:100B4000D3250E94780D87E4E1CF9CEF980F913A6E
:100B5000E8F290E2980F983050F4877091E001C06D
:100B6000990F8A95EAF7892F0E94CD0CD1CF9BE58A
:100B7000980F933028F490E080E00E94DE240895DE
:100B800098E5980F9B3128F490E080E00E940325BF
:100B9000089593E3980F933118F460E00E94DA040B
:100BA00008951F93CF93DF93182FEB010E94E40465
:100BB000209739F4812F0E947705DF91CF911F9103
:100BC00008958FE99FE00197F1F700C00000219799
:100BD000EFCF70E060E0893311F460E570E00E94CF
:100BE000D1050895882321F00E94C70C0E94780D3A
:100BF0000895882321F00E94CD0C0E94780D08955D
:100C0000B0E0A0E0E6E0F6E00C946B306C01D62F8B
:100C1000C72FFC011581068102950F700E94BD0C43
:100C2000E82E8823F9F0E12E1123E1F08C2F807F4C
:100C3000803461F080E28D0F883008F18C2F807E47
:100C4000803221F4D230D8F00023C9F0809189039A
:100C500082FF15C082E00E94A80D0E94BD0C91E0A9
:100C6000E82EE926BC2EB2949FE0B922FBE0FB15EA
:100C7000B8F1EB2DF0E0E953FE4C0C942B30E12C55
:100C8000F1CF0C2F0F70C07F11F00295007F112360
:100C900099F0002359F080E28D0F883010F0D111C7
:100CA00007C0802F0E94C70C0E94780D8D2F5AC05C
:100CB000802F0E94D70CF8CF8D2F0E94770500233C
:100CC00079F080E28D0F883010F0D11104C0802FB0
:100CD0000E94CD0C03C0802F0E94DD0C0E94780D75
:100CE000EB2DE850FF0B349720F40E94A0240E94C3
:100CF0007604EE2089F00E94B90C80FD0DC0F6014B
:100D000015820E94B30C0E94D108C6010E940F08F0
:100D10000E94B30C0E94E108CDB7DEB7E9E00C9465
:100D200087302C2F2F70F22EC07FC03219F0F29432
:100D300080EFF822DD2341F0D130D1F1112309F405
:100D400044C00023F1F0B2CF8091890382FD15C029
:100D5000112359F0FF2029F08F2D0E94C70C0E940B
:100D6000780D80E00E94E404BBCF80E00E9477050C
:100D7000FF2009F4B5CF8F2DABCF112369F00111FE
:100D800004C08F2D0E94F205ABCF013009F0A8CF2F
:100D90008F2D0E94FB0CA4CF0111A2CF8F2D0E949A
:100DA000F9058F2D0E94070D8F2D0E94EB0C98CF17
:100DB000112321F0063008F093CFE3CF053008F07F
:100DC0008FCF8F2D0E94F9058BCF0023D1F3D9331C
:100DD00049F43FEF87EE93E0315080409040E1F7D7
:100DE00000C000008D2F0E9477057ACF8C2F86954A
:100DF0008695837069F0813009F072CF8D2F9C2F1A
:100E00009370111102C080E090E00E94032568CF2A
:100E10008D2F9C2F9370111102C080E090E00E94F2
:100E2000DE245ECF612F8D2F0E94DA0459CF8C2FE4
:100E30008370A1F5111154CF4D2F429546954770FF
:100E4000440F440F2D2F2F7030E0042E02C0220FCC
:100E5000331F0A94E2F790E080E0D4FF09C08FE0EE
:100E600090E002C0880F991F4A95E2F7809590950F
:100E7000C695C695C370822B932BC23049F058F4A7
:100E8000C13019F00E94A1082BCF0E94980828CFEA
:100E90000E94AA0825CF0E94950822CF869511238B
:100EA00011F08C2F8170882309F41ACF4D2F4295B1
:100EB00046954770440F440F2D2F2F7030E0042EBD
:100EC00002C0220F331F0A94E2F790E080E0D4FFC3
:100ED00009C08FE090E002C0880F991F4A95E2F7A1
:100EE00080959095C695C695C370822B932BC23082
:100EF00049F058F4C13019F00E940C09F1CE0E945B
:100F00000309EECE0E941509EBCE0E94B908E8CE87
:100F1000CF70112329F08C2F0E94D1088D2F32CF52
:100F20008D2F0E94F9058C2F0E94E108D9CED23F67
:100F300041F160F4D03FB9F0D13F81F0112309F4C1
:100F400046C00111B3CE8C2F8F711FC0D33F01F16A
:100F5000D43FA1F78091890382FD24C08C2F8F712B
:100F6000112311F312C0112341F0053008F0B8CE5F
:100F70008C2F8F710E94F308B3CE063008F0B0CEEC
:100F8000F7CF8C2F8F711111CFCF0E94D108A8CE2F
:100F9000112329F08C2F8F710E94C508A1CE0E94C9
:100FA000C0089ECE112349F0CF718C2F0E94D1082A
:100FB00063E08C2F0E948A0D93CE81E00E94A80DE1
:100FC000023008F48DCE82E00E94A80D89CE002365
:100FD00059F0D93309F006CFEFEFF7EE23E0E150F7
:100FE000F0402040E1F7FCCE8C2F8F719DCF0F9306
:100FF0001F93CF93DF93EC01688179818D810E94EB
:10100000D4098C010E941E090E949408B801CE01E7
:101010000E940006DF91CF911F910F910895CF9309
:10102000DF93EC018C81882399F0CE010E94F603B6
:10103000811111C00E94BD0C882351F08D8188233D
:1010400039F08091890382FF03C082E00E94A80DDD
:10105000DF91CF910895CE010E94F707CE010E9443
:10106000C703F6CF90E080E00E94DE2490E080E0AD
:101070000E9403250E94E40C0E94780D0E94E32246
:101080000E94C72208950E9401260E9432080895F6
:101090000E94D40C0E944308089592959F70963048
:1010A00091F058F4925F9F70923058F4803F19F09D
:1010B00030F4883E30F481E008959A5FF4CF843FA5
:1010C000D1F380E00895883EB0F3813FD1F7F3CFAC
:1010D000FC012481222339F0808191810E94C90979
:1010E0000E944D08089580E00895A6E0B0E0EBE787
:1010F000F8E00C9472302696E2E00C948E30A7E073
:10110000B0E0E5E8F8E00C9472302796E2E00C9449
:101110008E3008950E94890808950E948A0890934D
:101120002B0280932A02089508950E948D08089545
:1011300020912A0230912B02822B932B0E948D0842
:10114000089520912A0230912B02822393230E943A
:101150008D08089520912A0230912B02822793272F
:101160000E948D0808950E94890808950E94B3087E
:1011700008950E94B608909329028093280208954A
:1011800090E080E00E94B908089521E030E0A901D4
:1011900002C0440F551F8A95E2F7CA010E94B908A0
:1011A000089521E030E002C0220F331F8A95E2F754
:1011B0008091280290912902822B932B0E94B908DA
:1011C000089521E030E002C0220F331F8A95E2F734
:1011D00020953095809128029091290282239323B3
:1011E0000E94B908089521E030E002C0220F331FA9
:1011F0008A95E2F78091280290912902822793270D
:101200000E94B90808952091280230912902822B6A
:10121000932B0E94B9080895209128023091290249
:10122000822393230E94B9080895209128023091C7
:101230002902822793270E94B90808950895262F2E
:10124000277091E001C0990F2A95EAF723E076957F
:1012500067952A95E1F7660F771F660F771FFA01EA
:10126000E60FF71F50E040E0682F70E08191DF014A
:1012700011979B01042E02C0369527950A94E2F738
:10128000217021952827292328272C934F5F5F4F12
:101290004430510559F70895A82FA77023E096957B
:1012A00087952A95E1F7880F991F880F991FFB01F1
:1012B000E80FF91F50E040E080E0219130E00A2E75
:1012C00002C0369527950A94E2F721703327042E41
:1012D00001C0220F0A94EAF7822B4F5F5F4F443020
:1012E000510559F70895262F9A3070F4873060F42D
:1012F000682F70E087E0989F600D711D112444E015
:1013000052E0822F0E941F090895292F9A3068F415
:10131000873058F490E064E072E037E0239F800D5E
:10132000911D11240E944C09089580E00895B0E0B9
:10133000A0E0EDE9F9E00C946B307C01009128020B
:101340001091290280912A0290912B02082B192BCF
:10135000CFE0D0E0CC24C394D12CBC2EC6010C2EFF
:1013600002C0880F991F0A94E2F780239123892BEA
:1013700049F4219790F7B12C8B2DCDB7DEB7E9E07A
:101380000C948730B7018C2F0E94B610019789F317
:10139000F3CFCF93DF93EC010E949709BE010E9427
:1013A000B610DF91CF9108951F93CF93DF93EB0198
:1013B00090910302992339F0CB010E94C909DF9172
:1013C000CF911F910895882369F0CB010E9497095E
:1013D000182F682FCE010E947309BE01812F0E9431
:1013E000B610EDCFCB010E948509182FF6CF1F93C1
:1013F000CF93DF93C0912C0217E080912D028C13C4
:1014000004C0DF91CF911F910895D0E01C9FF0019F
:101410001D9FF00D1124E25DFD4F2081318142813D
:1014200053816481758186810E947F082196C770EF
:10143000E4CF20916602309167024091680250919A
:10144000690260916A0270916B0280916C020E9445
:101450007F080895CF93DF9380916C02807F09F01D
:101460004DC080916B02882309F448C0E0912C02A2
:1014700050912D02C0916702D0916602609168027E
:101480007091690247E05E17C9F18E2F90E0E49FEA
:10149000F0011124E25DFD4F2481222391F1489F48
:1014A000F001499FF00D1124DF01A25DBD4F11969F
:1014B0002C9111972C1325C02C912D1322C0159619
:1014C0002C91159721111DC012962D913C91261B30
:1014D000370B283C3105A8F480916C028F70806135
:1014E00080936C02EC5CFD4F80818F708061808303
:1014F00086E692E00E940F080E94F709DF91CF91E3
:101500000895FC013196E770BECF482F20912C0240
:1015100090912D0257E0291302C080E0089530E039
:10152000529FF001539FF00D1124E25DFD4F818128
:10153000681306C08081481303C085818111EECFF6
:101540002F5F3F4F2770E7CFA4E1B0E0EAEAFAE06F
:101550000C9468308C0186E0F801DE011F96019042
:101560000D928A95E1F7F8018481E58096E6A92E2F
:1015700092E0B92E90916A0291111FC08823D1F098
:10158000EE20A9F0C8010E946808F82E882379F09F
:1015900087E0F801D50101900D928A95E1F7C50128
:1015A0000E94D1040E942A0A0E94190A5FC0C80141
:1015B0000E940F08FF24F39459C0C080D18082801C
:1015C0009380F0906B022091680230916902A4012F
:1015D000421B530BFF2009F4F9C0483C510508F0A9
:1015E000A7C0882309F442C09091670280916C02E1
:1015F000282F207F09F05CC09D1116C090916602D3
:10160000C91212C0E1104EC08F70806180936C02CD
:101610000E94190A86E692E00E940F0880916C02EF
:10162000F8018683F12C22C0E1103CC06D2D8C2D79
:101630000E94850A6D2D8C2D0E94850AE82E81114D
:10164000F1CFCF86D88A8F8598890E94C909292F22
:1016500022952F70243078F49F702230A8F09923BF
:10166000B9F0F8019681907F99F4FE2C8F2D649645
:10167000ECE00C9484302A5F2F70223068F0C801AF
:101680000E940F08EF2CF1CF992311F0882369F302
:10169000805E883050F3F3CF803F38F3815F833032
:1016A00070F7E3CF80916C02816080936C02BACFB7
:1016B0009D1113C090916602C9120FC0E1100DC0B8
:1016C0008683C8010E940F0887E0F801A6E6B2E011
:1016D00001900D928A95E1F767CFC8010E946808D2
:1016E000882309F464CFEE2009F461CF80916C0265
:1016F000803288F02091660230916702398728870E
:101700009B868A8690916A029C871D868E87CE0171
:1017100008960E940F0887E0F801A6E6B2E0019063
:101720000D928A95E1F70E942A0A0E94190A42CF77
:1017300090916C02292F207FA1F4682D9A8A898AC2
:10174000A6017A899E2D0E94750886E692E00E9485
:101750000F0887E0F50111928A95E9F70E94190AAE
:1017600061CF882309F482CF809167028D1110C068
:1017700080916602C8120CC0E1100AC09683C801AD
:101780000E940F0887E0F50111928A95E9F76ECF64
:10179000C8010E946808882309F409CFEE2009F4E3
:1017A00006CF80916C02803208F4B5CF209166029A
:1017B000309167023A8329839C828B8290916A02DE
:1017C0009D831E828F83CE010196A3CF483C510595
:1017D000B8F5882309F4EECEFE2CEE2009F4E7CE0E
:1017E000809167028D111EC080916602C8121AC0D6
:1017F00080916C0280FD0DC0982F907F51F0868300
:10180000903F09F45ECF982F907F905F8F70892B67
:1018100057CF87E0F801A6E6B2E001900D928A95D5
:10182000E1F724CFC8010E946808811174CF80912C
:101830006C02816080936C02C8010E940F0816CF71
:10184000682D9A8A898AA6017A899E2D0E94750838
:1018500087E0F50111928A95E9F7A6CEAEE0B0E0F7
:10186000E4E3FCE00C947130288739874A875B8772
:101870006C877D878E87CE0108960E94A40A8823F4
:10188000B1F06C85662341F0288539854A855B85F2
:101890007D858E850E947F0817E080912C029091B3
:1018A0002D0289133DC02E96E3E00C948D3087E025
:1018B000FE013896DE01119601900D928A95E1F7AE
:1018C0008C85882349F320912D0230E0C9010196CF
:1018D0008770992740912C024817190699F097E0D4
:1018E000929FD001939FB00D1124A25DBD4FFE01C8
:1018F000319601900D929A95E1F780932D020E9406
:10190000F709CACF0E94480810922D0210922C02AB
:1019100087E0E6E6F2E0DF011D928A95E9F7BCCFA9
:10192000819FC0011124825D9D4F0E94A40A8823DB
:1019300009F4B9CFE0912C021E9FF0011124E25D61
:10194000FD4F20813181428153816481758186817F
:101950000E947F0880912C0290E001968770992761
:1019600080932C029ACF80919502869586958695D4
:1019700008958091950287700895909195029770CF
:1019800081E009F480E008958091C102089590916A
:10199000C102892B8093C102089580959091C10264
:1019A00098239093C10208951092C10208959091D6
:1019B000C002892B8093C002089580959091C00247
:1019C00098239093C00208951092C002089508953C
:1019D0000E94E70C089590919602292F282331F058
:1019E00080958923809396020E94E80C08950895BB
:1019F0000E94F70C089590919702292F2823281709
:101A000029F0982B909397020E94F80C08959091DA
:101A10009702292F282331F08095892380939702FC
:101A20000E94F80C089580919702882329F0109263
:101A3000970280E00E94F80C0895CF93C091C102F4
:101A40008091C002C82B80919702882331F0C82B67
:101A50000E94282581110E94130D8C2FCF9108958B
:101A6000CF93DF93C0910601D09107010E941D0D15
:101A70008883C0910601D091070148E050E06DE8ED
:101A800072E0CE010E943831892B59F088E0FE01C6
:101A9000ADE8B2E001900D928A95E1F7CE010E9487
:101AA000B724DF91CF910895CF93DF93C0910401C4
:101AB000D09105010E941D0D8983C0910401D09130
:101AC000050140E250E06DE672E0CE010E9438313F
:101AD000892B59F080E2FE01ADE6B2E001900D9253
:101AE0008A95E1F7CE010E94C224DF91CF9108953B
:101AF00080914E01882339F08091880387FF03C0CD
:101B00000E94540D08950E94300D089508950E947A
:101B1000860D08959091890392FF11C098E0899FE6
:101B200090011124622B609395020E94D10880914C
:101B300095028695869586950E94870D08950E9448
:101B4000D10808951092950280E00E94870D0895B3
:101B5000909195028095892380939502282F277074
:101B600069F4891759F09091890392FF07C086950F
:101B7000869586950E94E1080E94A20D0895909195
:101B8000890392FB222720F9281769F080FB92F93C
:101B90009093890380918803909189030E94070E96
:101BA00082E00E94A80D08958091890382FB882716
:101BB00080F991E089270E94BF0D089581E00E947D
:101BC000BF0D089580E00E94BF0D08956FEF7FEF75
:101BD00090E080E00E949031089590E080E00E94C3
:101BE0005C3121E0863E9E4F09F020E0822F08956F
:101BF00082E090E00E944E31089583E090E00E94E0
:101C00004E31089584E090E00E945C310895BC015B
:101C100084E090E00E9490310895AB01BC018FE018
:101C200090E00E9484310895AB01BC0183E190E013
:101C30000E948431089560E070E0CB010E94140E90
:101C4000089560E070E0CB010E940D0E0E941B0E13
:101C50000895A8E0B0E0EFE2FEE00C94723066EE8A
:101C60007EEF90E080E00E94903160E082E090E0C2
:101C70000E94723181E090E090932B0280932A02BF
:101C800061E083E090E00E94723160E074E184E002
:101C900090E00E94903160E086E090E00E94723116
:101CA00060E087E090E00E94723140E050E0BA01CD
:101CB00088E090E00E94843160E084E290E00E943D
:101CC000723160E087E190E00E94723160E08CE068
:101CD00090E00E94723160E08DE090E00E947231ED
:101CE00019821A821B821C821D821E821F82188604
:101CF00048E050E068E170E0CE0101960E94623158
:101D000040E050E0BA0180E290E00E9484310E94FD
:101D1000210E2896E2E00C948E300E94290E089540
:101D2000682F8EE090E00E9472310895A6E0B0E046
:101D3000ECE9FEE00C9470300E94ED268C0180915D
:101D4000C2029091C3028017910781F019821A8212
:101D50000E94ED26682F49815A81792F80E090E01A
:101D60000E94A1041093C3020093C2022696E4E0ED
:101D70000C948C300E94D2116093D2027093D302E3
:101D80008093D4029093D5026093CE027093CF02D9
:101D90008093D0029093D1020895089508950E94EF
:101DA000CD0E089508950E94D20E089581E0089501
:101DB00087EF91E10E940C160E94CE0E0E94CF0E7A
:101DC00008950E94AE130895089508950E94E40EA8
:101DD0000E94E50E08950E94ED0D811102C00E943F
:101DE0008D0E0E94F80D8093D6020E94020E9093F1
:101DF0008903809388030E940F1F0E94FD0D90E0CD
:101E00000E94950880912802909129020E94B608AC
:101E100008950E94E4260E94AC110E94B4130E940F
:101E200005130E94EB0E0E9475040E943F200E9441
:101E3000EF1C0E94C6130E94D30E0895A6E0B0E0E6
:101E4000E4E2FFE00C9469300E94D60E81110EC0CE
:101E50000E94960E0E94AE130E94351E0E9405231A
:101E60000E9488042696EBE00C9485300E9428138B
:101E700084ECA82E82E0B82E750110E0F7010191E4
:101E80007F01812F0E9401121F5F1A3009F441C0A7
:101E90000817A1F38091D60281FD0E9407120E94CB
:101EA000E10EC82E10E099249394812F0E94011214
:101EB000082FF50181915F01081729F1F12CEE241B
:101EC000E394D02ED8268D2D8E21A9F0CC2099F028
:101ED000F9821A830E94ED269C838B839D8291E078
:101EE000802F8E2109F490E049815A816B817C8199
:101EF0008D810E94A104F394EE0CF7E0FF12E3CF72
:101F0000F501319700831F5F1A3079F60E94BA0EEF
:101F1000A1CF0813BFCF9CCF1F93CF93DF930E9415
:101F2000BB10EC01C11580E5D807F0F5C11580E4C0
:101F3000D80708F09CC0C03ED10520F5CD3CD105A6
:101F400008F082C0C83AD10578F4C53AD10508F046
:101F500073C0C130D10519F1209709F1C430D10502
:101F6000F0F4D0E0C0E01BC0C33CD105D0F7C85AA4
:101F7000D0E0CC0FDD1FC857DE4F0990D881C02DAF
:101F8000D4640DC0C11580E2D80708F0D1C0C115D6
:101F900081E0D80708F05AC0C83ED10510F7CE013D
:101FA000DF91CF911F910895C03682E5D80718F5CB
:101FB000C03482E5D80708F06BC0C03282E5D8078C
:101FC00008F05FC0C11582E5D80708F497C02C2F30
:101FD0002695269580E2289F900111248C2F8370EE
:101FE000C1E0D0E002C0CC0FDD1F8A95E2F7C22B22
:101FF000D32BDD68D4CFC03A82E5D80760F4C0386F
:1020000082E5D80708F459C0CF71D0E0DC2FCC2787
:10201000C46FD06AC4CFC03C82E5D80708F462C060
:10202000C03E82E5D80708F09CCFDC2FCC27CC2718
:10203000DF71C06FD06AB3CFC55AD0E0C254DE4F53
:10204000C881D0E0D064ABCFD065A9CF8D2F0E94DE
:102050005D11182FCE0199270E94BB10C12FD0E02F
:10206000DC2FCC27CC27DF71C82BD92B98CFCE0102
:1020700099270E94BB10CC27DF70C82BD92BD06AC0
:102080008ECFCF71D0E0DC2FCC27C16FD06A87CF45
:102090002C2F26952695277080E2289F90011124E9
:1020A0008C2F8370C1E0D0E002C0CC0FDD1F8A9579
:1020B000E2F7C22BD32BDC6872CF2C2F2695269506
:1020C000277080E2289F900111248C2F8370C1E03B
:1020D000D0E002C0CC0FDD1F8A95E2F7C22BD32BD4
:1020E000DA685DCF8C2F8F710E945D11C82FD0E010
:1020F000DC2FCC27CC27DF71D06251CF8C2F8F7192
:102100000E945D1155E0D695C7955A95E1F7CF70BD
:10211000D0E0DC2FCC27282F30E084FF05C044E03E
:10212000220F331F4A95E1F7C22BD32BD06937CF4B
:102130008D2F8F710E945D11182FCE0199270E945B
:10214000BB10C12FD0E0DC2FCC27CC27DF71C82BF0
:10215000D92BD2CF462F7A3030F4673020F4672F56
:102160000E946E03089590E080E008950E94AA10F6
:102170000E948C0F089582389105B9F1B0F4813333
:10218000910509F47DC048F48932910509F46DC0C8
:102190008A32910509F47BC008958533910509F4CD
:1021A0005FC08933910509F10895833E9105D9F106
:1021B00038F4803E910529F1823E910579F1089528
:1021C000863E9105D9F1873E910509F43EC0843ED3
:1021D000910541F52091890321FF24C08091880356
:1021E00084FD19C087EE90E0089520918803237044
:1021F00009F05AC02091890323FF14C089E290E0BE
:1022000008952091880320FD38C03091890330FF64
:1022100009C024FF43C090E080E008952091880326
:1022200022FDF7CF08952091880322FD3AC0309116
:10223000890330FD39C024FFF5CFEDCF209188030D
:1022400023FFF0CF24FDE7CFCDCF2091880323FDDE
:102250002EC03091890331FFEECF84EE90E00895D7
:102260002091880325FFDECFC9CF2091880325FD6B
:1022700021C02091890323FFD5CF89E390E0D2CFFD
:102280002091880326FFCECF8AE290E00895209126
:10229000880326FFC7CF81E390E0089583EE90E0A6
:1022A000089582EE90E0089580EE90E0089586EE25
:1022B00090E0089585E390E008959091880392FF5F
:1022C00010C041E0282F2471243009F040E031E0B3
:1022D000282F2871283009F030E0431711F02CE046
:1022E000822793FF10C041E0282F2471243109F088
:1022F00040E031E0282F2871283109F030E0431701
:1023000011F02CE082273091890330FF10C051E09A
:10231000282F2171213009F050E041E0282F287149
:10232000283009F040E0541711F029E0822731FFEE
:1023300010C041E0282F2171213109F040E031E047
:10234000282F2871283109F030E0431711F029E0D7
:10235000822794FD877E089510928A0310928B0342
:1023600010928C0310928D030895CF92DF92EF921A
:10237000FF926B017C010E94AE1381110EC00E947E
:10238000F926C61AD70AE80AF90AC0928A03D09237
:102390008B03E0928C03F0928D03FF90EF90DF901F
:1023A000CF9008950F931F930E94AE13882329F0B6
:1023B0000E94F9261F910F9108950E94F92600911D
:1023C0008A0310918B0320918C0330918D03600F51
:1023D000711F821F931FEECF0E94AE13882319F046
:1023E0000E94ED2608950E94D211CB01089580E04D
:1023F000089508950E94F911089508950E94FD110D
:102400000895E82FF0E0E756FC4F80810895089585
:1024100080EA8A95F1F7089500C008950E94081295
:10242000089508950E9411120895A5E0B0E0EBE12F
:10243000F2E10C946E300E94AE13F82E6091A3036B
:10244000882309F440C085E0E82E8E010F5F1F4FFE
:10245000F8018E2D11928A95E9F7862F90E0B80148
:1024600087569C4F0E94D4138823B9F080918E0325
:1024700090E045E050E0B80187569C4F0E9438310B
:1024800021E02093D702892B91F4F12C0E94FE11B8
:102490008F2D2596E6E00C948A308091D702882310
:1024A000A1F3F8011192EA94E9F71092D702A091F2
:1024B0008E03B0E0A756BC4F85E0F80101900D9265
:1024C0008A95E1F7E3CF70E067567C4F80918E03E9
:1024D00090E087569C4F0E945B140E941212D8CF46
:1024E000F894E82FE295EF70F0E031A1282F2F70DB
:1024F00081E090E001C0880F2A95EAF7982F909527
:10250000932391A392A1892B82A3789408950F938A
:102510001F93CF93DF93C8ECD1E089918F3F11F0E7
:102520000E94701281E0CD3CD807B9F7C1ECD1E030
:1025300008EC11E089918F3F11F00E9470120C1786
:102540001D07C1F7DF91CF911F910F910895B0E062
:10255000A0E0EDEAF2E10C946C30EC01D62E062FEF
:1025600010E0C80188539E4F7C01FC0180818F3FA1
:1025700009F444C0F894E82FE295EF70F0E091A1DF
:102580008F7021E030E001C0220F8A95EAF7892F91
:10259000822B81A382A12095282322A378940E94D4
:1025A0000C12E1ECF1E031E0C12C21912F3F59F107
:1025B000A22FA295AF70B0E090968C9190E02F7012
:1025C00002C0959587952A95E2F780FD1CC0832F60
:1025D000C82A330F81E0E83CF80739F7F70180811A
:1025E0008F3F11F00E94701261E0C11001C060E0E5
:1025F0008D2D0E940E12C00FD11FC882CDB7DEB73D
:10260000E8E00C94883080E0E3CF8091080180916D
:10261000080195E0811190E09093A30385E0891B68
:1026200080938E030E9487128AE0E9E9F3E0DF01DC
:10263000982F1D929A95E9F7EFE8F3E0DF011D92DC
:102640008A95E9F785E00E9466130E94FA110895C1
:10265000AAE0B0E0EEE2F3E10C946F308E010F5F80
:102660001F4F8AE0F80111928A95E9F7F12C6F2D3E
:10267000C8010E94A712F394F5E0FF12F8CF4AE0D8
:1026800050E0B8018FE893E00E94383121E00097D4
:1026900009F420E0892B41F08AE0F801AFE8B3E0CB
:1026A00001900D928A95E1F76091A30370E067565F
:1026B0007C4F45E08FE893E00E946713182F0E943B
:1026C0001512812B2A96E5E00C948B300895B0E02A
:1026D000A0E0EDE6F3E10C946C306C017B01042F7B
:1026E000C22F222379F081E08093DA020E94ED2646
:1026F0009093D9028093D80280E0CDB7DEB7E8E0AE
:102700000C948830D091DA02DD23B1F38091D802A5
:102710009091D9020E940527059770F310E0A80157
:10272000B601C7010E943831892B31F0A801B601EA
:10273000C7010E944531CD2F1092DA028C2FDDCFD8
:10274000CF930E94BA2FC82F811102C00E94B52FCB
:102750008C2FCF9108958091DE0208958091DD0243
:1027600008950E94AE1308950E94A0138093DD0285
:102770000E94B1138093DE020E94AB138093080184
:102780000E94AE1381110E940A1408950E94AE1394
:10279000811102C00E940D14089581E09091DF0222
:1027A0009A3008F080E008950F931F93CF93DF9342
:1027B000EC018B018091DF028A30B8F4B801CE01C0
:1027C0000E945814C82F811122C08091DF028F3FD0
:1027D000B9F40E94ED269093DC028093DB028C2FEB
:1027E000DF91CF911F910F9108958091DB0290911D
:1027F000DC020E940527843F914000F7C0E0EFCF44
:102800008F5F8093DF028A3020F7C1E0E8CF10921B
:10281000DF02E5CF0E94C82708950E94CB270895C4
:10282000B0E0A0E0E6E1F4E10C946D307901C82F4E
:10283000880FDD0B41155105A9F0FE0193E0EE0F65
:10284000FF1F9A95E1F7E75FFE4F818192818052E9
:102850009D4F208130E04217530708F49A01A901E7
:102860000E944531CE010E94B428D82E8823D1F091
:1028700001151105B9F083E0CC0FDD1F8A95E1F752
:10288000FE01E75FFE4F438150E00417150708F48F
:10289000A801C75FDE4F6C817D8160527D4FC7010B
:1028A0000E9445318D2DCDB7DEB7E7E00C9489301D
:1028B0000E94851508950E94A6150895A4E0B0E031
:1028C000E4E6F4E10C94703060910203709103032C
:1028D00080910403909105030E94142711E064364F
:1028E00071058105910518F10E94D2116E5F7F4F2D
:1028F0008F4F9F4F69837A838B839C8310E000E026
:1029000030E020E044E050E0BE016F5F7F4F82E0A6
:102910000E941014182F882351F00E94F92660930A
:102920000203709303038093040390930503812FA4
:102930002496E4E00C948C30B0E0A0E0E2EAF4E10C
:102940000C946A307C015B016A010E94CD1301E0A6
:1029500010E0882311F00AE010E0C1E0D0E0B501FA
:10296000C701F6010995811104C021960C171D07B6
:102970002CF4CDB7DEB7EAE00C948630CC9F900102
:10298000CD9F300D300D112490E080E045E34A9555
:10299000F1F70000019682179307C1F7E0CFABE093
:1029A000B0E0E5EDF4E10C947030CE0101960E94A8
:1029B0000C1C1B856091060370910703809108032E
:1029C000909109030E9414276436710581059105D1
:1029D00010F41123C1F010E000E030E020E04BE003
:1029E00050E0BE016F5F7F4F83E00E941014882388
:1029F00069F00E94F92660930603709307038093A1
:102A00000803909309030E94091C81E02B96E4E0DF
:102A10000C948C30A6E0B0E0E0E1F5E10C946A3073
:102A20007B01C090CD01D090CE0101E010E09E016D
:102A30002A5F3F4F50E040E070E060E080E00E949D
:102A40001014182F882309F448C056018FEFA81AD4
:102A5000B80A6091FE027091FF028091000390918C
:102A600001030E941427643671058105910568F100
:102A700005E010E09E012F5F3F4F50E040E070E026
:102A800060E081E00E941014D82E65E070E0C5017E
:102A90000E94402011E09E81981310E01D2141F119
:102AA0000E94F9266093FE027093FF028093000358
:102AB0009093010385E0FE013196A9EFB2E0019009
:102AC0000D928A95E1F711E013C065E070E0C50151
:102AD0000E9440209E818913CBCF85E0F60131967C
:102AE000DE01119601900D928A95E1F71111E2CF66
:102AF00085E0E9EFF2E0D70101900D928A95E1F7C8
:102B0000812F2696EAE00C9486300F931F93CF9383
:102B1000DF93EC018B014AE055E10E949C14811186
:102B200006C080E0DF91CF911F910F9108954EE58F
:102B300054E1B801CE010E949C14882391F34FEC1C
:102B400054E1B801CE010E949C14ECCFABE0B0E0A0
:102B5000ECEAF5E10C946C300091CD011091CE01BE
:102B6000C801019625E0FB01DC0101900D922A9538
:102B7000E1F765E070E00E944020F8018083668103
:102B8000778180859185C090F502D090F602E09023
:102B9000F702F090F8026C157D058E059F0551F047
:102BA0006093F5027093F6028093F7029093F80217
:102BB0000E94B5118BE0F8013A96DE011196019062
:102BC0000D928A95E1F7F801148A8B85882329F004
:102BD00060E0CE0101960E94301D2B96E8E00C9437
:102BE00088300E948B2A0E94090F0E94982A08951B
:102BF0000E949D2A0E941E0F0E94B72A08950E94DB
:102C000086260E94712A0E94D80E0E94F1150E9409
:102C1000F8150E94E60EFBCF9093FD018093FC0116
:102C20000895EF92FF920F931F93CF93DF93EB01E1
:102C3000E82FD1110EC0442321F0F0E0EA50FC4F00
:102C4000E4916E2F7E2F8E2FCDB7DEB7E6E00C9489
:102C50008A300D2F10E0282F30E0442329F02A502D
:102C60003C4FF901249130E0F6E0CF9FC0011124E0
:102C7000EFEFF0E0BF010E94E12FAB018C2F90E05D
:102C8000880F991FA5E5A49FB001A59F700D112481
:102C9000861B970B982F990F980FBF01601B710B24
:102CA000629FD001639FB00D729FB00D11248B2FD6
:102CB0009D9FB0011124672F7727EF01C61BD70B0B
:102CC000BE01629FE001639FD00D729FD00D112461
:102CD0007F01E91AF108E09EB001E19E700DF09EBF
:102CE000700D1124672F7727E61BF70BE29F8001F9
:102CF000E39F100DF29F100D1124E12F722F42302F
:102D0000510599F048F44115510569F041305105DC
:102D100081F0EB2F8D2F07C04430510569F080F012
:102D200046305105B1F76E2F8FCFE22F7B2F812FC9
:102D3000FACFE22F7D2FF7CFEB2F822F712FF3CF1A
:102D40007B2F822FED2FEFCF41E00E9411160895C7
:102D500008950E94A4160895CF93DF93762FE9017A
:102D6000682F842F0E94A916798368838A83DF9154
:102D7000CF9108958091A403982F9C7F29F48370AC
:102D800084608093A40308958C3AE8F38370886A82
:102D9000F8CFB0E0A0E0EFECF6E10C946C3088E006
:102DA00090E00E9456316B017C0184E290E00E9429
:102DB0004E31282F30E040E050E060E070E080E0ED
:102DC00090E000E20E949930B22FA32FF42FE52F5C
:102DD000D62FC72F97018601BC29A12BFE295E2F74
:102DE000532B2B2F3A2F4F2F6D2F7C2FCDB7DEB7C4
:102DF000E8E00C948830B0E0A0E0E1E0F7E10C946A
:102E0000683049015A016B017C010E94BA168401A5
:102E1000A4016A2D7B2D88E090E00E94843194010A
:102E20004A2D5B2DB601C70100E20E94B430622F2B
:102E300084E290E00E947231CDB7DEB7ECE00C94F2
:102E40008430E4EAF3E085E0808311828FEF8283AF
:102E500083831482ADE5B3E012968C911297836060
:102E600012968C93758125E030E04FEF5FEF60E0C4
:102E7000868197810E94FB1608958091A40380FFAC
:102E800003C086958695089580E008959091A803E3
:102E9000933018F49F5F9093A803882391F02091BA
:102EA000A4033091A5034091A6035091A70360911C
:102EB000A8037091A9038091AA039091AB030E948B
:102EC000FB16089581E00E94461708959091A8038B
:102ED000992319F091509093A803882391F02091A1
:102EE000A4033091A5034091A6035091A7036091DC
:102EF000A8037091A9038091AA039091AB030E944B
:102F0000FB16089581E00E946617089560912D01D7
:102F10008091A40380FF0FC070E080912C0123E01A
:102F2000829FC0011124E091FA01F091FB018455C8
:102F30009C4F0995089580912E0190912F0123E0D7
:102F4000829FF0011124E455FC4F891728F7118264
:102F5000108212828F5F3396F8CF9091A40390FF76
:102F60000EC090912E0120912F0133E0939FF0012C
:102F70001124E455FC4F921718F00E94861708950B
:102F80008183608342839F5F3396F5CFA3E0B0E0F7
:102F9000ECECF7E10C9472309091A40390FF0AC01E
:102FA0009E012F5F3F4F0E94AC164B8169818A8141
:102FB0000E94AD172396E2E00C948E30CF93DF93FE
:102FC000EC01EC81F0E0EF50FD4F4491E4EAF3E0D6
:102FD000628181810E94C6178C818F5F8C83DF9113
:102FE000CF910895CF93DF93EC01E4EAF3E04381BE
:102FF00062818C810E94C6178C818F5F8C83DF91E8
:10300000CF910895A3E0B0E0E8E0F8E10C947030CF
:103010008C0180910A0381110AC09E012F5F3F4FEE
:103020004FEF6FEF0E94AC168A8180930A03F8017C
:103030006481613069F080910A0340E0662361F0A9
:1030400040E0623011F440910A0380E060E004C087
:1030500060910A0340E080E00E94AD17F80184818E
:1030600090E0019663E070E00E94F52F8483239640
:10307000E4E00C948C30A3E0B0E0E1E4F8E10C94DF
:103080006B30082FE62EF42EC22E9091A40390FFF1
:1030900041C02091A503281308C08091A603861380
:1030A00004C08091A703841729F080915F03826098
:1030B00080935F03E92FE695E695AE2FB0E0A1532C
:1030C000BE4F8C9180935D039C7F943039F59E01B7
:1030D0002F5F3F4F4F2D6E2D802F0E94AC164B81DE
:1030E00069818A810E94AD170093A503E092A6032F
:1030F000F092A703CC2071F02091A4036091A80363
:103100007091A903302FA7018091AA039091AB037E
:103110000E94FB162396E9E00C948730823019F464
:10312000F090A703E1CF8630A1F1893091F1893188
:10313000D9F6E9516E2F6170B62EE695F0E0EF50AA
:10314000FC4F1491D12C60913001D61618F00E94DA
:103150008617CACFD19EC001112470E00E94E12FD2
:10316000802FB11014C0860F20912E01622F6D0D9B
:103170007727771F9B01220F331F260F371F2455F8
:103180003C4F4F2D6E2D0E94AC16D394DCCF861B86
:10319000EBCF022FA9CFE4EAF3E09181282F4381FE
:1031A000628188E0890F0E943B18089581E00E94A7
:1031B000CB180895E4EAF3E09181282F43816281DE
:1031C00088EF890F0E943B18089581E00E94DA1869
:1031D0000895E4EAF3E0628128E0620F08F46FEFFB
:1031E000282F438181810E943B18089581E00E942D
:1031F000E9180895E4EAF3E0628128E0621B08F42C
:1032000060E0282F438181810E943B18089581E06E
:103210000E94FA180895E4EAF3E0438128E0420F9F
:1032200008F44FEF282F628181810E943B18089596
:1032300081E00E940B190895E4EAF3E0438128E05D
:10324000421B08F440E0282F628181810E943B18D4
:10325000089581E00E941C19089520E00E943B1807
:103260000895EF92FF921F93CF93DF93EC0110E04C
:10327000EE24EA94F12C60913001161770F00E9450
:1032800086179A818C8190FF27C08F5F8C83DF9196
:10329000CF911F91FF90EF90089520912E01422F22
:1032A000410F5527551FCA019A01220F331F280FBE
:1032B000391F24553C4F70E0C7010E94F52F962F0F
:1032C0008C814091A7036091A603199F800D112462
:1032D0000E94AC161F5FCFCF8150D8CFB0E0A0E0E6
:1032E000E4E7F9E10C946830EC018A81BB24BA94DC
:1032F00080FD02C0BB24B3948C8181110AC081E09F
:10330000B81222C080913001815080930C0381E07B
:103310008C83A12C4EE0942E80913001A816B8F039
:103320000E94861780910C0391E0B91259C0811157
:1033300052C080913001815080930C031C82CDB724
:10334000DEB7ECE00C94843010920C03E0CF0091D7
:103350002E01CA2CD12C0C0D1D2D111DC801880F5A
:10336000991F080F191F04551C4FF8011182108274
:10337000128234E0E32EF12C812C80910C03880D15
:103380008F301CF1692D0E94D32F892F082E000C3D
:10339000990BC816D90691F48091A7038E9DA001C0
:1033A0008F9D500D1124559547955595479598013A
:1033B0006091A6038091A5030E94AC168B0CF1E0EE
:1033C000EF1AF108D1F6A394A7CF87FFDFCF909132
:1033D0003001890FDBCF815080930C03BC82AFCFCB
:1033E00090E001966091300170E00E94F52F80938B
:1033F0000C038C83A4CFEF92FF920F931F93CF9374
:10340000DF93EC018C81811109C081E08C831092E3
:103410000B0392E090932B0180932A0180912E015F
:1034200090912F0123E0829FF0011124E455FC4F7D
:10343000891758F110E003E060913001161758F138
:103440000E94861780912A0120910B03280F209358
:103450000B0390912B01980F90932B01191654F4A4
:10346000022E000C330B409130014150550B2417B4
:10347000350734F0819580932A01813009F41C824C
:10348000CDB7DEB7E6E00C948A301182108212824A
:103490008F5F3396CDCFE12EF12C70E0C7010E94F3
:1034A000F52F20912E01820F482F50E020910B0321
:1034B000022E000C330BE216F306BCF020912B0118
:1034C000022E000C330B2E153F057CF0809F9001DF
:1034D000112424553C4F4091A7036091A60380918D
:1034E000A5030E94AC161F5FA7CFFA01EE0FFF1FC6
:1034F000E40FF51FE455FC4F118210821282F3CFC6
:10350000B0E0A0E0E6E8FAE10C946830EC014C8110
:10351000042F10E09801D8010E9439309B01AC01C2
:103520000E944F304B015C01E0E2F0E0E01BF10B48
:10353000A5E5B0E0AC019B010E944F306B017C011E
:103540009F01DF010E9431309B01AC010E945A3083
:103550009B01AC01280D391D4A1D5B1DC701B60139
:103560000E940930F22E822F90E039E23F1520F1BF
:1035700043E0249F9001112435952795122F109533
:1035800000E085E5E82EEF1880913001081718F16A
:103590000E9486179C8181E0992319F0903219F4DA
:1035A0008FEF8093290180912901890F8C83CDB7FA
:1035B000DEB7ECE00C94843025E530E0B901681BFF
:1035C000790B9B01220F331F260F371F37FFD4CFF4
:1035D0002F5F3F4FD1CF8E2D01FD8F2D20912E01DA
:1035E000622F600F7727771F9B01220F331F260F53
:1035F000371F24553C4F412F6091A6030E94AC1603
:103600000F5FC2CF0F931F93CF93DF93EC0110E0B6
:1036100000E0909130019017110609F06CF40E94BF
:1036200086178C8190E00196817099278C83DF91B9
:10363000CF911F910F91089520912E01A801420F63
:10364000511D9A01220F331F240F351F24553C4F63
:103650004C816091A6038091A50396959017110661
:1036600051F04CF0442349F04091A7030E94AC165E
:103670000F5F1F4FCECF4423B9F340E0F7CFB0E048
:10368000A0E0E5E4FBE10C946430FC01628044803E
:1036900081E08483E1EFF2E07490E0E7F3E0E4910D
:1036A000C091A703C695C158D0E0CC0FDD1FCD2F28
:1036B000DD27812C75E0972EAA24AA94B12C5524DD
:1036C0005A94E719EE2EF12C80913001881638F0CB
:1036D0000E948617CDB7DEB7E0E10C948030C82C8D
:1036E000D12C82E0861568F09C9CF0019D9CF00D29
:1036F0001124E05FFC4F8091A50380838091A60395
:103700008183411023C09C9CF0019D9CF00D1124ED
:10371000E05FFC4F1382128220912E01C601820FBE
:10372000911D9C01220F331F280F391F24553C4F38
:103730009C9CF0019D9CF00D1124E05FFC4F4281A8
:10374000618180810E94AC168394BECF9C9C8001D5
:103750009D9C100D1124005F1C4FF801838188236C
:10376000F1F081508383859DC0011124648170E054
:103770000E94E12FFB01FF27EF50FD4F8491E82FBE
:10378000E719E59DC0011124B7010E94E12F809146
:10379000A703689FB0011124F8017283BDCF0E9476
:1037A0001B31B5010E94F52F8C179D070CF0B4CF8B
:1037B000F2E0F61598F40E941B31B5010E94F52F36
:1037C000F80180830E941B312091A6032695622F69
:1037D00070E00E94F52F280FF80121839C9CF001D6
:1037E0009D9CF00D1124E05FFC4F12828091A70395
:1037F000893C58F088EC9C9CF0019D9CF00D1124B4
:10380000E05FFC4F8483838387CF8431A0F784E11A
:10381000F2CF10925F03089528E0E4EAF3E0DC01C0
:1038200001900D922A95E1F720915D0330915E039E
:1038300040915F03FC012087318742870895EDE5C1
:10384000F3E011828281846082830895E4EAF3E0E8
:1038500080818E7F80830E941F1CEDE5F3E08281D2
:10386000816082830E9486170895E4EAF3E0208154
:103870002E7F2083318142815381648175818681CD
:1038800097810E94FB160E941F1CEDE5F3E08281E8
:10389000816082830E94861708956091A4036695D3
:1038A000669570E04BE050E081E391E00E942B319F
:1038B000892B19F481E080935E030E94EC119093B0
:1038C00057038093560380915F03846080935F0366
:1038D00008959091A40390FF39C09370811137C06F
:1038E00094609093A40380915F03816080935F0351
:1038F000662391F02091A4033091A5034091A60383
:103900005091A7036091A8037091A9038091AA0325
:103910009091AB030E94FB166091A4036695669597
:1039200070E04BE050E081E391E00E942B31892B65
:10393000B1F00E941F1C81E0809359034091A703BE
:103940006091A6038091A5030E942D1908958B32E2
:1039500010F0986AC6CF880F880F982BC2CF0E94AC
:103960004D1CE9CF682F9091A4039695969581E020
:10397000890F8B3208F081E00E94691C089581E074
:103980000E94B21C0895682F9091A4039695969575
:103990008FEF890F09F48AE20E94691C089581E083
:1039A0000E94C31C089561E00E94691C0895E4EA26
:1039B000F3E0808181608083869586950E94D31C88
:1039C00008958091A40380FF03C00E94351C0895D0
:1039D0000E94D71C089560E00E94691C08958091A0
:1039E0005C0381113CC00E94C9162093A40330934C
:1039F000A5034093A6035093A7036093A803709375
:103A0000A9038093AA039093AB0380915F03836023
:103A100080935F032C7FA1F40E9421170E94C91696
:103A20002093A4033093A5034093A6035093A703C8
:103A30006093A8037093A9038093AA039093AB03A8
:103A40000E94BA160E941F1C8091A40380FF04C02C
:103A5000869586950E94EB1C81E080935C03089517
:103A60001F93CF93DF93EC01162F8A8580FF0DC043
:103A7000888180FF25C08091A40381608093A40386
:103A80008881869586950E94691C8A8581FF06C07B
:103A9000212F4B816A8189810E943B188A8582FF90
:103AA00005C08985882379F00E944D1C8A8583FF93
:103AB00003C081E080935903DF91CF911F91089556
:103AC0000E94261CE2CF0E941F1CF0CFEF92FF92B3
:103AD0000F931F93CF93DF9380915E03882309F4A4
:103AE00064C080915D03E091A403E695E695E81B30
:103AF000E0935803823009F05DC0F0E0E351FD4FE0
:103B0000E491CE2FD0E00EED17E180915903882388
:103B100061F0109259030E94EC1190935703809327
:103B2000560310925B0310925A030E94EC11E0912D
:103B30005603F09157039C012E1B3F0B2F3F3F472D
:103B4000A0F520910F032223B1F010920F032091D2
:103B50000D0330910E03821B930B8F3F9F4758F448
:103B6000205D3A4830930E0320930D0380915F034C
:103B7000886080935F03E0905A03F0905B03EC0F42
:103B8000FD1FF0935703E093560386E593E0F80199
:103B9000099580915A0390915B03892B31F4E114CC
:103BA000F10419F081E080930F03CDB7DEB7E6E0B2
:103BB0000C948A30863049F4F0E0E651FD4FE491F0
:103BC000CE2FD0E002EF17E1A0CF893051F4E69577
:103BD000F0E0E951FD4FE491CE2FD0E001E319E18F
:103BE00094CF8F3051F4E695F0E0EC51FD4FE49125
:103BF000CE2FD0E00EE619E188CF853149F4F0E010
:103C0000EF51FD4FE491CE2FD0E00BEF19E17DCFC6
:103C1000C8E2D0E000E81AE1883109F476CF8332B7
:103C200039F4EFEDF2E0C591D49102E018E16DCFE7
:103C3000C4EFD1E002E01BE1843209F466CFC0EDAD
:103C4000D7E008EA16E1853209F05FCF8E2F63E0F6
:103C50000E94C72FE92FF0E0E452FD4FE491CE2FF0
:103C6000D0E00FE31BE151CF08950E94661D089537
:103C7000FA01811101C0FB0109950895CF93DF93EB
:103C8000C82FD62F0E943D178C1748F00E943D1771
:103C90008D1728F40E94BF1CDF91CF9108958C2FBF
:103CA0000E94D31CF9CF1F93CF93DF93EC01FB014C
:103CB0001581111110C00E94C40C8272FE01E052E5
:103CC000F847E531F10508F05EC0ED52FE4C0C946A
:103CD0002B300E94E11C812FDF91CF911F9108951D
:103CE0004FEC5CE16FEB7CE10E94381EF4CF4FEBB0
:103CF0005CE16FEC7CE1F8CF45EE58E166ED78E1F0
:103D0000F3CF46ED58E165EE78E1EECF47E059E1BB
:103D100066EF78E1E9CF46EF58E167E079E1E4CF7B
:103D200049E259E168E179E1DFCF48E159E169E22F
:103D300079E1DACF42E857E162E677E1D5CF42E6B2
:103D400057E162E877E1D0CF81E00E94D31CC3CF76
:103D500065E082E00E943E1EBECF68E086E0FACFBA
:103D60006EE089E0F7CF64E18FE0F4CF67E185E1B1
:103D7000F1CF88E1EACF62E289E1ECCF83E2E5CFDF
:103D80006AE285E2E7CF11E0A6CF539A4BB1477FB5
:103D90005BB15860EFB7F8949B01220F331F260FD9
:103DA000371F280F391F2817390741F4EFBF8FE558
:103DB00094E00197F1F700C000000895DC016D91D7
:103DC000CD0178E05BB9000000C067FF4BB9660F1A
:103DD000000000C000C000C04BB900C07A9591F748
:103DE000E2CF0E94E60D089580E00E9401128170EA
:103DF00008950E9428132FEF86E791E0215080401C
:103E00009040E1F700C000000E9428130E94F41EB9
:103E1000882321F00E94F11E0E94542708950E94D9
:103E2000F91E0895EBEFE80FEF3308F066C0F0E0FD
:103E3000E851FE4C0C942B300E948D0E81E00895C9
:103E40008091D602807F8093D60281E080936303C5
:103E500008950E94EA03F2CF9091D602892F8E7FB7
:103E600090FF81608093D60280FDE8CF817F8093B0
:103E7000D602E4CF9091D602892F8D7F91FF826088
:103E80008093D60281FFDACF8091D6028160EFCF96
:103E90009091D602892F8B7F92FF84608093D60207
:103EA00082FDF2CFCBCF9091D602892F877F93FFEF
:103EB00088608093D60283FDE7CFC0CF0E94480878
:103EC00090918803892F97FB87F980588093880306
:103ED000B5CF81E090E00E9495080E944808AECFDF
:103EE000895321E030E0A90102C0440F551F8A9593
:103EF000E2F7CA01F0CF8D51F4CF80E0089580E061
:103F000008950E947F1F0895CF93C82F8091630367
:103F10008130B9F0882331F08230A1F1109263032F
:103F200080E00DC00E94C40C8232D1F78C2F0E9419
:103F30007F1F81111BC08C2F0E94121F8170CF9197
:103F400008950E94C40C823289F38C2F0E94811F35
:103F500081110AC0C43199F060F4CB3029F0C0312E
:103F600069F782E08093630381E0E8CF81E090E02D
:103F7000E5CFC93221F0C833B9F380E0DFCF10922A
:103F80006303FBCFC93209F440C0F0F4C431E9F156
:103F9000A8F481E0C73099F68093430184E18093CF
:103FA00042018AE0809341018EE18093400188E0E4
:103FB00080933D0188E280933C0104C082EE8C0F27
:103FC0008A3070F181E0BBCFC03509F450C0B8F43D
:103FD0008AE0CF34B9F7E0916003F0916103309744
:103FE00089F32081082E000C990B820F911D8F3FC1
:103FF000910509F00CF43FC08FEF8083E3CFC1350A
:10400000C1F181E0C23539F39ACF809162038823F0
:10401000C9F2109262031092610310926003D2CF32
:10402000CD51C0936203C330C9F048F4C13099F058
:1040300082E491E0C23051F010926203C3CFC530E8
:1040400099F078F08CE391E0C630B1F7909361037A
:1040500080936003B7CF83E491E0F8CF81E491E0EF
:10406000F5CF80E491E0F2CF8DE391E0EFCF86EFE2
:10407000B2CF8FEFB0CF97FFC0CF1082A3CF0895FC
:10408000FC01680F791F8FEF91E3E617F70709F43A
:1040900008952191822728E030E087FF06C0880F2D
:1040A000892721503109C9F7F0CF880FFACFCF9374
:1040B000DF93EB0186319C4711F50E94C40C9D8172
:1040C000992399F08A7A91E009F490E0909364033F
:1040D000811109C089E20E94D3250E94780D80E0F9
:1040E000DF91CF91089585E3F6CF8091640381112C
:1040F00004C089E20E94EA25F0CF85E3FBCF81E08E
:10410000EFCFCF93DF93EC01FB018581882309F486
:10411000D2C09E0130572332310508F0B2C00E9450
:10412000020E9093890380938803FE01E150F047CB
:10413000E232F10520F4E95DFD4C0C942B308091C6
:10414000880381608093880393C08091890388608D
:10415000809389038DC0809188038260F3CF809122
:1041600088038460EFCF809188038860EBCF8091D3
:1041700089038160EDCF809189038260E9CF8091CE
:1041800088038061DFCF809188038062DBCF8091DC
:1041900088038064D7CF0E94480880918803806894
:1041A000D1CF809188038C60CDCF809189038360CB
:1041B000CFCF809188038E7FC5CF80918903877F81
:1041C000C7CF809188038D7FBDCF809188038B7F7F
:1041D000B9CF80918803877FB5CF809189038E7F87
:1041E000B7CF809189038D7FB3CF809188038F7E75
:1041F000A9CF809188038F7DA5CF809188038F7B85
:10420000A1CF0E944808809188038F779BCF80912F
:104210008803837F97CF809189038C7F99CF80918A
:10422000880382FB992790F921E0922790FB82F97D
:1042300090FB83F987CF80918903982F9095917097
:104240008E7F892B90FB81F983CF90918803892FF2
:104250008F7B96FF806476CF0E94480890918803F8
:10426000892F97FB87F980586DCF81E00E94900ECF
:1042700080918803909189030E94070E0E9448084C
:1042800080E0DF91CF91089580E0F0CF9091880396
:10429000892F8F7E94FF806155CF90918803892F5D
:1042A0008E7F90FF81604ECF90918903892F877F09
:1042B00093FF88604DCF81E0E4CF282F35EB2303B7
:1042C000C001112497FF04C080589109892F0895D7
:1042D00080589F4FFBCF80916B0380FF0DC0609192
:1042E000410170E0660F771F6038710570F5611548
:1042F000710569F1862F089581FF07C06091410122
:1043000084E0689FB0011124EFCF6091410182FDEC
:104310000AC080916A038823A9F02091400160912E
:104320004101821710F088E0ECCF869FC001112474
:1043300033E0880F991F3A95E1F7622F70E00E94F1
:10434000F52FD2CF68E070E0D5CF8FE7089581E0F8
:10435000089580916B0380FF0CC060913D0170E077
:1043600075956795759567956115710549F1862F66
:10437000089581FF06C060913D0170E075956795D5
:10438000F3CF60913D0182FD0BC0909169039923A9
:10439000A1F060913C0180913D01961738F0682FA3
:1043A00070E06038710500F38FE70895899FC001C0
:1043B000112470E00E94F52FF4CF61E070E0D7CFB8
:1043C00081E0089590916E0320916F03922B2091CC
:1043D0007103922B20917003922B31F098E090930F
:1043E0006A0391E0909369038D3C31F40E946B2144
:1043F000819580936F0308958E3C19F40E946B2180
:10440000F8CF8F3C31F40E946B21819580936E032D
:104410000895803D19F40E946B21F8CF893D29F45D
:104420000E94A9218093700308958A3D21F40E947F
:10443000A9218195F7CF8B3D31F40E94A921819567
:104440008093710308958C3D19F40E94A921F8CF3F
:104450009FE2980F983070F4815D990B21E030E075
:1044600001C0220F8A95EAF780916D03822B809319
:104470006D0308958D3D31F480916B0381608093CD
:104480006B0308958E3D21F480916B038260F7CF1A
:104490008F3DB9F780916B038460F1CF40916E033B
:1044A0008D3C59F480916F0387FF0DC010926F030C
:1044B00041110BC010926A0308C08E3C81F48091B8
:1044C0006F0318169CF3442381F080917003909140
:1044D0007103892B09F05AC01092690308958F3C2B
:1044E00049F447FFF0CF10926E0380916F03811162
:1044F000ECCFE0CF803D19F41416ACF3E4CF9091EB
:104500007003893D29F41916F4F610927003DBCF7D
:104510008A3D19F497FFD7CFF8CF909171038B3D67
:1045200029F497FFD0CF10927103CDCF8C3D19F4B1
:104530001916CCF3C8CF9FE2980F983090F4815DA4
:10454000990B21E030E0B90102C0660F771F8A9510
:10455000E2F7CB01809590916D03892380936D03E1
:10456000B2CF8D3D31F480916B038E7F80936B03CE
:10457000AACF8E3D21F480916B038D7FF7CF8F3DC5
:1045800009F0A1CF80916B038B7FF0CF08950E943B
:10459000ED269C0190916E0380916F03982B21F082
:1045A00030936803209367039091700380917103A7
:1045B000982B21F030936603209365038CE693E0FB
:1045C0000E94D024089586E0ECE6F3E0DF011D921E
:1045D0008A95E9F710926A031092690310926B03AF
:1045E0000895FC01828181110EC0838181110BC06D
:1045F0008481811108C091E08581811101C090E022
:10460000892F8170089581E0FCCFA6E0B0E0EBE057
:10461000F3E20C94713086E0ECE6F3E0DE011196F3
:1046200001900D928A95E1F710926E0310926F033C
:1046300010927003109271038B819C81892B89F0F9
:1046400080916703909168030E940527AC019091C7
:104650006A039923C9F1809142018417150608F471
:1046600040C08D819E81892B91F08091650390914E
:1046700066030E940527AC0190916903992309F410
:104680006AC080913E018417150608F472C0BE010D
:104690006F5F7F4F8CE693E00E941B26811105C05F
:1046A0008CE693E00E94F12281110E94C72286E0ED
:1046B000FE013196ACE6B3E001900D928A95E1F7E8
:1046C0002696E3E00C948D30209143018AE0289FE8
:1046D000900111242417350720F69F5F90936A03F9
:1046E00002C09F3FD1F71B81112359F00E946B211B
:1046F0009FEF11160CF491E0899F802D1124809377
:104700006E031C81112359F00E946B219FEF11163B
:104710000CF491E0899F802D112480936F03809188
:104720006E03882309F49DCF10916F03112309F4C0
:1047300098CF0E945D21882351F080936E03812FD2
:104740000E945D21882329F080936F038ACF81E046
:10475000F4CF81E0F9CF20913F018AE0289F9001BA
:1047600011242417350708F092CF9F5F90936903B7
:1047700002C09F3FD1F71D81112359F00E94A9214A
:104780009FEF11160CF491E0899F802D11248093E6
:1047900070031E81112359F00E94A9219FEF111669
:1047A0000CF491E0899F802D1124809371038091F6
:1047B0007003882309F46BCF10917103112309F45E
:1047C00066CF0E945D21882351F080937003812F72
:1047D0000E945D21882329F08093710358CF81E0E6
:1047E000F4CF81E0F9CF0F931F93CF93DF93C42FC2
:1047F000D22FFC0185818823C9F0409374030E9465
:10480000ED26909373038093720380E28C0F8830BF
:1048100040F4C77081E001C0880FCA95EAF70E9492
:10482000F205DF91CF911F910F91089510917403BC
:10483000141332C080917203909173030E94052774
:10484000883C910548F5C0E2CD0F1D17B9F080E214
:10485000810F883040F4177081E001C0880F1A95ED
:10486000EAF70E94F905C83048F481E09D2F97705F
:1048700001C0880F9A95EAF70E94F205802F0E94E6
:10488000E905C83070F6D77081E001C0880FDA956D
:10489000EAF70E94F905C5CF80E28C0F883008F650
:1048A000C77081E001C0880FCA95EAF7F2CF0F9375
:1048B000DB0188519C4787309105A0F5FC01E75B3F
:1048C000FD4C0C942B3006E221EE41EE6AE17CE7D0
:1048D000CD010E94F32380E00F91089507E225EEB9
:1048E00045EE6BE17CE7F4CF06E221EE40EE68E1B5
:1048F0007CE7EECF07E225EE44EE69E17CE7E8CF06
:1049000006E221EE42EE6CE17CE7E2CF07E225EE23
:1049100046EE6DE17CE7DCCF08E221E045EE6EE19A
:104920007CE7D6CF15968C91882319F010927403EA
:10493000D3CF81E0D1CF90937B0380937A03089506
:104940000E94AE13811103C0809175030895E09118
:104950007A03F0917B03309729F00190F081E02DEC
:104960000995089580E008950E94A0240895E0919B
:104970007A03F0917B03309721F00280F381E02DE0
:1049800009950895E0917A03F0917B03309739F00F
:1049900026E0DC012C930480F581E02D0995089533
:1049A000E0917A03F0917B03309739F022E0DC014B
:1049B0002C930680F781E02D09950895A3E0B0E0DF
:1049C000E4EEF4E20C947230209178033091790394
:1049D00028173907A1F09093790380937803E09129
:1049E0007A03F0917B03309751F023E029839B8376
:1049F0008A830084F185E02DCE01019609952396E6
:104A0000E2E00C948E30A3E0B0E0E9E0F5E20C9433
:104A10007230209176033091770328173907A1F07F
:104A20009093770380937603E0917A03F0917B0370
:104A3000309751F024E029839B838A830084F18599
:104A4000E02DCE01019609952396E2E00C948E307C
:104A500020910601309107012E5F3F4F80914E015A
:104A6000882379F08091880387FF0BC0209104018F
:104A7000309105012E5F3F4F9EE180E0915018F488
:104A8000089596E0FACFF90141919F014423B1F3D3
:104A90008F5FF4CF882321F190914E01992311F17A
:104AA0009091880397FF1EC0E82FE695E695E6955E
:104AB000EE31B0F42091040130910501E20FF32FA3
:104AC000F11D228130E0877041E050E002C0440FC8
:104AD000551F8A95E2F72423352381E0232B91F497
:104AE00080E008952091060130910701F901329686
:104AF000285F3F4F9191981721F0E217F307D1F704
:104B0000EFCF81E008959C01FC0132969FEF80E099
:104B10004191461751F09F3F19F4411101C0982F60
:104B20008F5F8630A9F79F3F09F40895290F311D43
:104B300097FD3A95F90162830895FC013296089633
:104B40002191261303C0DF0111971C92E817F90782
:104B5000B9F70895E62FE695E695E695EE3168F407
:104B6000E80FF92FF11D677021E030E001C0220F3E
:104B70006A95EAF78281822B82830895E62FE69573
:104B8000E695E695EE3170F4E80FF92FF11D6770A8
:104B900021E030E001C0220F6A95EAF7209582817A
:104BA000282322830895682F80914E01882359F08D
:104BB0008091880387FF07C08091040190910501CF
:104BC0000E94AA25089580910601909107010E94F4
:104BD00083250895682F80914E01882359F0809194
:104BE000880387FF07C080910401909105010E940E
:104BF000BE25089580910601909107010E949D2590
:104C0000089580914E01882379F08091880387FF71
:104C10000BC0E0910401F091050132968EE1DF01B5
:104C20001D928A95E9F70895E0910601F091070138
:104C3000329686E0F4CFDC01FB0111969C9111972E
:104C40008181981322C012968C911297882319F0B3
:104C5000928189131AC013968C911397882319F0A7
:104C60009381891312C015968C911597882319F09A
:104C7000958189130AC014969C91992321F081E0B3
:104C80002481291303C080E001C081E08170089570
:104C900008950E9448260895811106C081E08093FE
:104CA0007C030E944926089582E0F9CF83E0809337
:104CB0007C030E94492608950E944C26089581E0B5
:104CC00080937C030E94492608950E945F260895E0
:104CD000089508950E9469260895089508950E94F0
:104CE00068260895CF930E946D260E9428130E9483
:104CF0006E26C0E08C2F0E940112811105C0CF5F8B
:104D0000CA30C1F7CF91089581E0FCCF85B78068A4
:104D100085BF85B7806885BF08951F921FB61F9213
:104D200011248F939F93AF93BF9380917D03811143
:104D300013C08091D6039091D703A091D803B0916E
:104D4000D9034196A11DB11D8093D6039093D7033B
:104D5000A093D803B093D903BF91AF919F918F9146
:104D60001F901FBE1F9018958091DE03843031F193
:104D70000E94580410927D0388E190E020E40FB671
:104D8000F894A895809360000FBE2093600083B7CD
:104D9000817F846083BF83B7816083BF7894889567
:104DA00083B78E7F83BF0FB6F894A895809160007B
:104DB000886180936000109260000FBE08950E9489
:104DC00048080E945D04089582E084BD93E095BD8B
:104DD0009AEF97BD80936E0008952FB7F894809155
:104DE000D6039091D703A091D803B091D9032FBFD8
:104DF00008952FB7F8946091D6037091D7038091EE
:104E0000D8039091D9032FBF08959C014FB7F89410
:104E10008091D6039091D703A091D803B091D90384
:104E20004FBF821B930B0895CF92DF92EF92FF92B8
:104E30002FB7F894C090D603D090D703E090D80352
:104E4000F090D9032FBFA7019601261B370B480B03
:104E5000590BCA01B901FF90EF90DF90CF900895F0
:104E600078941F921FB61F9211248F939F93AF9334
:104E7000BF938091D6039091D703A091D803B091AE
:104E8000D9030196A11DB11D8093D6039093D7033A
:104E9000A093D803B093D903BF91AF919F918F9105
:104EA0001F901FBE1F90189587E797E79093010802
:104EB0008093000888E19AE00FB6F894A895809353
:104EC00060000FBE90936000FFCF88E19AE00FB6BC
:104ED000F894A895809360000FBE90936000FFCF78
:104EE0008EE1489B02C08150E1F7489BFECF0895B8
:104EF000589880E28A95F1F7589A0895FC013BE0B2
:104F00003A95F1F798E020E080E031E040E14A9501
:104F1000F1F7880F489B02C08160232742E04A9541
:104F2000F1F7000040E14A95F1F7915079F790E1EF
:104F30009A95F1F799B132E03A95F1F7000040E126
:104F40004A95F1F7917092272081920F90830895EE
:104F5000A1E0B0E0EEEAF7E20C946E3019828C0129
:104F60007C01E60EF11C0E151F0541F481E09981CC
:104F7000911180E02196E6E00C948A300E9470271F
:104F8000CE0101960E947E27F80181938F01EBCF1D
:104F9000509A589A08955098589AE89AE9E6F0E09D
:104FA00080818C7F808308956150770B91E001C0F0
:104FB000990F6A95EAF720E031E0911108C02223A9
:104FC00091F0589A80E28A95F1F758980895492F00
:104FD000482339F0589A232740E24A95F1F79695ED
:104FE000ECCF5898F9CF5898EDCFFF920F931F93BD
:104FF000CF93DF93EC018C01060F111DC017D10771
:1050000029F4CDB7DEB7E5E00C948B30F9900E941F
:10501000782768E08F2D0E94D427F0CF1F920F923F
:105020000FB60F9211240F931F932F933F934F931B
:105030005F936F937F938F939F93AF93BF93EF9300
:10504000FF93CF93DF930F92CDB7DEB719820E9403
:105050007027CE0101960E947E27082F069506959F
:105060000695282F22952570902F9570290F922F45
:10507000937026952695920F982797708981982B83
:1050800009F05CC0053008F059C080E18A95F1F75D
:10509000589A509A82E08A95F1F700C0589888E0B3
:1050A000089F80011124D801A75FBE4F1696ED918D
:1050B000FC9117973097A9F06091CD017091CE01C6
:1050C00014962D913C911597260F371F11968D91AF
:1050D0009C911297680F791F13964C9113978C919E
:1050E0000995F801E75FFE4F6381662351F0209137
:1050F000CD013091CE0184819581820F931F0E9452
:10510000F5270E94782780E18A95F1F75898509802
:10511000589A80E18A95F1F7F801E75FFE4F6081C8
:10512000662351F02091CD013091CE018181928191
:10513000820F931F0E94A8270E9470270F90DF9173
:10514000CF91FF91EF91BF91AF919F918F917F91FF
:105150006F915F914F913F912F911F910F910F9000
:105160000FBE0F901F9018950F931F93CF93DF934F
:10517000EC0105970CF04CC0F894509A589885E0D3
:105180008A95F1F700009C2F969595708C2F85706D
:10519000980F892F83709695969523E0CC0FDD1F8D
:1051A0002A95E1F7980F8E01092B0E94782700C0FD
:1051B00068E0802F0E94D42780E18A95F1F750980B
:1051C000589A489B1EC087E090E048991CC0FE0199
:1051D000E75FFE4F63816623F9F02091CD013091A6
:1051E000CE0184819581820F931F0E94A82781118F
:1051F00013C0509A589A7894DF91CF911F910F91D4
:10520000089500C0DECF019729F4509A589A7894F7
:1052100080E0F2CF00C0D9CF0E94702780E28A954B
:10522000F1F75898509A80E18A95F1F7C75FDE4F01
:105230006881662351F02091CD013091CE018981A2
:105240009A81820F931F0E94F5270E9478277894F5
:1052500081E0D2CF8091860308959B01BA0190919D
:10526000DE039430E9F48F708093E9009FEF809122
:10527000E800915085FD06C085ED8A95F1F70000A4
:105280009111F5CF8091E80085FF0AC050E040E021
:10529000C9010E942E2B8091E8008E778093E80050
:1052A000089543E050E0BC0182E00E942D2908955A
:1052B00046E050E0BC0182E00E942D29089540E2C2
:1052C00050E0BC0182E00E942D290895CF93DF9326
:1052D000EC0148E050E0BC0181E00E942D2988E00B
:1052E000FE01AEE7B3E001900D928A95E1F7DF9100
:1052F000CF9108958091DD03811109C00E94BE2CD9
:105300000E941B2D8091E20084608093E20008954A
:105310001092DD0308950E945F2608956091DA03DC
:1053200081E0611101C080E00E94562608959091AD
:10533000DE0381E0943009F080E06091DA030E949E
:105340005C26089542E061EC81E00E943A2C42E242
:1053500061EC82E00E943A2C9091DE0381E094306F
:1053600009F080E06091DA030E944C260895809154
:10537000E003833009F461C030F48130D1F1823030
:1053800009F49EC008958A3009F48AC08B3009F46C
:105390006FC0893009F050C08091DF03813209F07D
:1053A0004BC08091E3039091E403029708F044C05E
:1053B0008091E800877F8093E8008091E80082FF79
:1053C00037C09091F3008091F200029731F4809100
:1053D000F100813011F0863021F48091F10080934A
:1053E00086038091E8008B778093E8000E946E2C02
:1053F00023C08091DF03813AF9F48091E800877F30
:105400008093E8008091E3039091E403892B61F499
:1054100068E08EE793E070E00E947D2B8091E800C9
:105420008B778093E800089560E090E080E0F3CF10
:105430008091DE038111C1CF08958091DF03813A0D
:10544000D9F78091E3039091E403892BA9F7809128
:10545000E800877F8093E8008091E80080FFFCCF20
:1054600080914E018093F1008091E8008E77BCCF4F
:105470008091DF03813201F78091E3039091E4038F
:10548000892BD1F68091E800877F8093E8000E9405
:105490006E2C8091E10380934E010E94480808958C
:1054A0008091DF03813241F68091E800877F80930D
:1054B000E8000E946E2C8091E20380938703089598
:1054C0008091DF03813A09F0B7CF8091E800877FB0
:1054D0008093E8008091E80080FFFCCF80918703F3
:1054E000C1CF84B7877F84BF0FB6F894A895809109
:1054F0006000886180936000109260000FBE80E8B9
:1055000090E00FB6F89480936100909361000FBE15
:105510000E94652608950E94BE2C0E941B2DE2EE7B
:10552000F0E080818460808378940E949A2F0895AF
:1055300084E491E00E949B2408958091DE038530ED
:1055400031F48091DE03853019F00E94DF26089542
:105550000E94B4268091DC03882399F30E9472266E
:10556000882379F30E94182B0E944808EACF0895F7
:105570009A014091E5035091E6030E94C02A0895E4
:10558000492F55274330510519F168F44130510531
:1055900009F444C04230510509F445C090E080E070
:1055A00050E040E025C04132510549F142325105F9
:1055B000A9F784E490E041E256E061157105C1F07D
:1055C00086EB90E04BE655E06130710589F0E6CF5F
:1055D00099278130910581F0009729F00297F1F623
:1055E000E6EFF4E002C0EAE1F5E0849190E0AF017B
:1055F000F901518340830895E4E0F5E0F6CF89E0B6
:1056000090E040E355E06115710591F389E090E089
:1056100049E455E06130710559F3C0CF82E190E073
:1056200049E555E0E5CF8BE390E04EE155E0E0CF72
:1056300080E189BD82E189BD09B400FEFDCF809182
:10564000D8008F7D8093D8008091E00082608093A5
:10565000E0008091E00081FDFCCF0895AF92BF9201
:10566000CF92DF92FF920F931F93CF93DF936C0142
:10567000EB018A010E948D2CF82E811123C00115A7
:10568000110539F0F80180819181C81BD90BC80E32
:10569000D91EB12CA12C2097A9F08091E80085FD9E
:1056A00022C08091E8008E778093E80001151105F3
:1056B000A1F0F80180819181A80EB91EB182A0826B
:1056C00085E0F82E8F2DDF91CF911F910F91FF90E4
:1056D000DF90CF90BF90AF9008950E948D2C8823CB
:1056E000D1F2F82EEFCFF60181916F018093F10096
:1056F0002197FFEFAF1ABF0ACECFFC018091E503DF
:105700009091E60386179707A0F06115710529F4BB
:105710009091E8009E779093E80090E06115710504
:1057200051F4911108C08091E80082FF34C080E0FC
:105730000895BC01F2CF8091DE038823C1F185304A
:10574000C1F18091E80083FD30C08091E80082FDC6
:10575000EACF8091E80080FFE1CF8091F3002091B3
:10576000F200382F6115710519F02830310558F015
:1057700091E02830310509F090E02091E8002E7783
:105780002093E800CBCF81918093F10061507109A3
:105790002F5F3F4FE7CF8091DE03882341F08530B4
:1057A00041F08091E80083FFBECF81E0089582E060
:1057B000089583E00895FC018091E5039091E6034C
:1057C00086179707A0F06115710529F48091E8000C
:1057D0008E778093E80090E06115710551F4911186
:1057E00008C08091E80082FF35C080E00895BC01C8
:1057F000F2CF8091DE038823C9F18530C9F1809111
:10580000E80083FD31C08091E80082FDEACF8091FD
:10581000E80080FFE1CF8091F3002091F200382F63
:105820006115710519F02830310558F091E02830E4
:10583000310509F090E08091E8008E778093E800D0
:10584000CBCF84918093F1003196615071092F5F25
:105850003F4FE6CF8091DE03882341F0853041F051
:105860008091E80083FFBDCF81E0089582E0089534
:1058700083E00895982F973028F08F708093E90087
:1058800081E008959093E900242F762F50E0981737
:1058900031F07091EC002091ED005091F00021FD6D
:1058A00002C09F5FE8CF3091EB003E7F3093EB006A
:1058B0003091ED003D7F3093ED003091EB00316091
:1058C0003093EB007093EC002093ED005093F000C8
:1058D0002091EE0027FDE5CF80E008958091DF0361
:1058E00087FF13C08091E80082FF06C08091E80026
:1058F0008B778093E80004C08091DE038111F2CFA2
:1059000008958091DE038823D9F38091E80080FF19
:10591000F8CF8091E8008E77ECCF2091E4003091B1
:10592000E50095E6A9012091EC00822F817020FF0F
:1059300006C08091E80080FF06C080E008952091B5
:10594000E80022FD1AC08091DE03882389F08530AB
:1059500089F08091EB0085FD0FC02091E40030912B
:10596000E50042175307F9F29150E1F684E00895FB
:1059700082E0089583E0089581E008950E942D2D2E
:105980000E94352DE0EEF0E0808181608083E8EDBB
:10599000F0E080818F77808319BCA7EDB0E08C9117
:1059A0008E7F8C9380818F7E80831092DD0308959B
:1059B0000F931F93CF93DF930E942D2D0E94352DBF
:1059C000C8EDD0E088818F7788838881806888835C
:1059D00088818F7D888319BC1092DE031092DA03D0
:1059E0001092DC031092DB0300EE10E0F8018081DE
:1059F0008B7F808388818160888342E060E080E0E3
:105A00000E943A2CE1EEF0E080818E7F8083E2EE0E
:105A1000F0E0808181608083808188608083F801EC
:105A200080818E7F8083888180618883DF91CF91A0
:105A30001F910F910895E8EDF0E080818F7E8083C3
:105A4000E7EDF0E080818160808384E082BF81E0C7
:105A50008093DD030E94D82C0895E8EDF0E080816A
:105A60008E7F80831092E20008951092DA001092E7
:105A7000E10008951F920F920FB60F9211242F93F9
:105A80003F934F935F936F937F938F939F93AF93C6
:105A9000BF93EF93FF938091E10082FF0BC0809151
:105AA000E20082FF07C08091E1008B7F8093E100DC
:105AB0000E94992F8091DA0080FF19C08091D80050
:105AC00080FF15C08091DA008E7F8093DA0080918C
:105AD000D90080FF96C080E189BD82E189BD09B40B
