:100000000C9415030C942D270C9432030C9432039A
:100010000C9432030C9432030C9432030C9432038C
:100020000C9432030C9432030C94522C0C94262D15
:100030000C94AC250C9432030C9432030C943203D0
:100040000C9432030C9432030C9432030C9432035C
:100050000C9432030C944F260C9432030C9432030C
:100060000C9432030C9432030C9432030C9432033C
:100070000C9432030C9432030C9432030C9432032C
:100080000C9432030C9432030C9432030C9432031C
:100090000C9432030C9432030C9432030C9432030C
:1000A0000C9432030C9432030C94320335421E003C
:1000B0001F0020002100220021522B0014001A00F2
:1000C0000800150017002F00290004001600070083
:1000D00009000A004B43E1001D001B000600190047
:1000E00005004E00E30057005600552431212A0038
:1000F0004C002D4227002600250024002300215219
:100100002E00130012000C0018001C0030003400F8
:1001100033000F000E000D000B004D43E5003800CA
:1001200037003600100011004A004F005200510005
:100130005000E6002C00280001003A003B003C0083
:100140003D003E00010001001E021F022F0230028E
:10015000310201000100200221022F003000350091
:1001600001000100220223022602270235020100BB
:100170000100010001000100010001000100000078
:1001800043004200410040003F00010000005600D3
:10019000610060005F0054000100000057005E0035
:1001A0005D005C0055000100000058005B005A0033
:1001B0005900000001000000580063006200620066
:1001C0000100010001000100010001000100010027
:1001D000010000000000CD000000D9000000010077
:1001E0000000CF00CE00D000DA00000001000000C7
:1001F00000000000000000000000010000000000FE
:1002000000000000D100D200010001000100010047
:1002100001000100010001000000000000000000DA
:10022000000000000100000000004F0052005100DB
:10023000500000000000000000000000000000006E
:1002400001000000000000000000000001000100AB
:1002500000003A003B003C003D003E0023780000D7
:10026000007C2B78207821782478000000000000A2
:10027000000000000000000001000000000000007D
:10028000000000000000000000000000000000006E
:100290000000000000000000430042004100400058
:1002A0003F00267800000000000027782878257895
:1002B000000000000000000000000000000001003D
:1002C000000000000000000000000000000000002E
:1002D0000000000000000000000000001E0F0500EC
:1002E000047F3F1F643214643214783C1E1E140ACB
:1002F000052223252628292A2C2D2F303233353666
:10030000383A3B3D3E4042434547494A4C4E5051A6
:10031000535557595A5C5E6062646668696B6D6FCD
:1003200071737577797B7D7F81838587898A8C8ED0
:1003300090929496989A9C9E9FA1A3A5A7A8AAACD8
:10034000AEAFB1B3B4B6B8B9BBBCBEBFC1C2C3C512
:10035000C6C7C9CACBCCCDCED0D1D2D2D3D4D5D6B4
:10036000D7D7D8D9D9DADADBDBDBDCDCDCDCDCDDE7
:10037000DDDDDDDCDCDCDCDCDBDBDBDADAD9D9D8CB
:10038000D7D7D6D5D4D3D2D2D1D0CECDCCCBCAC963
:10039000C7C6C5C3C2C1BFBEBCBBB9B8B6B4B3B192
:1003A000AFAEACAAA8A7A5A3A19F9E9C9A9896942D
:1003B00092908E8C8A89878583817F7D7B79777502
:1003C00073716F6D6B6968666462605E5C5A5957E1
:1003D000555351504E4C4A4947454342403E3D3BA0
:1003E0003A3836353332302F2D2C2A29282625232A
:1003F00022FFAA7F55400001010101010101010115
:1004000002020202020202020203030303030303C5
:100410000304040404040404050505050506060692
:100420000606070707070708080808090909090A4F
:100430000A0A0B0B0B0C0C0C0D0D0D0E0E0E0F0FF4
:100440000F10101111111212131314141515161682
:100450001717181819191A1A1B1B1C1D1D1E1E1FF1
:100460002020212222232424252626272829292A40
:100470002B2C2D2D2E2F3031323233343536373868
:10048000393A3B3C3D3E3F40414243444546474864
:10049000494A4C4D4E4F50515354555658595A5B3A
:1004A0005D5E5F616264656668696B6C6D6F7072DA
:1004B000737577787A7B7D7E8082838587888A8C46
:1004C0008E8F91939596989A9C9EA0A2A3A5A7A97A
:1004D000ABADAFB1B3B5B7BABCBEC0C2C4C6C9CB71
:1004E000CDCFD1D4D6D8DBDDDFE2E4E7E9EBEEF027
:1004F000F3F5F8FAFDFF0C035200650064006F008D
:10050000780000001403460061006C006200610086
:100510007400650063006800000004030904090218
:100520003B00020100A0FA090400000103010100E0
:10053000092111010001224400070581030800017F
:10054000090401000103000000092111010001223A
:100550007B00070582032000011201000200000059
:1005600008444D445200010102000105010902A1A5
:100570000185020901A100050919012908150025B5
:1005800001950875018102050109300931158125A0
:100590007F95027508810609381581257F950175BB
:1005A000088106050C0A38021581257F950175081A
:1005B0008106C0C005010980A101850319012AB780
:1005C00000150126B700950175108100C0050C09C2
:1005D00001A101850419012AA002150126A0029596
:1005E0000175108100C005010906A101050719E088
:1005F00029E7150025019508750181029501750807
:1006000081010507190029FF150026FF00950675D1
:1006100008810005081901290515002501950575B2
:10062000019102950175039101C011241FBECFEF06
:10063000DAE0DEBFCDBF11E0A0E0B1E0E4E9F2E630
:1006400002C005900D92A63FB107D9F723E0A6EFAF
:10065000B1E001C01D92A03AB207E1F70E94E61591
:100660000C94F4300C9400008430B8F46A30A8F490
:10067000473098F450E097E0699F400D511D1124D8
:10068000FA0196E4899FE00DF11D1124EE0FFF1F82
:10069000E455FF4F85919491089581E090E008958D
:1006A0000E943403089581E008950E945303089541
:1006B00081E008950E94530308950E945A0308950B
:1006C00008950E9460030895A6E0B0E0EAE6F3E032
:1006D0000C94892F49835A839E833091FD0189812F
:1006E0009A8131111AC03E81332399F0222389F077
:1006F0000E946B09182F682F89819A810E944709EF
:1007000069817A81812F0E9473102696E3E00C9410
:10071000A52F0E945909182FF3CF0E946B096981F8
:100720007A81F1CFFC01262F408151816281738152
:10073000848195810E9464030895CF93DF93EC0137
:1007400061E00E949203BE010E945503DF91CF91A8
:100750000895CF93DF93EC0160E00E949203BE0105
:100760000E946103DF91CF91089508950E941C08B3
:100770000E94B5032FEF84E39CE02150804090401D
:10078000E1F700C0000008950E94B6030E9473269E
:1007900008950E94B6030E94842608950F931F9324
:1007A000CF93DF938C0161E00E949203EC01B801CA
:1007B0000E945D03811106C080E0DF91CF911F91FF
:1007C0000F910895B801CE010E9422248823A1F33D
:1007D000B801CE010E946C21882371F3B801CE01CB
:1007E0000E949423882341F3B801CE010E94B620D1
:1007F000882311F3F8018581882361F0C330FCE779
:10080000DF07E9F058F4C115ECE7DE07A9F0C130C5
:10081000DC47B9F0C8010E945803CFCFCB358CE735
:10082000D807A9F0CC35ECE7DE0771F0CA35DC4714
:1008300089F70E94C40DEECF0E94C403BDCF0E9471
:10084000CC0D0E94C903B8CF0E94BA0DE3CF0E941D
:10085000C80DE0CF0E9489250E94510408950E948E
:1008600055040E948E250895089581E00895089505
:10087000CF93DF93D82F0E943504C82F882319F017
:100880008D2F0E9437048C2FDF91CF91089508950A
:10089000CF93C82F0E9434048C2F0E943804CF912C
:1008A000089580E00E94480408950E946B240E94ED
:1008B00048040895CF930E946B24C82F8091F801BB
:1008C0008C1779F0C093F8010E9418266093F90103
:1008D0007093FA018093FB019093FC018C2F0E948E
:1008E0004804CF910895ADE0B0E0E9E7F4E00C945E
:1008F0008A2F488759876A877B878C879D879111C4
:100900000E94F20C1F8286E0FE013896DE011196ED
:1009100001900D928A95E1F78D8181110DC0298199
:100920003A814B815C816D817E818F810E94250C93
:100930002D96E2E00C94A62FCE0101960E949D0315
:100940008111EDCFF5CFFC012481213021F480818C
:1009500091810E949D090895662329F00E948216C4
:100960000E94551708950E94DC16FACFCF93C82F26
:100970008823C9F08238C9F40E947F2481FD13C006
:1009800089E30E94AA0C0E942B0D2FEF87EE93E0C3
:10099000215080409040E1F700C0000089E30E94B0
:1009A000B20C0E942B0DCF9108958338A1F40E94C0
:1009B0007F2480FDF8CF83E50E94AA0C0E942B0DB6
:1009C0002FEF81EE94E0215080409040E1F700C08D
:1009D000000083E5E4CF8438A1F40E947F2482FDE7
:1009E000E2CF87E40E94AA0C0E942B0D2FEF81EE2C
:1009F00094E0215080409040E1F700C0000087E47F
:100A0000CECF8CEF8C0F813AB8F48C2F0E94D92274
:100A10008111C9CF6C2F80910401909105010E9432
:100A2000F724882329F08C2F0E94B20C0E942B0DF2
:100A30008C2F0E94AA0CB5CF80E28C0F883048F42E
:100A4000C77081E001C0880FCA95EAF70E94D50CF3
:100A5000A8CFEBE5EC0FE33040F4F0E0EF57FE4FAA
:100A6000808190E00E949B249ECFE8E5EC0FEB3163
:100A700050F4F0E0EE0FFF1FE55BFE4F80819181A7
:100A80000E94C02490CF83E38C0F833108F08BCF7A
:100A900061E08C2F0E94AC0486CF882309F456C0F5
:100AA000823879F40E947F2481FF50C089E30E943C
:100AB000AA0C0E942B0D89E30E94B20C0E942B0D00
:100AC0000895833859F40E947F2480FF3FC083E556
:100AD0000E94AA0C0E942B0D83E5EECF843859F4B6
:100AE0000E947F2482FF32C087E40E94AA0C0E94E9
:100AF0002B0D87E4E1CF9CEF980F913AE8F290E25A
:100B0000980F983050F4877091E001C0990F8A9542
:100B1000EAF7892F0E94DB0CD1CF9BE5980F933029
:100B200028F490E080E00E949B24089598E5980FB7
:100B30009B3128F490E080E00E94C024089593E364
:100B4000980F933118F460E00E94AC0408951F934D
:100B5000CF93DF93182FEB010E94B604209739F44E
:100B6000812F0E944D05DF91CF911F9108958FE94C
:100B70009FE00197F1F700C000002197EFCF70E0F0
:100B800060E0893311F460E570E00E94A7050895E4
:100B9000882321F00E94D50C0E942B0D08958823F4
:100BA00021F00E94DB0C0E942B0D0895B0E0A0E024
:100BB000ECEDF5E00C94832F6C01D62FC72FFC01D0
:100BC0001581068102950F700E94CB0CE82E8823B8
:100BD000E9F0E12E1123D1F08C2F807F803451F089
:100BE00080E28D0F8830F8F0011104C08C2F807ED8
:100BF0008032C9F08091460382FF15C082E00E94D6
:100C00008E0D0E94CB0C91E0E82EE926BC2EB2940A
:100C10009FE0B922FBE0FB15B8F1EB2DF0E0EA50C4
:100C2000FF4C0C94432FE12CF1CF0C2F0F70C07FA1
:100C300011F00295007F112399F0002359F080E212
:100C40008D0F883010F0D11107C0802F0E94D50C75
:100C50000E942B0D8D2F5AC0802F0E94E50CF8CFDB
:100C60008D2F0E944D05002379F080E28D0F883092
:100C700010F0D11104C0802F0E94DB0C03C0802F24
:100C80000E94EB0C0E942B0DEB2DE850FF0B3497CC
:100C900020F40E946B240E944804EE2089F00E94F8
:100CA000C70C80FD0DC0F60115820E94C10C0E9488
:100CB000A508C6010E94E3070E94C10C0E94B50866
:100CC000CDB7DEB7E9E00C949F2F2C2F2F70F22EBA
:100CD000C07FC03219F0F29480EFF822DD2341F09A
:100CE000D130D1F1112309F444C00023F1F0B2CF87
:100CF0008091460382FD15C0112359F0FF2029F091
:100D00008F2D0E94D50C0E942B0D80E00E94B6040E
:100D1000BBCF80E00E944D05FF2009F4B5CF8F2D99
:100D2000ABCF112369F0011104C08F2D0E94C805BB
:100D3000ABCF013009F0A8CF8F2D0E94090DA4CFB1
:100D40000111A2CF8F2D0E94CF058F2D0E94150D6E
:100D50008F2D0E94F90C98CF112321F0063008F056
:100D600093CFE3CF053008F08FCF8F2D0E94CF05B2
:100D70008BCF0023D1F3D93349F43FEF87EE93E0D3
:100D8000315080409040E1F700C000008D2F0E945C
:100D90004D057ACF8C2F86958695837069F08130CA
:100DA00009F072CF8D2F9C2F9370111102C080E03B
:100DB00090E00E94C02468CF8D2F9C2F937011115A
:100DC00002C080E090E00E949B245ECF612F8D2FB7
:100DD0000E94AC0459CF8C2F8370A1F5111154CF10
:100DE0004D2F429546954770440F440F2D2F2F707D
:100DF00030E0042E02C0220F331F0A94E2F790E085
:100E000080E0D4FF09C08FE090E002C0880F991FF6
:100E10004A95E2F780959095C695C695C370822B4A
:100E2000932BC23049F058F4C13019F00E94750874
:100E30002BCF0E946C0828CF0E947E0825CF0E94ED
:100E4000690822CF8695112311F08C2F8170882399
:100E500009F41ACF4D2F429546954770440F440F21
:100E60002D2F2F7030E0042E02C0220F331F0A9462
:100E7000E2F790E080E0D4FF09C08FE090E002C08C
:100E8000880F991F4A95E2F780959095C695C6956B
:100E9000C370822B932BC23049F058F4C13019F043
:100EA0000E94E008F1CE0E94D708EECE0E94E90829
:100EB000EBCE0E948D08E8CECF70112329F08C2F45
:100EC0000E94A5088D2F32CF8D2F0E94CF058C2F29
:100ED0000E94B508D9CED23F41F160F4D03FB9F0BD
:100EE000D13F81F0112309F446C00111B3CE8C2FFC
:100EF0008F711FC0D33F01F1D43FA1F7809146030A
:100F000082FD24C08C2F8F71112311F312C0112385
:100F100041F0053008F0B8CE8C2F8F710E94C708C1
:100F2000B3CE063008F0B0CEF7CF8C2F8F711111F1
:100F3000CFCF0E94A508A8CE112329F08C2F8F7146
:100F40000E949908A1CE0E9494089ECE112349F0D8
:100F5000CF718C2F0E94A50863E08C2F0E94700D2A
:100F600093CE81E00E948E0D023008F48DCE82E097
:100F70000E948E0D89CE002359F0D93309F006CF97
:100F8000EFEFF7EE23E0E150F0402040E1F7FCCE38
:100F90008C2F8F719DCF0F931F93CF93DF93EC0115
:100FA000688179818D810E94A8098C010E94F208D4
:100FB0000E946808B801CE010E94D605DF91CF914A
:100FC0001F910F910895CF93DF93EC018C818823BB
:100FD00099F0CE010E94CE03811111C00E94CB0C6A
:100FE000882351F08D81882339F08091460382FF58
:100FF00003C082E00E948E0DDF91CF910895CE0153
:101000000E94CB07CE010E94A903F6CF90E080E0BA
:101010000E949B2490E080E00E94C0240E94F20C79
:101020000E942B0D0E9471170E94551708950E946F
:10103000BA0C0E94060808950E94E20C0E9417084C
:10104000089592959F70963091F058F4925F9F703A
:10105000923058F4803F19F030F4883E30F481E04B
:1010600008959A5FF4CF843FD1F380E00895883EDD
:10107000B0F3813FD1F7F3CFFC012481222339F073
:10108000808191810E949D090E942108089580E03D
:101090000895A6E0B0E0EFE4F8E00C948A2F2696DD
:1010A000E2E00C94A62FA7E0B0E0E9E5F8E00C94AC
:1010B0008A2F2796E2E00C94A62F08950E945D08DF
:1010C00008950E945E08909325028093240208955B
:1010D00008950E946108089520912402309125020C
:1010E000822B932B0E946108089520912402309155
:1010F0002502822393230E946108089520912402EF
:1011000030912502822793270E94610808950E944A
:101110005D0808950E94870808950E948A089093A8
:10112000230280932202089590E080E00E948D08BF
:10113000089521E030E0A90102C0440F551F8A95AF
:10114000E2F7CA010E948D08089521E030E002C054
:10115000220F331F8A95E2F7809122029091230299
:10116000822B932B0E948D08089521E030E002C06D
:10117000220F331F8A95E2F7209530958091220245
:1011800090912302822393230E948D08089521E0E9
:1011900030E002C0220F331F8A95E2F780912202CD
:1011A00090912302822793270E948D080895209111
:1011B000220230912302822B932B0E948D080895E6
:1011C0002091220230912302822393230E948D08D2
:1011D00008952091220230912302822793270E94B2
:1011E0008D0808950895262F277091E001C0990F6A
:1011F0002A95EAF723E0769567952A95E1F7660F39
:10120000771F660F771FFA01E60FF71F50E040E0E7
:10121000682F70E08191DF0111979B01042E02C0BD
:10122000369527950A94E2F72170219528272923DE
:1012300028272C934F5F5F4F4430510559F708958D
:10124000A82FA77023E0969587952A95E1F7880F38
:10125000991F880F991FFB01E80FF91F50E040E02C
:1012600080E0219130E00A2E02C0369527950A943D
:10127000E2F721703327042E01C0220F0A94EAF707
:10128000822B4F5F5F4F4430510559F70895262F49
:101290009A3070F4873060F4682F70E087E0989F90
:1012A000600D711D11244EEF51E0822F0E94F30852
:1012B0000895292F9A3068F4873058F490E06EEF43
:1012C00071E037E0239F800D911D11240E942009B9
:1012D000089580E00895B0E0A0E0E1E7F9E00C9423
:1012E000832F7C010091220210912302809124021D
:1012F00090912502082B192BCFE0D0E0CC24C39489
:10130000D12CC6010C2E02C0880F991F0A94E2F757
:1013100080239123892B49F4219798F7B12C8B2DA9
:10132000CDB7DEB7E9E00C949F2FBC2EB7018C2F10
:101330000E947F10019781F3F2CFCF93DF93EC01EE
:101340000E946B09BE010E947F10DF91CF9108952A
:101350001F93CF93DF93EB019091FD01992339F017
:10136000CB010E949D09DF91CF911F9108958823A1
:1013700069F0CB010E946B09182F682FCE010E94E3
:101380004709BE01812F0E947F10EDCFCB010E9443
:101390005909182FF6CFFF920F931F93CF93DF9326
:1013A0008091260297E0F92E08E010E09091270244
:1013B000981305C0CDB7DEB7E5E00C94A32FC82F76
:1013C000D0E0FC9EF001FD9EF00D1124E85DFD4F84
:1013D00020813181428153816481758186810E949F
:1013E0005308CE010196B8010E940D2FDFCF209146
:1013F00060023091610240916202509163026091FB
:10140000640270916502809166020E9453080895FB
:10141000FF920F931F93CF93DF9380916602807F9B
:1014200009F04FC080916502882309F44AC0E09119
:1014300026021091270200916102F0906002209133
:1014400062023091630247E0C8E0D0E01E17C9F1A4
:101450008E2F90E0E49FF0011124E85DFD4F548150
:101460005523A1F1489FF001499FF00D1124DF01A0
:10147000A85DBD4F11965C911197501327C05C91E8
:101480005F1124C015965C91159751111FC01296DB
:101490006D917C91621B730B683C7105B8F480916F
:1014A00066028F70806180936602E25DFD4F8081ED
:1014B0008F708061808380E692E00E94E3070E9443
:1014C000CB09CDB7DEB7E5E00C94A32F0196BE01A2
:1014D0000E940D2FE82FBACFFF920F931F93CF9347
:1014E000DF93182F062F809126024091270297E064
:1014F000F92EC8E0D0E0841306C080E0CDB7DEB797
:10150000E5E00C94A32F282F30E0F29EF001F39E2B
:10151000F00D1124E85DFD4F8181081306C0808124
:10152000181303C085818111E9CFC9010196BE015D
:101530000E940D2FE0CFA4E1B0E0E1EAFAE00C94C4
:10154000802F8C0186E0F801DE011F9601900D923C
:101550008A95E1F7F8018481E58090E6A92E92E072
:10156000B92E9091640291111FC08823D1F0EE2012
:10157000A9F0C8010E943C08F82E882379F087E082
:10158000F801D50101900D928A95E1F7C5010E94FD
:10159000A3040E94080A0E94F7095FC0C8010E94C4
:1015A000E307FF24F39459C0C080D18082809380E8
:1015B000F09065022091620230916302A401421B07
:1015C000530BFF2009F4F9C0483C510508F0A7C0AF
:1015D000882309F442C09091610280916602282F0D
:1015E000207F09F05CC09D1116C090916002C91265
:1015F00012C0E1104EC08F708061809366020E941D
:10160000F70980E692E00E94E30780916602F80104
:101610008683F12C22C0E1103CC06D2D8C2D0E94E0
:101620006C0A6D2D8C2D0E946C0AE82E8111F1CF71
:10163000CF86D88A8F8598890E949D09292F229567
:101640002F70243078F49F702230A8F09923B9F0DD
:10165000F8019681907F99F4FE2C8F2D6496ECE032
:101660000C949C2F2A5F2F70223068F0C8010E94D2
:10167000E307EF2CF1CF992311F0882369F3805E03
:10168000883050F3F3CF803F38F3815F833070F7B9
:10169000E3CF80916602816080936602BACF9D118C
:1016A00013C090916002C9120FC0E1100DC0868373
:1016B000C8010E94E30787E0F801A0E6B2E00190CC
:1016C0000D928A95E1F767CFC8010E943C088823F4
:1016D00009F464CFEE2009F461CF80916602803274
:1016E00088F02091600230916102398728879B86BB
:1016F0008A86909164029C871D868E87CE0108960B
:101700000E94E30787E0F801A0E6B2E001900D92A5
:101710008A95E1F70E94080A0E94F70942CF90914A
:101720006602292F207FA1F4682D9A8A898AA60152
:101730007A899E2D0E94490880E692E00E94E30784
:1017400087E0F50111928A95E9F70E94F70961CFC8
:10175000882309F482CF809161028D1110C080919D
:101760006002C8120CC0E1100AC09683C8010E9432
:10177000E30787E0F50111928A95E9F76ECFC8017A
:101780000E943C08882309F409CFEE2009F406CF13
:1017900080916602803208F4B5CF209160023091CA
:1017A00061023A8329839C828B82909164029D839B
:1017B0001E828F83CE010196A3CF483C5105B8F518
:1017C000882309F4EECEFE2CEE2009F4E7CE8091BA
:1017D00061028D111EC080916002C8121AC08091F2
:1017E000660280FD0DC0982F907F51F08683903F58
:1017F00009F45ECF982F907F905F8F70892B57CF21
:1018000087E0F801A0E6B2E001900D928A95E1F739
:1018100024CFC8010E943C08811174CF80916602D8
:10182000816080936602C8010E94E30716CF682D8D
:101830009A8A898AA6017A899E2D0E94490887E0A2
:10184000F50111928A95E9F7A6CEAEE0B0E0EBE2A1
:10185000FCE00C94892F288739874A875B876C873F
:101860007D878E87CE0108960E949B0A8823B1F05F
:101870006C85662341F0288539854A855B857D85A1
:101880008E850E94530817E08091260290912702CE
:1018900089133DC02E96E3E00C94A52F87E0FE014E
:1018A0003896DE01119601900D928A95E1F78C85AC
:1018B000882349F32091270230E0C90101968770FF
:1018C0009927409126024817190699F097E0929FB0
:1018D000D001939FB00D1124A85DBD4FFE0131963C
:1018E00001900D929A95E1F7809327020E94CB090F
:1018F000CACF0E941C08109227021092260287E08D
:10190000E0E6F2E0DF011D928A95E9F7BCCF819F06
:10191000C0011124885D9D4F0E949B0A882309F411
:10192000B9CFE09126021E9FF0011124E85DFD4F22
:1019300020813181428153816481758186810E9439
:1019400053088091260290E0019687709927809332
:1019500026029ACF682F80910401909105010E9480
:101960002D250895682F80910401909105010E9412
:101970003025089580910401909105010E9433253E
:10198000089580916F028695869586950895809139
:101990006F028770089590916F02977081E009F44B
:1019A00080E0089580917B02089590917B02892BBD
:1019B00080937B020895809590917B029823909369
:1019C0007B02089510927B02089590917A02892BF0
:1019D00080937A020895809590917A02982390934B
:1019E0007A02089510927A02089508950E94F50CE3
:1019F000089590917002292F282331F08095892332
:101A0000809370020E94F60C089508950E94050DBF
:101A1000089590917102292F2823281729F0982BD7
:101A2000909371020E94060D089590917102292FE2
:101A3000282331F080958923809371020E94060D3E
:101A4000089580917102882329F01092710280E03C
:101A50000E94060D0895CF93DF93E0910401F09169
:101A6000050180917B028083E0910401F0910501E2
:101A7000808190917A02892B8083909171029923C1
:101A800081F0E0910401F09105018081892B808330
:101A900080910401909105010E94E52481110E942A
:101AA000210DC0910401D091050148E050E067E6A6
:101AB00072E0CE010E946730892B59F088E0FE0168
:101AC000A7E6B2E001900D928A95E1F7CE010E945F
:101AD0008224DF91CF91089508950E946C0D08959E
:101AE0009091460392FF11C098E0899F90011124C4
:101AF000622B60936F020E94A50880916F02869509
:101B0000869586950E946D0D08950E94A5080895FA
:101B100010926F0280E00E946D0D089590916F0207
:101B20008095892380936F02282F277069F4891785
:101B300059F09091460392FF07C086958695869549
:101B40000E94B5080E94880D08959091460392FB6B
:101B5000222720F9281769F080FB92F99093460319
:101B600080914503909146030E94ED0D82E00E9412
:101B70008E0D08958091460382FB882780F991E0BD
:101B800089270E94A50D089581E00E94A50D089562
:101B900080E00E94A50D08956FEF7FEF90E080E058
:101BA0000E94BF30089590E080E00E948B3021E0D9
:101BB000863E9E4F09F020E0822F089582E090E05B
:101BC0000E947D30089583E090E00E947D3008956A
:101BD00084E090E00E948B300895BC0184E090E0A6
:101BE0000E94BF300895AB01BC018FE090E00E94DD
:101BF000B3300895AB01BC0183E190E00E94B330A3
:101C0000089560E070E0CB010E94FA0D089560E055
:101C100070E0CB010E94F30D0E94010E0895A8E030
:101C2000B0E0E5E1FEE00C948A2F66EE7EEF90E0F6
:101C300080E00E94BF3060E082E090E00E94A1302E
:101C400060E083E090E00E94A130109225021092A3
:101C5000240260E074E184E090E00E94BF3060E024
:101C600086E090E00E94A1306FEF87E090E00E9454
:101C7000A13040E050E0BA0188E090E00E94B3302B
:101C800060E084E290E00E94A13060E087E190E0B3
:101C90000E94A13060E08CE090E00E94A13060E002
:101CA0008DE090E00E94A13019821A821B821C8272
:101CB0001D821E821F82188648E050E068E170E0B5
:101CC000CE0101960E94913040E050E0BA0180E2DE
:101CD00090E00E94B3300E94070E2896E2E00C9438
:101CE000A62F0E940F0E0895682F8EE090E00E94AC
:101CF000A1300895A6E0B0E0E0E8FEE00C94882F63
:101D00000E940C268C0180917C0290917D028017AC
:101D1000910781F019821A820E940C26682F49814E
:101D20005A81792F80E090E00E94730410937D0225
:101D300000937C022696E4E00C94A42F0E949B1151
:101D400060938C0270938D0280938E0290938F0229
:101D5000609388027093890280938A0290938B0229
:101D60000895089508950E94B10E089508950E945F
:101D7000B60E089581E0089580EC91E10E94F3157C
:101D80000E94B20E0E94B30E08950E948813089517
:101D9000089508950E94C80E0E94C90E08950E94D9
:101DA000C3110E94470408950E9403260E947511E2
:101DB0000E94A3130E94E9120E94CF0E0E94542198
:101DC0000E94511F0E94AD130E94B70E0895A6E015
:101DD000B0E0EDEEFEE00C94812F0E94BA0E81116E
:101DE0000EC00E947A0E0E9488130E94CE1F0E948D
:101DF00093170E945A042696EBE00C949D2F0E94A4
:101E00000C138EE7A82E82E0B82E750110E0F701C2
:101E100001917F01812F0E94E9111F5F1A3009F49F
:101E200041C00817A1F38091900281FD0E94EF113B
:101E30000E94C50EC82E10E099249394812F0E9411
:101E4000E911082FF50181915F01081729F1D02EC2
:101E5000D826F12CEE24E3948D2D8E21A9F0CC20F0
:101E600099F0F9821A830E940C269C838B839D82B1
:101E700091E0802F8E2109F490E049815A816B8195
:101E80007C818D810E947304F394EE0CF7E0FF12C5
:101E9000E3CFF501319700831F5F1A3079F60E9476
:101EA0009E0EA1CF0813BFCF9CCF1F93CF93DF937C
:101EB0000E948410EC01C11580E5D807F0F5C1152A
:101EC00080E4D80708F09CC0C03ED10520F5CD3C89
:101ED000D10508F082C0C83AD10578F4C53AD105D9
:101EE00008F073C0C130D10519F1209709F1C43051
:101EF000D105F0F4D0E0C0E01BC0C33CD105D0F761
:101F0000C85AD0E0CC0FDD1FCC57DE4F0990D881E6
:101F1000C02DD4640DC0C11580E2D80708F0D1C02F
:101F2000C11581E0D80708F05AC0C83ED10510F7A6
:101F3000CE01DF91CF911F910895C03682E5D80779
:101F400018F5C03482E5D80708F06BC0C03282E5CE
:101F5000D80708F05FC0C11582E5D80708F497C01C
:101F60002C2F2695269580E2289F900111248C2FF6
:101F70008370C1E0D0E002C0CC0FDD1F8A95E2F78C
:101F8000C22BD32BDD68D4CFC03A82E5D80760F4EA
:101F9000C03882E5D80708F459C0CF71D0E0DC2FF3
:101FA000CC27C46FD06AC4CFC03C82E5D80708F400
:101FB00062C0C03E82E5D80708F09CCFDC2FCC275A
:101FC000CC27DF71C06FD06AB3CFC55AD0E0C654FA
:101FD000DE4FC881D0E0D064ABCFD065A9CF8D2FC4
:101FE0000E942611182FCE0199270E948410C12F1C
:101FF000D0E0DC2FCC27CC27DF71C82BD92B98CF92
:10200000CE0199270E948410CC27DF70C82BD92BD2
:10201000D06A8ECFCF71D0E0DC2FCC27C16FD06AD1
:1020200087CF2C2F26952695277080E2289F900138
:1020300011248C2F8370C1E0D0E002C0CC0FDD1FD3
:102040008A95E2F7C22BD32BDC6872CF2C2F269512
:102050002695277080E2289F900111248C2F837091
:10206000C1E0D0E002C0CC0FDD1F8A95E2F7C22BA1
:10207000D32BDA685DCF8C2F8F710E942611C82F69
:10208000D0E0DC2FCC27CC27DF71D06251CF8C2F52
:102090008F710E94261155E0D695C7955A95E1F7A4
:1020A000CF70D0E0DC2FCC27282F30E084FF05C094
:1020B00044E0220F331F4A95E1F7C22BD32BD0699E
:1020C00037CF8D2F8F710E942611182FCE0199279F
:1020D0000E948410C12FD0E0DC2FCC27CC27DF71E9
:1020E000C82BD92BD2CF462F7A3030F4673020F46A
:1020F000672F0E945003089590E080E008950E94A9
:1021000073100E94550F089582389105B9F1B0F40B
:102110008133910509F47DC048F48932910509F4B1
:102120006DC08A32910509F47BC00895853391050D
:1021300009F45FC08933910509F10895833E910543
:10214000D9F138F4803E910529F1823E910579F16B
:102150000895863E9105D9F1873E910509F43EC068
:10216000843E910541F52091460321FF24C08091D2
:10217000450384FD19C087EE90E008952091450342
:10218000237009F05AC02091460323FF14C089E24E
:1021900090E008952091450320FD38C0309146031A
:1021A00030FF09C024FF43C090E080E008952091F3
:1021B000450322FDF7CF08952091450322FD3AC043
:1021C0003091460330FD39C024FFF5CFEDCF20918B
:1021D000450323FFF0CF24FDE7CFCDCF209145036A
:1021E00023FD2EC03091460331FFEECF84EE90E008
:1021F00008952091450325FFDECFC9CF20914503E7
:1022000025FD21C02091460323FFD5CF89E390E02F
:10221000D2CF2091450326FFCECF8AE290E00895E9
:102220002091450326FFC7CF81E390E0089583EE18
:1022300090E0089582EE90E0089580EE90E0089599
:1022400086EE90E0089585E390E00895909145032F
:1022500092FF10C041E0282F2471243009F040E0A3
:1022600031E0282F2871283009F030E0431711F0B1
:102270002CE0822793FF10C041E0282F24712431E5
:1022800009F040E031E0282F2871283109F030E0D2
:10229000431711F02CE082273091460330FF10C025
:1022A00051E0282F2171213009F050E041E0282F22
:1022B0002871283009F040E0541711F029E08227F6
:1022C00031FF10C041E0282F2171213109F040E099
:1022D00031E0282F2871283109F030E0431711F040
:1022E00029E0822794FD877E089510924103109281
:1022F000420310924303109244030895CF92DF9259
:10230000EF92FF926B017C010E94881381110EC035
:102310000E941826C61AD70AE80AF90AC092410391
:10232000D0924203E0924303F0924403FF90EF9077
:10233000DF90CF9008950F931F930E9488138823F6
:1023400029F00E9418261F910F9108950E941826C7
:1023500000914103109142032091430330914403C3
:10236000600F711F821F931FEECF0E948813882376
:1023700019F00E940C2608950E949B11CB0108952C
:1023800080E0089508950E94D30D811102C00E943B
:10239000710E0E94DE0D809390020E94E80D9093D2
:1023A0004603809345030E94C2110E94E30D90E012
:1023B0000E94690880912202909123020E948A085B
:1023C000089508950E94E111089508950E94E5116D
:1023D0000895E82FF0E0EE5AFC4F808108950895AB
:1023E00080EA8A95F1F7089500C008950E94F011DF
:1023F000089508950E94F9110895A5E0B0E0E3E082
:10240000F2E10C94862F0E948813F82E60915C03F1
:10241000882309F440C085E0E82E8E010F5F1F4F2E
:10242000F8018E2D11928A95E9F7862F90E0B80178
:102430008E5A9C4F0E94BB138823B9F080914703AA
:1024400090E045E050E0B8018E5A9C4F0E94673002
:1024500021E020939102892B91F4F12C0E94E61146
:102460008F2D2596E6E00C94A22F8091910288236F
:10247000A1F3F8011192EA94E9F710929102A09168
:102480004703B0E0AE5ABC4F85E0F80101900D92D1
:102490008A95E1F7E3CF70E06E5A7C4F8091470355
:1024A00090E08E5A9C4F0E9442140E94FA11D8CF9D
:1024B000F894E82FE295EF70F0E031A1282F2F700B
:1024C00081E090E001C0880F2A95EAF7982F909557
:1024D000932391A392A1892B82A378940895CF93FB
:1024E000DF93C4ECD1E089918F3F11F00E94581224
:1024F00081E0C93CD807B9F7CDEBD1E089918F3F96
:1025000011F00E94581281E0C43CD807B9F7DF915E
:10251000CF910895B0E0A0E0E0E9F2E10C94842FBF
:10252000EC01D62E062F10E0C8018C539E4F7C0183
:10253000FC0180818F3F09F445C0F894E82FE295B3
:10254000EF70F0E091A18F7021E030E001C0220F28
:102550008A95EAF7892F822B81A382A120952823CF
:1025600022A378940E94F411EDEBF1E044EC51E0E9
:1025700031E0C12C21912F3F51F1A22FA295AF70D4
:10258000B0E090968C9190E02F7002C09595879561
:102590002A95E2F780FD1BC0832FC82A330F4E1700
:1025A0005F0741F7F70180818F3F11F00E945812B9
:1025B00061E0C11001C060E08D2D0E94F611C00FD6
:1025C000D11FC882CDB7DEB7E8E00C94A02F80E021
:1025D000E4CF809106018091060195E0811190E0A1
:1025E00090935C0385E0891B809347030E946F12E0
:1025F0008AE0E2E5F3E0DF01982F1D929A95E9F772
:10260000E8E4F3E0DF011D928A95E9F785E00E9496
:102610004A130E94E2110895AAE0B0E0E2E1F3E17A
:102620000C94872F8E010F5F1F4F8AE0F8011192E3
:102630008A95E9F7F12C6F2DC8010E948A12F39454
:10264000F5E0FF12F8CF4AE050E0B80188E493E0EB
:102650000E94673021E0009709F420E0892B41F0C7
:102660008AE0F801A8E4B3E001900D928A95E1F7C1
:1026700060915C0370E06E5A7C4F45E088E493E023
:102680000E944B13182F0E94FD11812B2A96E5E022
:102690000C94A32F0895CF92DF92EF92FF920F93A5
:1026A0001F93CF936C017B01042F222349F081E01B
:1026B000809394020E940C2690939302809392023E
:1026C000C0919402C1110AC0C0E08C2FCF911F911C
:1026D0000F91FF90EF90DF90CF900895809192023C
:1026E000909193020E942426059770F310E0A801B0
:1026F000B601C7010E946730892B41F0A801B601DD
:10270000C7010E94743010929402DFCFC0E0FBCF6B
:1027100080919702811107C00E94D22E882351F028
:1027200081E08093970281E090919702913009F0C7
:1027300080E0089582E0809397020E94CD2EF3CF2F
:102740000E94881308950E94A013809306010E949E
:10275000881381110E94F11308950E94881381113A
:1027600002C00E94F413089581E0909198029A307B
:1027700008F080E008950F931F93CF93DF93EC014F
:102780008B01809198028A30B8F4B801CE010E9482
:102790003F14C82F811122C0809198028F3FB9F455
:1027A0000E940C2690939602809395028C2FDF91C5
:1027B000CF911F910F91089580919502909196026B
:1027C0000E942426843F914000F7C0E0EFCF8F5F46
:1027D000809398028A3020F7C1E0E8CF10929802E7
:1027E000E5CF0E94E72608950E94EA260895B0E00A
:1027F000A0E0EDEFF3E10C94852F7901C82F880F4D
:10280000DD0B41155105A9F0FE0193E0EE0FFF1F0E
:102810009A95E1F7E95FFE4F8181928187569D4F3E
:10282000208130E04217530708F49A01A9010E9461
:102830007430CE010E94D327D82E8823D1F0011501
:102840001105B9F083E0CC0FDD1F8A95E1F7FE0199
:10285000E95FFE4F438150E00417150708F4A80113
:10286000C95FDE4F6C817D8167567D4FC7010E9435
:1028700074308D2DCDB7DEB7E7E00C94A12F0E9408
:102880006C1508950E948D150895A4E0B0E0EBE466
:10289000F4E10C94882F6091BB027091BC0280918E
:1028A000BD029091BE020E94332611E0643671058C
:1028B0008105910518F10E949B116E5F7F4F8F4F2C
:1028C0009F4F69837A838B839C8310E000E030E024
:1028D00020E044E050E0BE016F5F7F4F82E00E9445
:1028E000F713182F882351F00E9418266093BB021B
:1028F0007093BC028093BD029093BE02812F2496F8
:10290000E4E00C94A42FB0E0A0E0E9E8F4E10C943A
:10291000822F7C015B016A010E94B41301E010E088
:10292000882311F00AE010E0C1E0D0E0B501C70152
:10293000F6010995811104C021960C171D072CF48E
:10294000CDB7DEB7EAE00C949E2FCC9F9001CD9FCF
:10295000300D300D112490E080E045E34A95F1F709
:102960000000019682179307C1F7E0CFABE0B0E01B
:10297000ECEBF4E10C94882FCE0101960E94741EBA
:102980001B856091BF027091C0028091C10290913D
:10299000C2020E943326643671058105910510F448
:1029A0001123C1F010E000E030E020E04BE050E007
:1029B000BE016F5F7F4F83E00E94F713882369F0A9
:1029C0000E9418266093BF027093C0028093C102D8
:1029D0009093C2020E94711E81E02B96E4E00C9459
:1029E000A42FA6E0B0E0E7EFF4E10C94822F7B0186
:1029F000C090C901D090CA0101E010E09E012A5F99
:102A00003F4F50E040E070E060E080E00E94F7134C
:102A1000182F882309F448C056018FEFA81AB80A66
:102A20006091B7027091B8028091B9029091BA0298
:102A30000E943326643671058105910568F105E031
:102A400010E09E012F5F3F4F50E040E070E060E0FB
:102A500081E00E94F713D82E65E070E0C5010E9466
:102A6000552111E09E81981310E01D2141F10E9433
:102A700018266093B7027093B8028093B9029093BE
:102A8000BA0285E0FE013196A2EBB2E001900D9210
:102A90008A95E1F711E013C065E070E0C5010E947E
:102AA00055219E818913CBCF85E0F6013196DE0159
:102AB000119601900D928A95E1F71111E2CF85E010
:102AC000E2EBF2E0D70101900D928A95E1F7812FB8
:102AD0002696EAE00C949E2F0F931F93CF93DF93DB
:102AE000EC018B0141EF54E10E948314811106C077
:102AF00080E0DF91CF911F910F91089545E454E15B
:102B0000B801CE010E948314882391F346EB54E16F
:102B1000B801CE010E948314ECCFABE0B0E0E3E952
:102B2000F5E10C94842F0091C9011091CA01C801EC
:102B3000019625E0FB01DC0101900D922A95E1F759
:102B400065E070E00E945521F801808366817781FD
:102B500080859185C090AE02D090AF02E090B00227
:102B6000F090B1026C157D058E059F0551F06093C4
:102B7000AE027093AF028093B0029093B1020E94B4
:102B80007E118BE0F8013A96DE01119601900D92CC
:102B90008A95E1F7F801148A8B85882329F060E093
:102BA000CE0101960E94991F2B96E8E00C94A02F6D
:102BB0000E94A3290E94D40E0E94B02908950E9469
:102BC000B5290E94E70E0E94CF2908950E94A525ED
:102BD0000E9489290E94BC0E0E94D8150E94DF1510
:102BE0000E94CA0EFBCF9093F7018093F6010895DF
:102BF000282F35EB2303C001112497FF04C0805810
:102C00009109892F089580589F4FFBCF8091C90269
:102C100080FF12C060912C0188E0689FB0011124F0
:102C200075956795759567956038710570F56115AF
:102C3000710569F1862F089581FF07C060912C010D
:102C400084E0689FB0011124EFCF60912C0182FDD8
:102C50000AC08091C8028823A9F020912B016091BD
:102C60002C01821710F088E0ECCF869FC001112460
:102C700033E0880F991F3A95E1F7622F70E00E94C8
:102C80000D2FD2CF68E070E0D5CF8FE7089581E0B7
:102C900008958091C90280FF0CC06091280170E006
:102CA00075956795759567956115710549F1862F3D
:102CB000089581FF06C06091280170E075956795C1
:102CC000F3CF6091280182FD0BC09091C702992338
:102CD000A1F06091270180912801961738F0682FA4
:102CE00070E06038710500F38FE70895899FC00197
:102CF000112470E00E940D2FF4CF61E070E0D7CF77
:102D000081E008958D3C31F40E94061681958093F0
:102D1000CD0208958E3C19F40E940616F8CF8F3C20
:102D200031F40E94061681958093CC020895803D6F
:102D300019F40E940616F8CF893D29F40E9449161D
:102D40008093CE0208958A3D21F40E944916819510
:102D5000F7CF8B3D31F40E94491681958093CF02C5
:102D600008958C3D19F40E944916F8CF9FE2980F00
:102D7000983070F4815D990B21E030E001C0220FA2
:102D80008A95EAF78091CB02822B8093CB0208953B
:102D90008D3D31F48091C90281608093C90208950C
:102DA0008E3D21F48091C9028260F7CF8F3DB9F743
:102DB0008091C9028460F1CF4091CC028D3C59F4DE
:102DC0008091CD0287FF0DC01092CD0241110BC042
:102DD0001092C80208C08E3C81F48091CD02181672
:102DE0009CF3442381F08091CE029091CF02892BF5
:102DF00009F05AC01092C70208958F3C49F447FF6A
:102E0000F0CF1092CC028091CD028111ECCFE0CFB7
:102E1000803D19F41416ACF3E4CF9091CE02893DB5
:102E200029F41916F4F61092CE02DBCF8A3D19F47C
:102E300097FFD7CFF8CF9091CF028B3D29F497FF22
:102E4000D0CF1092CF02CDCF8C3D19F41916CCF310
:102E5000C8CF9FE2980F983090F4815D990B21E0E4
:102E600030E0B90102C0660F771F8A95E2F7CB0107
:102E700080959091CB0289238093CB02B2CF8D3D78
:102E800031F48091C9028E7F8093C902AACF8E3D12
:102E900021F48091C9028D7FF7CF8F3D09F0A1CF3A
:102EA0008091C9028B7FF0CF08950E940C269C016F
:102EB0009091CC028091CD02982B21F03093C602E4
:102EC0002093C5029091CE028091CF02982B21F0E1
:102ED0003093C4022093C3028AEC92E00E948D24B6
:102EE000089586E0EAECF2E0DF011D928A95E9F7A9
:102EF0001092C8021092C7021092C9020895FC01F4
:102F0000828181110EC0838181110BC08481811166
:102F100008C091E08581811101C090E0892F817006
:102F2000089581E0FCCFA6E0B0E0E9E9F7E10C9478
:102F3000892F86E0EAECF2E0DE01119601900D9215
:102F40008A95E1F71092CC021092CD021092CE0237
:102F50001092CF028B819C81892B89F08091C502D0
:102F60009091C6020E942426AC019091C802992338
:102F7000C9F180912D018417150608F440C08D8198
:102F80009E81892B91F08091C3029091C4020E948E
:102F90002426AC019091C702992309F46AC080915C
:102FA00029018417150608F472C0BE016F5F7F4FB8
:102FB0008AEC92E00E943A25811105C08AEC92E0E9
:102FC0000E947F1781110E94551786E0FE013196FD
:102FD000AAECB2E001900D928A95E1F72696E3E023
:102FE0000C94A52F20912E018AE0289F9001112496
:102FF0002417350720F69F5F9093C80202C09F3FB9
:10300000D1F71B81112359F00E9406169FEF11166C
:103010000CF491E0899F802D11248093CC021C81B7
:10302000112359F00E9406169FEF11160CF491E03F
:10303000899F802D11248093CD028091CC0288231A
:1030400009F49DCF1091CD02112309F498CF0E946D
:10305000F815882351F08093CC02812F0E94F81537
:10306000882329F08093CD028ACF81E0F4CF81E0DC
:10307000F9CF20912A018AE0289F9001112424177A
:10308000350708F092CF9F5F9093C70202C09F3F21
:10309000D1F71D81112359F00E9449169FEF111697
:1030A0000CF491E0899F802D11248093CE021E8123
:1030B000112359F00E9449169FEF11160CF491E06C
:1030C000899F802D11248093CF028091CE02882386
:1030D00009F46BCF1091CF02112309F466CF0E943F
:1030E000F815882351F08093CE02812F0E94F815A5
:1030F000882329F08093CF0258CF81E0F4CF81E07C
:10310000F9CFEF92FF920F931F93CF93DF93F62E99
:10311000172FE82F71110EC0442321F0F0E0EA5080
:10312000FC4FE4916E2F7E2F8E2FCDB7DEB7E6E0F9
:103130000C94A22FC72FD0E0282F30E0442329F091
:103140002A503C4FF901249130E0F6E0FF9EC00187
:103150001124EFEFF0E0BF010E94F92EAB016F2DBB
:10316000660F6F0D660F640FCF018C1B9D0B829F46
:103170007001839FF00C929FF00C11248F2D619FA2
:10318000D0011124AB2FBB278F010A1B1B0B029F01
:10319000D001039FB00D129FB00D11248F01061BAB
:1031A00011090C9FB0010D9F700D1C9F700D112413
:1031B000672F7727E61BF70BE29FE001E39FD00D17
:1031C000F29FD00D1124ED2F722F4230510599F04E
:1031D00048F44115510569F04130510581F0EF2D5A
:1031E0008B2F07C04430510569F080F046305105FF
:1031F000B1F76E2F9ACFE22F7F2D8D2FFACFE22FCE
:103200007B2FF7CFEF2D822F7D2FF3CF7F2D822FB6
:10321000EB2FEFCF41E00E948118089508950E949E
:103220000A190895CF93DF93762FE901682F842F31
:103230000E940F19798368838A83DF91CF91089563
:1032400080915D03982F9E7F29F481708260809326
:103250005D0308958635E8F381708465F8CFB0E0AA
:10326000A0E0E5E3F9E10C94842F88E090E00E946F
:1032700085306B017C0184E290E00E947D30282F34
:1032800030E040E050E060E070E080E090E000E29C
:103290000E94B12FB22FA32FF42FE52FD62FC72FC7
:1032A00097018601BC29A12BFE295E2F532B2B2FC2
:1032B0003A2F4F2F6D2F7C2FCDB7DEB7E8E00C945F
:1032C000A02FB0E0A0E0E7E6F9E10C94802F4901DF
:1032D0005A016B017C010E9420198401A4016A2D0E
:1032E0007B2D88E090E00E94B33094014A2D5B2D45
:1032F000B601C70100E20E94CC2F622F84E290E069
:103300000E94A130CDB7DEB7ECE00C949C2FEDE528
:10331000F3E083E0808311828FEF828383831482C2
:10332000A3E2B3E012968C911297836012968C936D
:10333000758123E030E04FEF5FEF60E08681978199
:103340000E946119089580915D0380FF02C08695F7
:10335000089580E0089590916103933018F49F5F81
:1033600090936103882391F020915D0330915E0377
:1033700040915F035091600360916103709162031B
:1033800080916303909164030E946119089581E024
:103390000E94AB19089590916103992319F09150FF
:1033A00090936103882391F020915D0330915E0337
:1033B00040915F03509160036091610370916203DB
:1033C00080916303909164030E946119089581E0E4
:1033D0000E94CB19089570E00E9428210895609101
:1033E000330180915D0380FF0BC08091320123E0A7
:1033F000829FC00111248B599C4F0E94EB190895A4
:10340000809134019091350123E0829FF0011124D5
:10341000EB59FC4F891748F71182108212828F5F97
:103420003396F8CF90915D0390FF0EC090913401D8
:103430002091350133E0939FF0011124EB59FC4FAB
:10344000921718F00E94EF190895818360834283D8
:103450009F5F3396F5CFA3E0B0E0E1E3FAE10C948F
:103460008A2F90915D0390FF0AC09E012F5F3F4F0E
:103470000E9412194B8169818A810E94121A239637
:10348000E2E00C94A62FCF93DF93EC01EC81F0E007
:10349000EF50FD4F4491EDE5F3E0628181810E94A0
:1034A0002B1A8C818F5F8C83DF91CF910895CF93FE
:1034B000DF93EC01EDE5F3E0438162818C810E94B2
:1034C0002B1A8C818F5F8C83DF91CF910895A3E0BD
:1034D000B0E0EDE6FAE10C94882F8C018091D002E7
:1034E00081110AC09E012F5F3F4F4FEF6FEF0E9487
:1034F00012198A818093D002F8016481613069F0E9
:103500008091D00240E0662361F040E0623011F427
:103510004091D00280E060E004C06091D00240E0C1
:1035200080E00E94121AF801848190E0019663E025
:1035300070E00E940D2F84832396E4E00C94A42F66
:10354000A3E0B0E0E6EAFAE10C94832F082FE62E20
:10355000F42EC22E90915D0390FF40C020915E0337
:10356000281308C080915F03861304C08091600314
:10357000841729F080912503826080932503E92F29
:10358000E695AE2FB0E0A553BE4F8C9180932303F8
:103590009E7F923039F59E012F5F3F4F4F2D6E2D4C
:1035A000802F0E9412194B8169818A810E94121A10
:1035B00000935E03E0925F03F0926003CC2071F011
:1035C00020915D036091610370916203302FA70128
:1035D00080916303909164030E9461192396E9E04E
:1035E0000C949F2F823019F4F0906003E1CF863065
:1035F000A1F1893091F18931D9F6E9516E2F6170CD
:10360000B62EE695F0E0EF50FC4F1491D12C60916E
:103610003601D61618F00E94EF19CACFD19EC0010C
:10362000112470E00E94F92E802FB11014C0860F73
:1036300020913401622F6D0D7727771F9B01220F98
:10364000331F260F371F2B593C4F4F2D6E2D0E94D5
:103650001219D394DCCF861BEBCF022FA9CFEDE557
:10366000F3E09181282F4381628188E0890F0E94D5
:10367000A01A089581E00E942F1B0895EDE5F3E064
:103680009181282F4381628188EF890F0E94A01ABF
:10369000089581E00E943E1B0895EDE5F3E062810C
:1036A00028E0620F08F46FEF282F438181810E9488
:1036B000A01A089581E00E944D1B0895EDE5F3E006
:1036C000628128E0621B08F460E0282F4381818139
:1036D0000E94A01A089581E00E945E1B0895EDE506
:1036E000F3E0438128E0420F08F44FEF282F628176
:1036F00081810E94A01A089581E00E946F1B0895A5
:10370000EDE5F3E0438128E0421B08F440E0282F78
:10371000628181810E94A01A089581E00E94801B2D
:10372000089520E00E94A01A0895EF92FF921F933F
:10373000CF93DF93EC0110E0EE24EA94F12C60913A
:103740003601161770F00E94EF199A818C8190FF54
:1037500027C08F5F8C83DF91CF911F91FF90EF90F7
:10376000089520913401422F410F5527551FCA015A
:103770009A01220F331F280F391F2B593C4F70E03D
:10378000C7010E940D2F962F8C814091600360919C
:103790005F03199F800D11240E9412191F5FCFCF64
:1037A0008150D8CFB0E0A0E0E8EDFBE10C94802F91
:1037B000EC018A81BB24BA9480FD02C0BB24B3947F
:1037C0008C8181110AC081E0B81222C0809136013B
:1037D00081508093D20281E08C83A12C4EE0942E04
:1037E00080913601A816B8F00E94EF198091D2029C
:1037F00091E0B91259C0811152C0809136018150B7
:103800008093D2021C82CDB7DEB7ECE00C949C2FE3
:103810001092D202E0CF00913401CA2CD12C0C0DB1
:103820001D2D111DC801880F991F080F191F0B5955
:103830001C4FF80111821082128234E0E32EF12C29
:10384000812C8091D202880D8F301CF1692D0E944D
:10385000EB2E892F082E000C990BC816D90691F46F
:10386000809160038E9DA0018F9D500D1124559570
:10387000479555954795980160915F0380915E0348
:103880000E9412198B0CF1E0EF1AF108D1F6A39403
:10389000A7CF87FFDFCF90913601890FDBCF815013
:1038A0008093D202BC82AFCF90E001966091360146
:1038B00070E00E940D2F8093D2028C83A4CFEF92F0
:1038C000FF920F931F93CF93DF93EC018C818111B3
:1038D00009C081E08C831092D10292E09093310173
:1038E00080933001809134019091350123E0829FD3
:1038F000F0011124EB59FC4F891758F110E003E057
:1039000060913601161758F10E94EF19809130012D
:103910002091D102280F2093D10290913101980F6C
:1039200090933101191654F4022E000C330B409180
:1039300036014150550B2417350734F0819580939B
:103940003001813009F41C82CDB7DEB7E6E00C947B
:10395000A22F1182108212828F5F3396CDCFE12E7B
:10396000F12C70E0C7010E940D2F20913401820FCD
:10397000482F50E02091D102022E000C330BE216AA
:10398000F306BCF020913101022E000C330B2E15F2
:103990003F057CF0809F900111242B593C4F4091B2
:1039A000600360915F0380915E030E9412191F5FA4
:1039B000A7CFFA01EE0FFF1FE40FF51FEB59FC4FE5
:1039C000118210821282F3CFB0E0A0E0EAEEFCE1B7
:1039D0000C94802F8C01FC014481C42FD0E09E0107
:1039E000DE010E94512F9B01AC010E94672F4B0109
:1039F0005C01E0E2F0E0EC1BFD0BA5E5B0E0AC0102
:103A00009B010E94672F6B017C019F01DF010E94D7
:103A1000492F9B01AC010E94722F9B01AC01280D24
:103A2000391D4A1D5B1DC701B6010E94212F422F7F
:103A3000F22E822F90E02A3230F5F3E02F9F900192
:103A4000112435952795C22FC095D0E085E5E82E45
:103A5000E41A80913601D81730F10E94EF19F8016D
:103A6000948181E0992319F0903219F48FEF8093BB
:103A70002F0180912F01890FF8018483CDB7DEB724
:103A8000ECE00C949C2F9C01220F331F220F331F5C
:103A9000BC01621B730B9B0121503F4F37FFD1CFFD
:103AA0002F5F3F4FCECF8E2DD1FD8F2D2091340132
:103AB000E22FED0FFF27FF1F9F01220F331F2E0F55
:103AC0003F1F2B593C4F4C2F60915F030E941219EE
:103AD000DF5FBFCF0F931F93CF93DF93EC0110E015
:103AE00000E0909136019017110609F06CF40E94E5
:103AF000EF198C8190E00196817099278C83DF917A
:103B0000CF911F910F91089520913401A801420F88
:103B1000511D9A01220F331F240F351F2B593C4F83
:103B20004C8160915F0380915E039695901711061A
:103B300051F04CF0442349F0409160030E94121967
:103B40000F5F1F4FCECF4423B9F340E0F7CFB0E073
:103B5000A0E0EDEAFDE10C947C2FFC016280448042
:103B600081E08483E1EFF2E07490E0E7F3E0E49138
:103B7000C0916003C695C158D0E0CC0FDD1FCD2F9A
:103B8000DD27812C75E0972EAA24AA94B12C552408
:103B90005A94E719EE2EF12C80913601881638F0F0
:103BA0000E94EF19CDB7DEB7E0E10C94982FC82C36
:103BB000D12C82E0861568F09C9CF0019D9CF00D54
:103BC0001124EA52FD4F80915E03808380915F0350
:103BD0008183411023C09C9CF0019D9CF00D112419
:103BE000EA52FD4F1382128220913401C601820FE6
:103BF000911D9C01220F331F280F391F2B593C4F59
:103C00009C9CF0019D9CF00D1124EA52FD4F4281D5
:103C1000618180810E9412198394BECF9C9C800197
:103C20009D9C100D11240A521D4FF8018381882399
:103C3000F1F081508383859DC0011124648170E07F
:103C40000E94F92EFB01FF27EF50FD4F8491E82FD2
:103C5000E719E59DC0011124B7010E94F92E80915A
:103C60006003689FB0011124F8017283BDCF0E94E8
:103C70004A30B5010E940D2F8C179D070CF0B4CF70
:103C8000F2E0F61598F40E944A30B5010E940D2F1B
:103C9000F80180830E944A3020915F032695622FAD
:103CA00070E00E940D2F280FF80121839C9CF001E9
:103CB0009D9CF00D1124EA52FD4F12828091600309
:103CC000893C58F088EC9C9CF0019D9CF00D1124DF
:103CD000EA52FD4F8483838387CF8431A0F784E148
:103CE000F2CF10922503089528E0EDE5F3E0DC0122
:103CF00001900D922A95E1F720912303309124033E
:103D000040912503FC012087318742870895E3E233
:103D1000F3E011828281846082830895EDE5F3E00F
:103D200080818E7F80830E94871EE3E2F3E08281A0
:103D3000816082830E94EF190895EDE5F3E0208110
:103D40002E7F2083318142815381648175818681F8
:103D500097810E9461190E94871EE3E2F3E082814D
:103D6000816082830E94EF19089560915D036695DA
:103D700070E04BE050E087E391E00E945A30892BDD
:103D800019F481E0809324030E94B51190931D03E0
:103D900080931C03809125038460809325030895FC
:103DA00090915D0390FF38C09170811136C0926090
:103DB00090935D03809125038160809325036623A2
:103DC00091F020915D0330915E0340915F0350912B
:103DD000600360916103709162038091630390912D
:103DE00064030E94611960915D03669570E04BE089
:103DF00050E087E391E00E945A30892BA9F00E949D
:103E0000871E81E080931F034091600360915F03F0
:103E100080915E030E94911B08958B3210F094658F
:103E2000C7CF880F982BC4CF0E94B51EEACF682F4A
:103E300090915D03969581E0890F8B3208F081E0C7
:103E40000E94D01E089581E00E94171F0895682FD8
:103E500090915D0396958FEF890F09F48AE20E9495
:103E6000D01E089581E00E94271F089561E00E94FE
:103E7000D01E0895EDE5F3E0808181608083869512
:103E80000E94361F089580915D0380FF03C00E9449
:103E90009D1E08950E943A1F089560E00E94D01E62
:103EA000089580912203811143C00E94D30D811196
:103EB00004C00E94710E0E9487190E942F1920933E
:103EC0005D0330935E0340935F0350936003609300
:103ED0006103709362038093630390936403809102
:103EE00025038360809325032E7FA1F40E94871908
:103EF0000E942F1920935D0330935E0340935F036C
:103F00005093600360936103709362038093630333
:103F1000909364030E9420190E94871E80915D0384
:103F200080FF03C086950E944D1F81E0809322038D
:103F300008951F93CF93DF93EC01162F8A8580FF9E
:103F40000CC0888180FF24C080915D0381608093D4
:103F50005D03888186950E94D01E8A8581FF06C0F8
:103F6000212F4B816A8189810E94A01A8A8582FF54
:103F700005C08985882379F00E94B51E8A8583FF54
:103F800003C081E080931F03DF91CF911F910895BB
:103F90000E948E1EE2CF0E94871EF0CFEF92FF920A
:103FA0000F931F93CF93DF9380912403882309F409
:103FB00063C080912303E0915D03E695E81BE093E5
:103FC0001E03823009F05DC0F0E0E351FD4FE49143
:103FD000CE2FD0E003E41AE180911F03882361F023
:103FE00010921F030E94B51190931D0380931C0330
:103FF00010922103109220030E94B511E0911C033E
:10400000F0911D039C012E1B3F0B2F3F3F47A0F556
:104010002091D5022223B1F01092D5022091D30233
:104020003091D402821B930B8F3F9F4758F4205D41
:104030003A483093D4022093D302809125038860BC
:1040400080932503E0902003F0902103EC0FFD1FE7
:10405000F0931D03E0931C038CE193E0F8010995B4
:104060008091200390912103892B31F4E114F10414
:1040700019F081E08093D502CDB7DEB7E6E00C946D
:10408000A22F863049F4F0E0E651FD4FE491CE2FA7
:10409000D0E007E51AE1A0CF893051F4E695F0E0D1
:1040A000E951FD4FE491CE2FD0E005E91BE194CF1B
:1040B0008F3051F4E695F0E0EC51FD4FE491CE2FB6
:1040C000D0E002ED1BE188CF853149F4F0E0EF51FB
:1040D000FD4FE491CE2FD0E00FE51CE17DCFC8E28B
:1040E000D0E004EE1CE1883109F476CF833239F454
:1040F000EFEDF2E0C591D49107E61AE16DCFC4EF80
:10410000D1E00AE61DE1843209F466CFC0EDD7E0C4
:104110000EE019E1853209F05FCF8E2F63E00E9437
:10412000DF2EE92FF0E0E452FD4FE491CE2FD0E0F6
:1041300007EA1DE151CFFA01811101C0FB01099588
:104140000895CF93DF93C82FD62F0E94A3198C1701
:1041500048F00E94A3198D1728F40E94231FDF91B5
:10416000CF9108958C2F0E94361FF9CF1F93CF93C4
:10417000DF93EC01FB011581111110C00E94D20CDC
:104180008272FE01E052F847E531F10508F05EC0A9
:10419000EE5FFE4C0C94432F0E94431F812FDF9152
:1041A000CF911F91089542E35FE163E27FE10E94B6
:1041B0009B20F4CF43E25FE162E37FE1F8CF49E483
:1041C0005BE16AE37BE1F3CF4AE35BE169E47BE136
:1041D000EECF4BE65BE16AE57BE1E9CF4AE55BE1E7
:1041E0006BE67BE1E4CF4DE85BE16CE77BE1DFCFA1
:1041F0004CE75BE16DE87BE1DACF47EE59E167EC34
:1042000079E1D5CF47EC59E167EE79E1D0CF81E094
:104210000E94361FC3CF65E082E00E94A120BECF7E
:1042200068E086E0FACF6EE089E0F7CF64E18FE0E6
:10423000F4CF67E185E1F1CF88E1EACF62E289E17D
:10424000ECCF83E2E5CF6AE285E2E7CF11E0A6CFCB
:10425000539A4BB1477F5BB15860EFB7F8949B011D
:10426000220F331F260F371F280F391F2817390732
:1042700041F4EFBF8FE594E00197F1F700C0000033
:104280000895DC016D91CD0178E05BB9000000C0BC
:1042900067FF4BB9660F000000C000C000C04BB9FB
:1042A00000C07A9591F7E2CF0895FC01680F791F5D
:1042B0008FEF91E36E177F0709F40895219182270C
:1042C00028E030E087FF06C0880F89272150310998
:1042D000C9F7F0CF880FFACFCF93DF93EC01FB0142
:1042E0008581882309F4D2C09E01305723323105DD
:1042F00008F0B2C00E94E80D9093460380934503F6
:10430000FE01E150F047E232F10520F4E95EFE4C97
:104310000C94432F8091450381608093450393C0A3
:10432000809146038860809346038DC08091450349
:104330008260F3CF809145038460EFCF8091450385
:104340008860EBCF809146038160EDCF809146037A
:104350008260E9CF809145038061DFCF8091450382
:104360008062DBCF809145038064D7CF0E941C0818
:10437000809145038068D1CF809145038C60CDCF7B
:10438000809146038360CFCF809145038E7FC5CF58
:1043900080914603877FC7CF809145038D7FBDCF36
:1043A000809145038B7FB9CF80914503877FB5CF3F
:1043B000809146038E7FB7CF809146038D7FB3CF28
:1043C000809145038F7EA9CF809145038F7DA5CF36
:1043D000809145038F7BA1CF0E941C0880914503EB
:1043E0008F779BCF80914503837F97CF8091460342
:1043F0008C7F99CF8091450382FB992790F921E02A
:10440000922790FB82F990FB83F987CF8091460336
:10441000982F909591708E7F892B90FB81F983CF97
:1044200090914503892F8F7B96FF806476CF0E9401
:104430001C0890914503892F97FB87F980586DCF11
:1044400081E00E94740E80914503909146030E9482
:10445000ED0D0E941C0880E0DF91CF91089580E06F
:10446000F0CF90914503892F8F7E94FF806155CFC7
:1044700090914503892F8E7F90FF81604ECF909160
:104480004603892F877F93FF88604DCF81E0E4CF7B
:104490008B3109F465C040F58B3071F078F48630CB
:1044A00009F447C020F4853059F180E00895873041
:1044B00009F448C08830C9F781E00895803109F4D3
:1044C0005DC068F48E3089F790919002892F8B7FC0
:1044D00092FF84608093900282FD4CC0EDCF8631C4
:1044E00059F3893149F3E1CF8A3201F160F487321F
:1044F000B1F020F48E31C8F28D514CC08932A9F64A
:104500000E94C403D9CF833440F48A3308F041C0F9
:10451000853329F0883381F2C8CF833431F681E0C6
:1045200090E00E9469080E941C08C6CF0E94710E8C
:10453000C3CF80919002807F8093900281E080932E
:104540002903089590919002892F8E7F90FF8160BA
:104550008093900280FDB0CF817F80939002ACCF9A
:1045600090919002892F8D7F91FF826080939002BD
:1045700081FFA2CF809190028160EFCF9091900255
:10458000892F877F93FF88608093900283FDF2CF0D
:1045900093CF895321E030E0A90102C0440F551F99
:1045A0008A95E2F7CA01BDCF80E008950E94D42227
:1045B0000895CF93C82F809129038130B9F08823C3
:1045C00031F08230A1F11092290380E00DC00E94E9
:1045D000D20C8232D1F78C2F0E94D42281111BC0C1
:1045E0008C2F0E9448228170CF9108950E94D20C96
:1045F000823289F38C2F0E94D62281110AC0C431E5
:1046000099F060F4CB3029F0C03169F782E08093F3
:10461000290381E0E8CF81E090E0E5CFC93221F0C5
:10462000C833B9F380E0DFCF10922903FBCFC93242
:1046300009F440C0F0F4C431E9F1A8F481E0C730D6
:1046400099F680932E0184E180932D018AE0809376
:104650002C018EE180932B0188E08093280188E271
:104660008093270104C082EE8C0F8A3070F181E0C4
:10467000BBCFC03509F450C0B8F48AE0CF34B9F7E5
:10468000E0912603F0912703309789F32081082ECB
:10469000000C990B820F911D8F3F910509F00CF4CE
:1046A0003FC08FEF8083E3CFC135C1F181E0C235D8
:1046B00039F39ACF809128038823C9F210922803F6
:1046C0001092270310922603D2CFCD51C093280316
:1046D000C330C9F04CF4C13099F08DE291E0C230A2
:1046E00051F010922803C3CFC53099F07CF087E2D7
:1046F00091E0C630B1F79093270380932603B7CF9C
:104700008EE291E0F8CF8CE291E0F5CF8BE291E080
:10471000F2CF88E291E0EFCF86EFB2CF8FEFB0CF4C
:1047200097FFC0CF1082A3CFCF93DF93EB018631E9
:104730009C4711F50E94D20C9D81992399F08A7AA9
:1047400091E009F490E090932A03811109C089E275
:104750000E94AA0C0E942B0D80E0DF91CF9108955A
:1047600085E3F6CF80912A03811104C089E20E947B
:10477000B20CF0CF85E3FBCF81E0EFCF0F931F9317
:10478000CF93DF93C42FD22FFC0185818823C9F0FA
:1047900040932D030E940C2690932C0380932B03AF
:1047A00080E28C0F883040F4C77081E001C0880F30
:1047B000CA95EAF70E94C805DF91CF911F910F912A
:1047C000089510912D03141332C080912B03909102
:1047D0002C030E942426883C910548F5C0E2CD0FA9
:1047E0001D17B9F080E2810F883040F4177081E026
:1047F00001C0880F1A95EAF70E94CF05C83048F427
:1048000081E09D2F977001C0880F9A95EAF70E946A
:10481000C805802F0E94BF05C83070F6D77081E0B0
:1048200001C0880FDA95EAF70E94CF05C5CF80E274
:104830008C0F883008F6C77081E001C0880FCA95D8
:10484000EAF7F2CF0F93DB0188519C47873091053F
:10485000A0F5FC01E75CFE4C0C94432F06E221EE30
:1048600041EE6AE17CE7CD010E94BE2380E00F911A
:10487000089507E225EE45EE6BE17CE7F4CF06E212
:1048800021EE40EE68E17CE7EECF07E225EE44EE54
:1048900069E17CE7E8CF06E221EE42EE6CE17CE7DD
:1048A000E2CF07E225EE46EE6DE17CE7DCCF08E2E1
:1048B00021E045EE6EE17CE7D6CF15968C918823FA
:1048C00019F010922D03D3CF81E0D1CF9093340310
:1048D0008093330308950E948813811103C080914F
:1048E0002E030895E0913303F0913403309729F0BB
:1048F0000190F081E02D0995089580E008950E94CF
:104900006B240895E0913303F0913403309721F044
:104910000280F381E02D09950895E0913303F09131
:104920003403309739F022E0DC012C930480F581C8
:10493000E02D09950895A3E0B0E0E1EAF4E20C94DB
:104940008A2F209131033091320328173907A1F0C3
:104950009093320380933103E0913303F091340359
:10496000309751F023E029839B838A830680F78167
:10497000E02DCE01019609952396E2E00C94A62F36
:10498000A3E0B0E0E6ECF4E20C948A2F20912F0330
:104990003091300328173907A1F0909330038093AA
:1049A0002F03E0913303F0913403309751F024E06A
:1049B00029839B838A830680F781E02DCE010196AF
:1049C00009952396E2E00C94A62F9C012E5F3F4FA1
:1049D000AC01485F5F4F80E02417350709F4089564
:1049E000F90191919F019923B9F38F5FF5CF662368
:1049F00049F0FC01329608962191261729F0E81714
:104A0000F907D1F780E0089581E008959C01FC0149
:104A100032969FEF80E04191461751F09F3F19F485
:104A2000411101C0982F8F5F8630A9F79F3F09F48D
:104A30000895290F311D97FD3A95F9016283089574
:104A4000FC01329608962191261303C0DF011197CD
:104A50001C92E817F907B9F708950E9406250895F2
:104A60000E9420250895029626E0FC0111922A95C5
:104A7000E9F70895DC01FB0111969C911197818162
:104A8000981322C012968C911297882319F0928164
:104A900089131AC013968C911397882319F0938168
:104AA000891312C015968C911597882319F095815A
:104AB00089130AC014969C91992321F081E02481E6
:104AC000291303C080E001C081E08170089508953A
:104AD0000E9467250895811106C081E08093350307
:104AE0000E946825089582E0F9CF83E08093350322
:104AF0000E94682508950E946B25089581E08093A7
:104B000035030E94682508950E947E250895089522
:104B100008950E9488250895089508950E94872584
:104B20000895CF930E948C250E940C130E948D251E
:104B3000C0E08C2F0E94E911811105C0CF5FCA30FF
:104B4000C1F7CF91089581E0FCCF85B7806885BF1C
:104B500085B7806885BF08951F921FB61F921124E4
:104B60008F939F93AF93BF9380913603811113C0AE
:104B700080918F0390919003A0919103B091920343
:104B80004196A11DB11D80938F0390939003A09334
:104B90009103B0939203BF91AF919F918F911F901A
:104BA0001FBE1F90189580919703843031F10E94A9
:104BB0002A041092360388E190E020E40FB6F894BE
:104BC000A895809360000FBE2093600083B7817F1B
:104BD000846083BF83B7816083BF7894889583B7EF
:104BE0008E7F83BF0FB6F894A8958091600088618E
:104BF00080936000109260000FBE08950E941C0810
:104C00000E942F04089582E084BD93E095BD9AEF41
:104C100097BD80936E0008952FB7F89480918F030D
:104C200090919003A0919103B09192032FBF0895AA
:104C30002FB7F89460918F03709190038091910346
:104C4000909192032FBF08959C014FB7F8948091E3
:104C50008F0390919003A0919103B09192034FBF65
:104C6000821B930B0895CF92DF92EF92FF922FB7A2
:104C7000F894C0908F03D0909003E0909103F0904F
:104C800092032FBFA7019601261B370B480B590B28
:104C9000CA01B901FF90EF90DF90CF90089578940A
:104CA0001F921FB61F9211248F939F93AF93BF93B0
:104CB00080918F0390919003A0919103B091920302
:104CC0000196A11DB11D80938F0390939003A09333
:104CD0009103B0939203BF91AF919F918F911F90D9
:104CE0001FBE1F90189587E797E790930108809360
:104CF000000888E19AE00FB6F894A89580936000C8
:104D00000FBE90936000FFCF88E19AE00FB6F89451
:104D1000A895809360000FBE90936000FFCF8EE156
:104D2000489B02C08150E1F7489BFECF08955898F8
:104D300080E28A95F1F7589A0895FC013BE03A9594
:104D4000F1F798E020E080E031E040E14A95F1F7AA
:104D5000880F489B02C08160232742E04A95F1F703
:104D6000000040E14A95F1F7915079F790E19A956A
:104D7000F1F799B132E03A95F1F7000040E14A9538
:104D8000F1F7917092272081920F90830895A1E00E
:104D9000B0E0EDECF6E20C94862F19828C017C01D8
:104DA000E60EF11C0E151F0541F481E09981911169
:104DB00080E02196E6E00C94A22F0E948F26CE017F
:104DC00001960E949D26F80181938F01EBCF509AA6
:104DD000589A08955098589AE89AE9E6F0E0808148
:104DE0008C7F808308956150770B91E001C0990F0B
:104DF0006A95EAF720E031E0911108C0222391F092
:104E0000589A80E28A95F1F758980895492F4823D7
:104E100039F0589A232740E24A95F1F79695ECCF5E
:104E20005898F9CF5898EDCFFF920F931F93CF93D7
:104E3000DF93EC018C01060F111DC017D10729F477
:104E4000CDB7DEB7E5E00C94A32FF9900E9497262A
:104E500068E08F2D0E94F326F0CF1F920F920FB6BD
:104E60000F9211240F931F932F933F934F935F93B0
:104E70006F937F938F939F93AF93BF93EF93FF9322
:104E8000CF93DF930F92CDB7DEB719820E948F26A2
:104E9000CE0101960E949D26082F0695069506953F
:104EA000282F22952570902F9570290F922F93709F
:104EB00026952695920F982797708981982B09F04F
:104EC0005CC0053008F059C080E18A95F1F7589A26
:104ED000509A82E08A95F1F700C0589888E0089FC0
:104EE00080011124D801A95FBE4F1696ED91FC9167
:104EF00017973097A9F06091C9017091CA01149673
:104F00002D913C911597260F371F11968D919C91ED
:104F10001297680F791F13964C9113978C910995EE
:104F2000F801E95FFE4F6381662351F02091C901CA
:104F30003091CA0184819581820F931F0E941427AA
:104F40000E94972680E18A95F1F758985098589AD0
:104F500080E18A95F1F7F801E95FFE4F60816623F1
:104F600051F02091C9013091CA0181819281820F53
:104F7000931F0E94C7260E948F260F90DF91CF912A
:104F8000FF91EF91BF91AF919F918F917F916F9121
:104F90005F914F913F912F911F910F910F900FBEF5
:104FA0000F901F9018950F931F93CF93DF93EC01F1
:104FB00005970CF04CC0F894509A589885E08A9563
:104FC000F1F700009C2F969595708C2F8570980FA7
:104FD000892F837096959695980F83E0CC0FDD1FEF
:104FE0008A95E1F78E01092B0E94972600C068E0A0
:104FF000802F0E94F32680E18A95F1F75098589A05
:10500000489B1EC087E090E048991CC0FE01E95F04
:10501000FE4F63816623F9F02091C9013091CA01E6
:1050200084819581820F931F0E94C726811113C02E
:10503000509A589A7894DF91CF911F910F910895CB
:1050400000C0DECF019729F4509A589A789480E0F6
:10505000F2CF00C0D9CF0E948F2680E28A95F1F767
:105060005898509A80E18A95F1F7C95FDE4F6881C0
:10507000662351F02091C9013091CA0189819A813A
:10508000820F931F0E9414270E949726789481E034
:10509000D2CF80913F0308959B01BA01909197036D
:1050A0009430E9F48F708093E9009FEF8091E800DD
:1050B000915085FD06C085ED8A95F1F700009111AC
:1050C000F5CF8091E80085FF0AC050E040E0C901BB
:1050D0000E94462A8091E8008E778093E800089528
:1050E00043E050E0BC0182E00E944C28089546E075
:1050F00050E0BC0182E00E944C280895CF93DF93DA
:10510000EC0148E050E0BC0181E00E944C2888E0BE
:10511000FE01A7E3B3E001900D928A95E1F7DF91DC
:10512000CF91089580919603811109C00E94D62BDA
:105130000E94332C8091E20084608093E200089505
:105140001092960308950E947E250895609193031E
:1051500081E0611101C080E00E9475250895909161
:10516000970381E0943009F080E0609193030E94FE
:105170007B25089542E061EC81E00E94522B42E2DF
:1051800061EC82E00E94522B9091970381E0943071
:1051900009F080E0609193030E946B25089580914F
:1051A0009903833009F461C030F48130D1F1823049
:1051B00009F49EC008958A3009F48AC08B3009F43E
:1051C0006FC0893009F050C080919803813209F096
:1051D0004BC080919C0390919D03029708F044C0BE
:1051E0008091E800877F8093E8008091E80082FF4B
:1051F00037C09091F3008091F200029731F48091D2
:10520000F100813011F0863021F48091F10080931B
:105210003F038091E8008B778093E8000E94862B03
:1052200023C080919803813AF9F48091E800877F48
:105230008093E80080919C0390919D03892B61F4F9
:1052400068E087E393E070E00E94952A8091E8008F
:105250008B778093E800089560E090E080E0F3CFE2
:10526000809197038111C1CF089580919803813A6D
:10527000D9F780919C0390919D03892BA9F7809188
:10528000E800877F8093E8008091E80080FFFCCFF2
:1052900080914A018093F1008091E8008E77BCCF25
:1052A00080919803813201F780919C0390919D0336
:1052B000892BD1F68091E800877F8093E8000E94D7
:1052C000862B80919A0380934A010E941C080895BE
:1052D00080919803813241F68091E800877F809326
:1052E000E8000E94862B80919B03809340030895E1
:1052F00080919803813A09F0B7CF8091E800877FC9
:105300008093E8008091E80080FFFCCF809140030B
:10531000C1CF84B7877F84BF0FB6F894A8958091DA
:105320006000886180936000109260000FBE80E88A
:1053300090E00FB6F89480936100909361000FBEE7
:105340000E94842508950E94D62B0E94332CE2EE01
:10535000F0E080818460808378940E94B22E08956A
:1053600082E491E00E94662408958091970385303D
:1053700031F480919703853019F00E94FE2508953D
:105380000E94D32580919503882399F30E9491254B
:10539000882379F30E94302A0E941C08EACF0895DE
:1053A0009A0140919E0350919F030E94D82908952D
:1053B000492F55274330510519F168F44130510503
:1053C00009F444C04230510509F445C090E080E042
:1053D00050E040E025C04132510549F142325105CB
:1053E000A9F784E490E046EE55E061157105C1F03F
:1053F0008BE790E04BE655E06130710589F0E6CF30
:1054000099278130910581F0009729F00297F1F6F4
:10541000E6EFF4E002C0EAE1F5E0849190E0AF014C
:10542000F901518340830895E4E0F5E0F6CF89E087
:1054300090E040E355E06115710591F389E090E05B
:1054400049E455E06130710559F3C0CF82E190E045
:1054500049E555E0E5CF8BE390E04EE155E0E0CF44
:1054600080E189BD82E189BD09B400FEFDCF809154
:10547000D8008F7D8093D8008091E0008260809377
:10548000E0008091E00081FDFCCF0895AF92BF92D3
:10549000CF92DF92FF920F931F93CF93DF936C0114
:1054A000EB018A010E94A52BF82E811123C0011562
:1054B000110539F0F80180819181C81BD90BC80E04
:1054C000D91EB12CA12C2097A9F08091E80085FD70
:1054D00022C08091E8008E778093E80001151105C5
:1054E000A1F0F80180819181A80EB91EB182A0823D
:1054F00085E0F82E8F2DDF91CF911F910F91FF90B6
:10550000DF90CF90BF90AF9008950E94A52B882385
:10551000D1F2F82EEFCFF60181916F018093F10067
:105520002197FFEFAF1ABF0ACECFFC0180919E03F7
:1055300090919F0386179707A0F06115710529F4D4
:105540009091E8009E779093E80090E061157105D6
:1055500051F4911108C08091E80082FF34C080E0CE
:105560000895BC01F2CF809197038823C1F1853063
:10557000C1F18091E80083FD30C08091E80082FD98
:10558000EACF8091E80080FFE1CF8091F300209185
:10559000F200382F6115710519F02830310558F0E7
:1055A00091E02830310509F090E02091E8002E7755
:1055B0002093E800CBCF81918093F1006150710975
:1055C0002F5F3F4FE7CF80919703882341F08530CD
:1055D00041F08091E80083FFBECF81E0089582E032
:1055E000089583E00895FC0180919E0390919F03AC
:1055F00086179707A0F06115710529F48091E800DE
:105600008E778093E80090E06115710551F4911157
:1056100008C08091E80082FF35C080E00895BC0199
:10562000F2CF809197038823C9F18530C9F1809129
:10563000E80083FD31C08091E80082FDEACF8091CF
:10564000E80080FFE1CF8091F3002091F200382F35
:105650006115710519F02830310558F091E02830B6
:10566000310509F090E08091E8008E778093E800A2
:10567000CBCF84918093F1003196615071092F5FF7
:105680003F4FE6CF80919703882341F0853041F06A
:105690008091E80083FFBDCF81E0089582E0089506
:1056A00083E00895982F973028F08F708093E90059
:1056B00081E008959093E900242F762F50E0981709
:1056C00031F07091EC002091ED005091F00021FD3F
:1056D00002C09F5FE8CF3091EB003E7F3093EB003C
:1056E0003091ED003D7F3093ED003091EB00316063
:1056F0003093EB007093EC002093ED005093F0009A
:105700002091EE0027FDE5CF80E008958091980379
:1057100087FF13C08091E80082FF06C08091E800F7
:105720008B778093E80004C0809197038111F2CFBA
:105730000895809197038823D9F38091E80080FF32
:10574000F8CF8091E8008E77ECCF2091E400309183
:10575000E50095E6A9012091EC00822F817020FFE1
:1057600006C08091E80080FF06C080E00895209187
:10577000E80022FD1AC080919703882389F08530C4
:1057800089F08091EB0085FD0FC02091E4003091FD
:10579000E50042175307F9F29150E1F684E00895CD
:1057A00082E0089583E0089581E008950E94452CE9
:1057B0000E944D2CE0EEF0E0808181608083E8ED76
:1057C000F0E080818F77808319BCA7EDB0E08C91E9
:1057D0008E7F8C9380818F7E8083109296030895B4
:1057E0000F931F93CF93DF930E94452C0E944D2C63
:1057F000C8EDD0E088818F7788838881806888832E
:1058000088818F7D888319BC10929703109293032F
:10581000109295031092940300EE10E0F80180813D
:105820008B7F808388818160888342E060E080E0B4
:105830000E94522BE1EEF0E080818E7F8083E2EEC9
:10584000F0E0808181608083808188608083F801BE
:1058500080818E7F8083888180618883DF91CF9172
:105860001F910F910895E8EDF0E080818F7E808395
:10587000E7EDF0E080818160808384E082BF81E099
:10588000809396030E94F02B0895E8EDF0E080816C
:105890008E7F80831092E20008951092DA001092B9
:1058A000E10008951F920F920FB60F9211242F93CB
:1058B0003F934F935F936F937F938F939F93AF9398
:1058C000BF93EF93FF938091E10082FF0BC0809123
:1058D000E20082FF07C08091E1008B7F8093E100AE
:1058E0000E94B12E8091DA0080FF19C08091D8000B
:1058F00080FF15C08091DA008E7F8093DA0080915E
:10590000D90080FF96C080E189BD82E189BD09B4DC
:1059100000FEFDCF81E0809397030E949228809142
:10592000E10080FF19C08091E20080FF15C08091E6
:10593000E2008E7F8093E2008091E200806180939C
:10594000E2008091D80080628093D80019BC85E085
:10595000809397030E94A6288091E10084FF2BC0CA
:105960008091E20084FF27C080E189BD82E189BD8A
:1059700089B5982F917080FFFBCF8091D8008F7DE3
:105980008093D8008091E1008F7E8093E100809128
:10599000E2008F7E8093E2008091E200816080933C
:1059A000E20080919303882309F449C084E0809346
:1059B00097030E94AF288091E10083FF29C0809166
:1059C000E20083FF25C08091E100877F8093E100A2
:1059D00082E080939703109293038091E1008E7F81
:1059E0008093E1008091E2008E7F8093E2008091BD
:1059F000E20080618093E20042E060E080E00E948B
:105A0000522B8091F00088608093F0000E94A328C0
:105A1000FF91EF91BF91AF919F918F917F916F9186
:105A20005F914F913F912F910F900FBE0F901F905C
:105A3000189519BC109297030E94A02870CF8091EE
:105A4000E30087FD93E090939703B3CF1F920F92EB
:105A50000FB60F9211242F933F934F935F936F9341
:105A60007F938F939F93AF93BF93CF93DF93EF93E6
:105A7000FF93D091E900DF708091EC00C82FC170D6
:105A800080FDC0E81092E9008091F000877F80934C
:105A9000F00078940E946A2D1092E9008091F00045
:105AA00088608093F000CD2BCF70C093E900FF9108
:105AB000EF91DF91CF91BF91AF919F918F917F91A6
:105AC0006F915F914F913F912F910F900FBE0F906B
:105AD0001F901895AAE2B0E0E0E7FDE20C94892F50
